:020000040800F2
:10000000004002207998010809990108E179010866
:1000100000000000000000000000000000000000E0
:10002000000000000000000000000000FFD80108F0
:10003000000000000000000011DA0108CD7901087D
:100040000999010809990108099901080999010804
:1000500009990108099901080999010809990108F4
:1000600009990108099901080999010809990108E4
:1000700009990108099901080999010809990108D4
:1000800009990108099901080999010809990108C4
:1000900009990108099901080999010809990108B4
:1000A0000999010809990108099901087D7A01084F
:0C00B000297B0108D57B01080999010893
:1000C00010B5064C2378002B07D1054B002B02D02E
:1000D000044800E000BF0123237010BDA0090020E8
:1000E00000000000C8EC0208044B10B5002B03D040
:1000F0000349044800E000BF10BDC04600000000F6
:10010000A4090020C8EC020802780B78002A03D06A
:10011000013001319A42F7D0D01A70470023C25CF7
:100120000133002AFBD1581E7047000002B471460B
:1001300049084900095C49008E4402BC7047C0462A
:1001400003B47146490840004900095A49008E44E9
:1001500003BC7047002243088B4274D303098B42CF
:100160005FD3030A8B4244D3030B8B4228D3030C87
:100170008B420DD3FF22090212BA030C8B4202D329
:100180001212090265D0030B8B4219D300E0090A51
:10019000C30B8B4201D3CB03C01A5241830B8B425A
:1001A00001D38B03C01A5241430B8B4201D34B0343
:1001B000C01A5241030B8B4201D30B03C01A5241A8
:1001C000C30A8B4201D3CB02C01A5241830A8B422D
:1001D00001D38B02C01A5241430A8B4201D34B0216
:1001E000C01A5241030A8B4201D30B02C01A52417A
:1001F000CDD2C3098B4201D3CB01C01A524183092E
:100200008B4201D38B01C01A524143098B4201D367
:100210004B01C01A524103098B4201D30B01C01A92
:100220005241C3088B4201D3CB00C01A524183080C
:100230008B4201D38B00C01A524143088B4201D339
:100240004B00C01A5241411A00D201465241104699
:100250007047FFE701B5002000F0F0F802BDC0468E
:100260000029F7D076E7704703460B437FD400227E
:1002700043088B4274D303098B425FD3030A8B423A
:1002800044D3030B8B4228D3030C8B420DD3FF22A4
:10029000090212BA030C8B4202D31212090265D072
:1002A000030B8B4219D300E0090AC30B8B4201D325
:1002B000CB03C01A5241830B8B4201D38B03C01A6C
:1002C0005241430B8B4201D34B03C01A5241030BE3
:1002D0008B4201D30B03C01A5241C30A8B4201D394
:1002E000CB02C01A5241830A8B4201D38B02C01A3F
:1002F0005241430A8B4201D34B02C01A5241030AB6
:100300008B4201D30B02C01A5241CDD2C3098B429A
:1003100001D3CB01C01A524183098B4201D38B0117
:10032000C01A524143098B4201D34B01C01A5241BA
:1003300003098B4201D30B01C01A5241C3088B42FF
:1003400001D3CB00C01A524183088B4201D38B00EA
:10035000C01A524143088B4201D34B00C01A52418C
:10036000411A00D201465241104670475DE0CA0F63
:1003700000D04942031000D34042534000229C4623
:1003800003098B422DD3030A8B4212D3FC2289012D
:1003900012BA030A8B420CD3890192118B4208D303
:1003A000890192118B4204D389013AD0921100E065
:1003B0008909C3098B4201D3CB01C01A5241830979
:1003C0008B4201D38B01C01A524143098B4201D3A6
:1003D0004B01C01A524103098B4201D30B01C01AD1
:1003E0005241C3088B4201D3CB00C01A524183084B
:1003F0008B4201D38B00C01A5241D9D243088B42A1
:1004000001D34B00C01A5241411A00D20146634643
:1004100052415B10104601D34042002B00D54942A7
:10042000704763465B1000D3404201B5002000F0E6
:1004300005F802BD0029F8D016E770477047C0469E
:100440008446100062468C461900634600E0C046B0
:100450001FB501F081FE002801D40021C8421FBD54
:1004600010B501F0D1FD4042013010BD10B501F0D2
:1004700073FE002801DB002010BD012010BDC04626
:1004800010B501F069FE002801DD002010BD01203B
:1004900010BDC04610B501F0F9FD002801DC0020B8
:1004A00010BD012010BDC04610B501F0EFFD0028C1
:1004B00001DA002010BD012010BDC04684460800AE
:1004C0006146FFE71FB500F065FB002801D400215D
:1004D000C8421FBD10B500F0F1FA4042013010BD16
:1004E00010B500F057FB002801DB002010BD0120F3
:1004F00010BDC04610B500F04DFB002801DD002006
:1005000010BD012010BDC04610B500F0FDFA002856
:1005100001DC002010BD012010BDC04610B500F068
:10052000F3FA002801DA002010BD012010BDC046FA
:10053000994201D1801A04D002D201204042704772
:1005400001207047002B11D1002A0FD1002900D1C2
:10055000002802D00021C943080007B4024802A1C4
:100560004018029003BDC046D5FEFFFF03B46846A5
:1005700001B5029800F0BCF8019B9E4602B00CBC8D
:100580007047C046F0B5CE469946030C9C4613040E
:1005900047461B0C1D000E0061460404240C80B568
:1005A0000700100C4B436543414360432C0CC018BB
:1005B00020188C46834203D980235B029846C444AA
:1005C000494679435643030C2D042D0C8919634485
:1005D00000044019C918C0BCB946B046F0BDC046B9
:1005E0009E2110B5C905041CFFF798FF002803D110
:1005F000201C00F001FE10BD9E21201CC90500F04A
:100600005BFC00F0F9FD80231B069C466044F2E78A
:1006100070B500220C4B04000D00FFF745FF0028C9
:1006200004D12000290002F05DFC70BD064B0022C1
:100630002000290002F0B6F802F054FC80231B06CB
:100640009C466044F1E7C0460000E04170B50500FB
:100650000C000022002328002100FFF707FF0028DC
:1006600008D12800210000F00FF802000B00100054
:10067000190070BD80231B06E118280000F004F863
:10068000002342428B41F2E770B500220B4B0D0074
:10069000040001F0C5FDFFF7BBFF060002F088FC77
:1006A0000022074B01F0BCFD02000B0020002900D6
:1006B00002F078F8FFF7ACFF310070BD0000F03DAC
:1006C0000000F04170B50600080002F041FC002275
:1006D000064B01F0A5FD0D000400300002F068FC9F
:1006E0002B00220000F042FE70BDC0460000F04129
:1006F000F0B557464E464546DE46E0B504000D00CF
:100700009246994683B08B4230D82DD04946504608
:1007100002F060FD29000600200002F05BFD331AA4
:100720009846203B34D49B4653465A469340424613
:100730001F00534693401E00AF423BD8AF4200D14A
:1007400079E05B46A41BBD41002B00DA76E0002275
:1007500000230092019301235A4693400193012301
:1007600042469340009329E08242CFD900220023E1
:10077000009201930C9B002B01D01C605D600098DF
:10078000019903B0F0BCBB46B246A946A046F0BDF5
:1007900042469B4620239B1A5246DA4041461300AC
:1007A0004A468A40170042461F43534693401E0064
:1007B000AF42C3D900220023009201934346002B8D
:1007C000D8D0FB0772081A4346467B080EE0AB42BE
:1007D00001D1A2420CD8A41A9D41012024196D41D7
:1007E0000021013E24184D41002E06D0AB42EED927
:1007F000013E24196D41002EF8D1009801995B4605
:1008000000196941002B24DB2B005A464446D34093
:100810002A00E2401C005B461500002B2ADB260064
:100820009E40330026004746BE403200801A994160
:10083000009001919EE7A342BCD882E74246202364
:1008400000219B1A0022009101920122DA400192BC
:1008500085E7424620239B1A2A0046469A402300F9
:10086000F340444613432A00E2401C005B46150057
:10087000002BD4DA42462F002023260097409B1AF3
:10088000DE403B003343CDE7F0B54F464646D64603
:100890004502C0B547000C1C6D0A3F0EC60F002F65
:1008A00000D16FE0FF2F00D174E000238022994631
:1008B0009A46ED00D20415437F3F63025B0A9846D7
:1008C00063001B0EE40F002B4DD0FF2B45D042469A
:1008D0008021D200C9041143884600227F3B3100A9
:1008E000FF1A4B466140C9B20F2B00D9B8E07048DF
:1008F0009B00C3589F4600239846260045469246D3
:100900005346022B00D18DE0032B00D1A1E0012B37
:1009100018D03B007F33002B6DDD6A0704D00F2217
:100920002A40042A00D004352A0103D5614B1D401A
:100930003B008033FE2B00DD74E0AA01520AD8B2DE
:1009400002E00E0000200022C005F60710433043ED
:10095000E0BCBA46B146A846F0BD4346002B3FD1A5
:100960000222FF3F03E04346002B2DD1012231003C
:100970004B466140C9B213430F2B38D84E489B00F9
:10098000C3589F46002D13D104239946033B0027EB
:100990009A4692E7002D05D108239946063BFF278A
:1009A0009A468AE70C239946093BFF279A4684E733
:1009B000280002F0F1FB7627431F9D4000237F4271
:1009C00099469A463F1A78E7404602F0E5FB4246D0
:1009D000431F9A4076235B4290461B1A00227EE713
:1009E00003234A461A439146FC33032277E70E005D
:1009F000FF200022A8E70122D31A1B2BA2DC9E377E
:100A00002A00BD40DA406B1E9D4115436A0704D0A1
:100A10000F222A40042A00D004356A0144D501205F
:100A2000002291E7FF2000228EE780220026FF208F
:100A3000D20389E7002398468022D203154208D0CA
:100A40004346134205D11A4352022600FF20520AA0
:100A50007AE78022D2032A435202FF20520A73E728
:100A600042466B015501AB421AD21B200022013FC6
:100A700001261C0052005B00002C01DB9D4201D8C6
:100A80005B1B324301380028F3D1581E83411343C6
:100A90001D003B007F330E00002B00DD3DE7AAE781
:100AA0001A2001225B1BE3E7AA010020520A4BE750
:100AB000F02A0308FFFFFFF7302B030870B5420050
:100AC00045024E024C00C30F6D0A0120120E760A39
:100AD000240EC90FFF2A06D0FF2C03D0A24201D159
:100AE000B54206D070BD002DFCD1FF2CFAD1002EEE
:100AF000F8D18B4206D00120002AF3D12800431EF2
:100B00009841EFE70020EDE770B5420045024E0244
:100B10004C00C30F6D0A120E760A240EC80FFF2A6E
:100B20001BD0FF2C0ED0002A1BD1002C01D1002E8F
:100B30001CD0002D0CD083421CD00221581E08402E
:100B4000013870BD002E22D1002AF4D1002DF2D13F
:100B50000028F6D101204042F3E7002D17D1FF2CE9
:100B6000F0D0002CE7D1002EE5D1E6E70020002DE3
:100B7000E7D0E2E7A24205DCEADBB54202D8E7D3E0
:100B80000020DEE74342584140000138D9E7022007
:100B90004042D6E770B5420045024E024C00C30FFA
:100BA0006D0A120E760A240EC80FFF2A0BD0FF2CF6
:100BB0000DD0002A1FD1002C16D1002E14D10020F8
:100BC000002D10D009E0002D0CD1FF2C13D1002EE8
:100BD00008D1002A08D0834212D00221581E0840B2
:100BE000013800E0022070BD002DF4D10028FAD1B8
:100BF00001204042F7E7002CEDD1002EEBD1ECE7CD
:100C0000A24205DCF2DBB54202D8EFD30020EAE7CE
:100C10004342584140000138E5E7C04643025B0AC1
:100C2000F0B54F4646469946D646C30F450098460E
:100C3000C0B54B460F1C2D0E00D1CBE0FF2D00D1CF
:100C4000CFE08022DB00D2041A4300239146002625
:100C50009A467F3D7C027B00640A1B0EFF0F002B2F
:100C600000D1A9E0FF2B11D08022E400D20414436C
:100C700042467F3B5B197A400020D2B25D1C0A2EAF
:100C800013DD3A000B2E47D047463FE02B00FF33E1
:100C9000002C1ED102221643424601357A40D2B2C0
:100CA000FF350A2E00DDE4E00220022E1CDC013EAE
:100CB000012E42D802283DD0012866D10020002113
:100CC000C0050843D2071043E0BCBA46B146A84667
:100CD000F0BD03221643424601357A40D2B2FF35B9
:100CE0000A2E00DDE4E003200121B140A626F60033
:100CF00031420AD19026B600314216D1B93EFF3EAC
:100D00000E421AD0A146824600E0170053463A0030
:100D1000022B0FD04C4650460328CDD18021C90369
:100D200021434902FF20490ACAE780210022FF200F
:100D3000C903C5E7FF200021C2E7200C494624046F
:100D4000240C27000E0C0904090C74434F4346433E
:100D50004843390C001909188C4203D980204002FD
:100D6000844666443F0408043F0CC0198401671E92
:100D7000BC41090C800E8919044389010C43090107
:100D800071D5012361081C400C432B007F33002BDD
:100D900051DD610704D00F212140042900D0043423
:100DA000210103D5434B1C402B008033FE2BC1DCBB
:100DB000A101490AD8B283E7002C2CD10123424675
:100DC0001E432B007A400120D2B25D1C0A2E00DDAA
:100DD00057E76AE7002B10D10123042600259A4625
:100DE00038E7002B04D102230826FF259A4631E775
:100DF00003230C26FF259A462CE7484602F0CCF93F
:100E00004A46431F76259A4000236D4291460026AC
:100E10009A462D1A1EE7200002F0BEF94246431FF3
:100E20009C402B1A763B7A400020D2B25D1C0A2EE1
:100E300000DD26E739E70121CB1A1B2B00DD3DE75A
:100E40009E352100AC40D940631E9C4121434B0795
:100E500004D00F230B40042B00D004314B0104D5E8
:100E6000012000212CE71D008FE789010020490A9D
:100E700026E702230F2E0CD180214B46C9030B42DB
:100E80000DD00C420BD1214349023A00FF20490A00
:100E900016E70B2E00D0F7E6A1469A4636E78021EA
:100EA0004B46C903194349024246FF20490A07E756
:100EB0000323DFE7FFFFFFF7F0B5C64643025B0AF7
:100EC0004500DA00C40F48024F009446420A1E0053
:100ED000904600B52D0E3F0EC90F8009FF2F59D047
:100EE000012251408C4239D0EA1B002A58DD002FE4
:100EF00068D0FF2D00D1D1E08023DB0418431B2AEA
:100F000000DCE3E001236246D31A5A0100D4ACE0CE
:100F10009B019E09300002F03FF933000538834001
:100F2000854200DCC6E0B24A2D1A13405A0704D0AD
:100F30000F221A40042A00D004335A0100D497E04B
:100F40006A1CFE2D00D184E09B015E0AD2B2D0055E
:100F50003043E407204380BCB846F0BDEA1B002ABA
:100F600041DD002F6BD0FF2D00D197E08023DB0403
:100F700018431B2A00DCCCE0012363445A0174D5DA
:100F80000135FF2D65D001229A491A405B080B40BC
:100F90001343CBE700281FD08C4222D02A00FF3A0F
:100FA000002A35D07A1B002D00D099E06346002B33
:100FB00000D1DDE0531E012A00D105E1FF2A6BD0EC
:100FC0001A0094E0002873D0511E012A00D1DFE0FE
:100FD000FF2A63D00A0092E701225140A14200D0CB
:100FE00082E72A00FF3A002A36D07A1B002D00D172
:100FF000AAE0FF2F00D1DAE080236146DB04194329
:101000008C461B2A00DCD4E001233D001B18B5E709
:10101000FE276A1C174271D1002D00D09EE0634666
:10102000002B00D1D5E00022002800D18FE71B1A49
:101030005E0100D4D6E063460C00C31A76E70028B0
:1010400036D0511E012A00D19AE0FF2A26D00A008C
:101050008FE7FF2200267AE7FE276A1C174262D03C
:10106000FF2AF6D01500604443085A0700D05FE716
:10107000DB08FF2D12D05B025E0AEAB267E7624628
:10108000002A00D193E0002808D08022D203134226
:1010900004D04046104201D10C004346002BD8D06A
:1010A0008026F6031E437602FF22760A4FE7434668
:1010B0001500DEE72022401B0130121A1900934070
:1010C000C1405A1E934100250B432FE720239B1A52
:1010D000010098400300D1405A1E93410B4312E790
:1010E000FF2FD9D080236446DB041C43A4461B2A6F
:1010F00052DD01230C003D00C31A06E763461E1AA9
:10110000730139D4002E00D004E700240022002609
:101110001DE720239B1A010098400300D1405A1E6E
:1011200093410B4329E7002DA9D16346002B56D0EC
:101130000022002800D10AE7030063445A0194D535
:101140002B4A0135134090E76346002BAFD0531E66
:10115000012A15D0FF2A2AD01A0052E76246002A37
:1011600091D1002898D180260024FF22F603EEE6D4
:101170000C00434615007CE763460C00C61AC9E61E
:101180000300634401255A0100D46EE70225FAE604
:10119000634601251B1AB8E664462023D4409B1AF7
:1011A00062469A4013005A1E93412343A2E74346E6
:1011B00074E761462023D1409B1A62469A4013008F
:1011C0005A1E93410B4320E763460C000125C31AC6
:1011D0009BE6002899D00C0046460022B7E646461A
:1011E0000022B4E6002B00D03FE700240026AEE644
:1011F000FFFFFFFBFFFFFF7D41024200C30F490AD3
:101200000020120E7E2A03DD9D2A02DD094A98186D
:101210007047802000040143952A07DC9620821A3B
:10122000D1404842002BF3D10800F1E7963A9140B3
:10123000F7E7C046FFFFFF7F70B5002813D0C31744
:10124000C5185D40C40F280001F0A6FF9E230100D1
:101250001B1A962B0FDC082831D008398D406D02FF
:101260006D0AD8B202E0002400200025C005284302
:10127000E407204370BD992B0CDD0522121A2800CB
:10128000D040020008001B3085402800451EA841C0
:1012900002431500052916DC2A000F4802406E079C
:1012A00009D00F263540042D05D00432550102D552
:1012B0009F2302405B1A9201550AD8B2D6E76D020D
:1012C00096206D0AD2E74A1F95402A000248024044
:1012D0006E07F0D0E5E7C046FFFFFFFB70B5041EC8
:1012E0000ED001F059FF9E2301001B1A962B0CDC37
:1012F00008282CD008398C406402640AD8B201E076
:1013000000200024C005204370BD992B0ADD020097
:1013100020001B3290400200501E82410520401ADE
:10132000C4401443052916DC22000F48024065071B
:1013300009D00F252C40042C05D00432540102D5CD
:101340009F2302405B1A9201540AD8B2DAE7640282
:101350009620640AD6E74A1F9440220002480240C1
:101360006507F0D0E5E7C046FFFFFFFBF0B54F464D
:101370004646D6460400C0B51F000B0310004E00C1
:101380005B0ACD0F610F7A001943E3003C03FF0FA6
:10139000BC46640A470F2743760D520DC000B9467C
:1013A0008046B71A654500D19BE0002F00DC84E041
:1013B000002A00D1BEE0C84A964200D124E1802232
:1013C0004C4612041443A146382F00DD67E11F2F5D
:1013D00000DDD6E120224C46D21B9440A246444672
:1013E000FC4020005446044340469040421E904139
:1013F0004A46FA400443891A1C1BA34292415242B6
:101400008B1A9A4653461B0200D4D4E053465A0224
:10141000530A9A465346002B00D104E1504601F08E
:10142000BBFE0300083B20222000D21A5146D040C8
:10143000994002009C400A43B34200DA02E19B1B40
:10144000591C1F2900DDA7E02023100026005B1A8D
:101450009C409840CE40CA40631E9C413043924617
:1014600000260443630709D00F232340042B05D033
:10147000231DA342A4416442A2441C0053461B0204
:1014800000D49BE0944B01369E4200D1B8E0534615
:101490009249E4080B4019005B07234372054C0294
:1014A000240B520D1205ED0722432A4318001100A8
:1014B000E0BCBA46B146A846F0BD002F48D0971B05
:1014C000002E00D00EE10C001C4300D1B7E17C1EC1
:1014D000012F00D126E2804DAF4200D1D5E1270097
:1014E00007E1002F00DCB2E0002A47D07A4A96429A
:1014F00000D189E080224C4612041443A146382FC3
:101500006BDC1F2F00DC6EE13A004846203AD040E9
:101510008446202F07D040224846D21B904002002C
:101520004046104380464046421E904162460400B9
:10153000144357E04A46024300D103E17A1E012FCB
:1015400000D193E1644CA74200D18AE117003BE748
:10155000634C721C224200D0E0E00A001A43002EC5
:1015600000D074E1002A00D1D0E14A46024300D005
:10157000E3E14A07DB081343C90829E04A4602436E
:1015800000D17DE17A1E012F00D1E0E0524CA7424C
:1015900000D166E11700B2E710001F3BD8402029B8
:1015A00003D040235B1A9A401443631E9C410023DE
:1015B00000269A460443630700D055E75246E308E5
:1015C0005207134352463700D108434A97421FD06F
:1015D00009037A050C0B520D64E742464C4614434E
:1015E000621E9441E4189C429241524292468A44BF
:1015F00053461B02DFD5384B01369E4200D0B3E084
:101600003200002400234DE74A07DB081343C908D2
:101610001A000A4300D100E2802424030C4324036F
:101620002D4A240B3EE7200001F0B6FD03001833DD
:101630001F2B00DCF7E62200083882400024B3426A
:1016400000DBFCE6F61A254B1A4092460AE7002F0B
:101650002BD0971B002E00D1B8E01F4CA24200D126
:101660001CE1802424042143382F00DD1EE11F2FBC
:1016700000DD9EE120260C00F61B1800B340B440AC
:10168000F8405E1EB341F94004431C43894444447E
:1016900044459B415B424B449A461600A8E74246AC
:1016A0004C461443621E9441A6E60D4C721C224225
:1016B00000D0A8E00A001A43002E00D00AE1002A58
:1016C00000D15EE14A46024300D061E14A07DB08EF
:1016D0001343C9087CE7C046FF070000FFFF7FFFF8
:1016E000FE070000CF4CA24200D1CEE080242404AB
:1016F0002143382F5BDC1F2F00DDDCE020250C00B0
:10170000ED1B1E00AB40AC40FE405D1EAB413443C0
:10171000F9401C434B465B1A99464CE04A461C1A5A
:10172000881AA34292415242924602005046121A2F
:101730009246120278D45346234300D06AE6002131
:10174000002545E74A07DB081343C9083DE71C1895
:101750009C429B4149448A465B429A445346012637
:101760001B0200D427E702265246AF4B01211A4044
:101770001300214062080A43DC075B089A461443C1
:1017800070E63A004C46203AD440A446202F07D0B9
:1017900040224846D21B90400200404610438046FB
:1017A0004046421E904162460400144324E6194319
:1017B0000C00631E9C4143461C1BA0459B414946AF
:1017C0005B42CB1A9A46654616001BE60C001C438A
:1017D00000D1C7E07C1E012F00D1F9E0914EB74245
:1017E0005CD0270040E720224C464046D21B944064
:1017F000F840044340469040421E90414A46FA4019
:1018000004438918EEE6874CA24200D1F9E6181885
:1018100098429B4149445B42CB18DC0740085B0877
:101820009A4616000443C6E64246D41AA0458041B3
:101830004B464042591A0B1A9A466546EAE54B4612
:101840004A46C0085B0765460343D108BDE6002A47
:1018500000D08EE04B46034317D1802100250903B9
:10186000DAE64A07DB081343C908D1E61C1A4A46E0
:10187000A3429B41891A5B42CB1A9A460126C1E5D5
:101880004A07DB081343C9089FE64346D8084B467E
:101890004A465B0765460343D108B9E64346D80884
:1018A0004B464A465B070343D108B1E619430C0097
:1018B000631E9C41EBE63C000D00203CE540202FE0
:1018C00003D04024E41BA1400B431C00631E9C4139
:1018D0002C4370E7002AE1D04A460243C1D04A07B0
:1018E000DB0813438022C9081203114208D048467E
:1018F000C408144204D143462100DB0842071343C5
:101900005A0FDB005207DB08134381E64B460343C3
:1019100000D114E74B464A46C0085B0765460343BF
:10192000D10855E6C41AA04580414B464042591A99
:101930000B1A9A466546012664E51C1A4A46A342DC
:1019400080418A1A4042121A9246120249D54246F2
:10195000D41AA04580414B464042591A0B1A9A4668
:1019600065467FE54B464A46C0085B070343D108FE
:101970002BE64A46DB08024338D14A071343C9081D
:1019800046E64B464A46C0085B070343D1081FE6BC
:101990001C189C429B4149448A465B429A445346E8
:1019A0001B0200D407E652461F4B01261A409246FE
:1019B00001E63C000E00203CE640202F03D04024EE
:1019C000E41BA1400B431C00631E9C4134435EE6B4
:1019D00043448342804149448A4640421C00824439
:1019E000BCE65346234300D1A9E6E4E54A07134386
:1019F0008022C9081203114209D04846C408144283
:101A000005D1434665462100DB08420713435A0FC0
:101A1000DB00DB0852071343FAE50023014A1C00F0
:101A200040E5C046FF070000FFFF7FFFF0B55746C7
:101A30004E464546DE46E0B50C031F004B0081468E
:101A40009246050085B0240B5B0DCE0F002B00D114
:101A500052E1D24A934200D16EE1420FE4001443B6
:101A60008022120422439046CD4AC50093469B44EF
:101A70000023994600933C037B005046240B5B0DEA
:101A8000FF0F002B00D11AE1C44A934200D15EE15E
:101A9000420FE4002243802424041443C04AC100BE
:101AA00094465A466344D31A9B46002033007B4039
:101AB0009A464B460F2B27D8BA4A9B00D3589F46CD
:101AC000B246009B022B16D0032B00D187E2012BDC
:101AD00000D0D5E00023002200251B051343524609
:101AE000D20713432800190005B0F0BCBB46B2462C
:101AF000A946A046F0BD00220025A84BEDE7BA4656
:101B0000A0460D000090DCE7444500D2C4E100D1BE
:101B1000BFE101235B429C462E0040460025E34482
:101B200023020C0E1C431B0C994623040A021F0CB3
:101B3000494600920197FEF793FB02007A430B049B
:101B4000310C804619438A4207D901235B429C46E7
:101B50000919E0448C4200D801E2881A4946FEF790
:101B60007FFB019A360442430904360C03000E43FE
:101B7000B24204D93619013BB44200D8E9E1B01AA7
:101B80004246009E12041A43330C1F00110C90466B
:101B9000029313043204160C32001B0C5A430396B2
:101BA0007B434E437943170CBC469B1963449E42CA
:101BB00003D980267602B44661441E0C71181604BF
:101BC0001B04360C9E19884202D312D1B54210D2A2
:101BD00043465A1E009B9C4665441F009D429B4104
:101BE0005B421B19C018844200D29EE100D199E1EA
:101BF0009046AE1BB542AD41401A6D42401B844237
:101C000000D1D2E14946FEF72BFB019A0B04424377
:101C1000310C050019438A4200D96CE1881A494603
:101C2000FEF71EFB019A360442430904360C0300FA
:101C30000E43B24200D953E10398B61A02002D04B4
:101C40001D43029F2B041B0C5A437B439C46290CCB
:101C50004843130C844463447943984203D9802059
:101C6000400284466144180C12041B04120C4018F4
:101C70009B18864200D200E100D1FBE001231D4306
:101C8000494B5B44002B00DCAAE06A0700D03DE131
:101C9000E9084246D20106D54246444B1A40802309
:101CA0009046DB005B44424A934200DD23E7424614
:101CB0005B05550752020D43120B5B0D0DE75146B4
:101CC000214300D17CE0002C00D1FBE0200001F09A
:101CD00063FA02000B3A1D239B1A52460100DA40B8
:101CE000534608398B408C4019001443314B5844FB
:101CF0009B4683440020D9E603002343984644D002
:101D0000002C00D1CFE0200001F046FA01000200D3
:101D10000B391D235B1A49461000D940083884400E
:101D20000B004D46234398468540234B9B1A9B4608
:101D30000023994600939EE60200224390461DD15F
:101D400008229B46022300259146009393E65146C4
:101D5000214309D102234A461A43184B91469C4617
:101D600000240220E344A1E603234A461A43134B0E
:101D700091469C4651460320E34497E60C229B463D
:101D80000323A0469146009375E604239946002359
:101D90009B460133002500936DE6C046FF07000017
:101DA00001FCFFFF702B0308FF030000FFFFFFFE95
:101DB000FE070000F30300000DFCFFFF01F8FFFF2A
:101DC0004A4601231A439146002401206EE600236F
:101DD00080229A460025884B12037EE601256D423B
:101DE0000122D21A382A00DD74E61F2A00DCBDE089
:101DF0001F214942CB1A4146D9400B00202A04D06A
:101E000041467E4A5A4491400D4329004A1E914161
:101E1000194307231D0000220D400B4200D1D0E0E2
:101E20000F2200230A40042A00D1C7E00A1D8A427B
:101E3000894149425B1811001A0200D4BEE0012317
:101E40000022002549E6802243461203134208D0AF
:101E5000144206D122431203BA460D00664B120B00
:101E60003BE68022434612031A431203B246624BFA
:101E7000120B32E6002B00D102E7A6196A1EA64219
:101E800000D289E0864200D29FE000D1AFE0150089
:101E9000F4E6A94200D93CE64346DE0758086B0841
:101EA0001E43ED073CE601F077F901000200153111
:101EB00020321C2900DC2CE74B46083883400025E3
:101EC000984632E701F068F903001A001532203015
:101ED0001C2A00DCFFE65446083B00219C4005E735
:101EE0003619013BB44200D9A6E6B24200D8A3E6B7
:101EF000831E3619A0E60919013D8C4200D98DE6F2
:101F00008A4200D88AE6851E091987E60F222A40F0
:101F1000042A00D1BCE6291DA942AD416D42C90881
:101F2000A844B6E6AF4200D962E6814204D800D0A8
:101F30005EE6AE4200D85BE602235B429C46009B15
:101F4000E0449C4665449D429B415B421B19C0187E
:101F50004FE6B24200D812E6831E36190FE68A42D7
:101F600000D8FAE5831E98460919F6E5244B2800A7
:101F70005B4441469D409940D0406B1E9D41434685
:101F800001432943D3404A0700D155E70F220A40B5
:101F9000042A00D04AE74FE71500864200D06DE6DC
:101FA000009A9A4200D069E66AE6164B5B44002B21
:101FB00000DC13E701250021A8446AE65D075B0207
:101FC0001A0BC90800230D4387E50099023D4A001A
:101FD0008A42BF417F423F19F6190092DDE7802215
:101FE000434612031A431203034B120B75E5009983
:101FF0009942EAD31500D3E7FF0700003E04000032
:102000001E040000FF030000F0B54E464546DE46C4
:1020100057469046E0B517001A03120B0500844698
:1020200019480E034C0091465A00DB0F9B46360BB5
:10203000640DC90F520D844219D0824210D0012084
:1020400094420ED14E450CD10120C44509D15945C9
:1020500017D0002C05D130002843431E984100E0E2
:102060000120F0BCBB46B246A946A046F0BD3300F5
:1020700001202B43F5D1A242F3D14B463B43F0D193
:10208000E2E70020EDE7C046FF070000F0B5474655
:10209000CE460400180016001B031B0B2D4D4A00F2
:1020A000994680B543000F03A446B0463F0B520D3E
:1020B000C90F5B0DC00FAA4221D0AB4213D0002A3A
:1020C00022D13C43002B02D14D462E4322D0002C7E
:1020D00010D0814222D00220013908400138C0BC12
:1020E000B946B046F0BD4D462E4329D1002AF0D165
:1020F0003C43EED10028F2D101204042EFE73D0001
:1021000025431DD19342EED0002BE2D14C4626430D
:10211000DFD1E0E70020002CE1D0DCE79A420ADCC6
:10212000E8DB4F45D7D80ED000204F45D7D2002945
:10213000E2D00800D3E74342584140000138CEE7DF
:1021400002204042CBE7C445C5D80020C445C6D2D2
:10215000EDE7C046FF070000F0B54746CE46040055
:10216000180016001B031B0B2C4D4A00994680B526
:1021700043000F03A446B0463F0B520DC90F5B0D41
:10218000C00FAA420DD0AB4210D0002A27D13C4349
:10219000002B11D14D462E430ED10020002C15D01E
:1021A0000EE03D00254310D1934218D14D462E43F9
:1021B0000BD1002A02D13C43002C0BD0814214D019
:1021C000022001390840013800E00220C0BCB946B5
:1021D000B046F0BD0028F9D101204042F6E7002BBF
:1021E000ECD14C462643E9D1EAE79A4204DD43426A
:1021F000584140000138E9E79A42EBDB4F45DFD810
:1022000006D000204F45E1D20029E5D00800DDE7E7
:10221000C445D5D80020C445D8D2F5E7FF07000053
:10222000F0B54546DE4657464E46E0B51F000B0367
:102230001B0B9B464D00CB0F04009146984687B080
:102240006D0D00D1CDE1CE4B9D4200D1E9E15A4662
:10225000430FD2001343802212041A43C3009A464C
:10226000C84B93469C4600230026654400933C03DC
:102270007B004846240B5B0DFF0F002B00D189E14A
:10228000BF4A934219D0420FE40022438024240421
:102290001443BC4A00219446424663445B190193AF
:1022A000019B7A400133C000D2B202930A2E1CDD9A
:1022B0003A000B2E5ED0474656E04946B04B2143CC
:1022C000EB18019300292AD18020022200012B0063
:1022D00084461643424663447A40D2B202930A2EA1
:1022E00000DD31E2002000240221022E26DC013E26
:1022F000012E52D802294CD0012900D018E1002328
:10230000002400251B052343D2071343280019008E
:1023100007B0F0BCBB46B246A946A046F0BD80213E
:10232000032209012B008C461643424663447A403F
:10233000D2B202930A2E00DD28E203210125B54026
:10234000AC46A6266346F600354033420BD19026B4
:10235000B600334218D1B93EFF3E1E421DD0A346FF
:102360008246009100E0170000993A00022910D03F
:102370005C4650460329BFD180231B031C43240322
:1023800005007F4B240BBDE7802400227C4B2403F7
:10239000B8E7002400257A4BB4E753461E04360CF8
:1023A0001F0C3300010C0004000C4343984603004B
:1023B0007B43994633004B439C4643460D001B0C20
:1023C0009A467D43CC44D4440095E14504D980230A
:1023D0005B0299464D44009563461B0C1D00634605
:1023E0001B049C4643461B041B0C9846634643440F
:1023F0000393230C984633002404240C63439C4627
:1024000023007B43994643465E435F434E44634605
:10241000B2461E0C5644B14503D980235B0299464F
:102420004F44330C99463B004B4405936346AC46FE
:102430001F043F0C3604F619B444634604935B460C
:102440001B0C9C465B461F043F0C3B0043439946D4
:10245000634643439A464B4660461B0C9B464843A3
:102460007943514459448A4503D980235B029A46F3
:1024700050440B0C9A464B461B041B0C99463B00E0
:102480006343090445464944994663465C436B43AC
:102490009C464B461B0C98466F433F19474450449B
:1024A000BC4203D980235B029846C444049B009D30
:1024B00098464544B542B641734298464B461E0481
:1024C000059B3C049946360CA4194C44A14683460E
:1024D0006E18C1448E428941CB445D4649426D1815
:1024E0009C42A441C1459B41834580418D42894125
:1024F0005B4264421C434042039B494201437002D9
:102500003F0C1843E419471EB84164186444F60DA3
:1025100061023043EC0D6E020C433043C90100D41C
:10252000F1E00121430801400B43E0071843640830
:102530001549029B8C466344002B00DC97E0410761
:1025400009D00F210140042905D0011D814280419D
:10255000404224180800E10106D58021C9008C46BC
:102560000A4B1C40029B634409498B4200DD10E783
:102570006107C50864025B050D43240B5B0DC1E6D2
:10258000FF07000001FCFFFFFF030000FFFFFFFE4D
:10259000FE0700004B46234359D0002C00D1A3E096
:1025A000200000F0F9FD010003000B391D22521A32
:1025B00049461800D1404A460838824084401000FD
:1025C0000C43744AEB1A9446424663440193019BC0
:1025D0007A4001330021D2B202930A2E00DD67E671
:1025E00083E65B4603439A462AD05B46002B6DD0B8
:1025F000584600F0D1FD010003000B391D22521A8C
:10260000210018005D46D140083885400A0084400A
:102610002A439346A2465F4D0026ED1A00230093FD
:1026200025E65B4603439A4605D100239B460233C9
:10263000082600931BE6032382460C26009316E629
:1026400000239B4601330426002500930FE64246F3
:10265000013301951E43019B7A4001330024002081
:102660000121D2B202930A2E00DD21E63DE60121CE
:10267000C91A382900DD42E61F2947DD1F2625003B
:102680007642F31ADD402B00202905D04249029DF5
:102690008C466544AC402043411E884118430723C3
:1026A0001D000024054003424AD00F2300240340AC
:1026B000042B42D0031D834280414042241818005D
:1026C00023023AD50123002400251BE600F064FD17
:1026D00001000300153120331C298FDD083800224A
:1026E00084409246A34696E700F056FD01000300A1
:1026F000153120331C2900DC58E702004C46083A0B
:10270000002094405DE7019B029311E7234B2600D4
:102710009C460300029DCB406544AE401E4303002F
:10272000AB40581E834130001843CC404307C7D00C
:102730000F230340042BBDD1C2E765076402240BBD
:10274000C00800230543DDE5002502230F2E0CD130
:1027500080245B46240323420ED021420CD10C433B
:1027600024033A000E4B240BCCE50B2E00D0A2E53F
:102770008B46AA460093F7E580245B4624031C435E
:10278000240342465546064B240BBBE54D4621002B
:102790000323DBE70DFCFFFF3E0400001E040000E6
:1027A000FF070000F0B557464E464546DE46E0B509
:1027B0000D000400190010002B035B0A620F1A437E
:1027C000E3000C03640A470F2743D04C6E00914688
:1027D00083B04A00C0009846A246760DED0F520D18
:1027E000C90F0190A24200D1B9E0012461408B469B
:1027F0008D4200D18DE0B41AA446002C00DCB7E075
:10280000002A00D1CBE0C14A964200D186E1802265
:10281000120417436246382A00DDA4E11F2A00DDB6
:102820001DE2614620223C00521A01009040944073
:10283000421E90416246A0466446D7404A46E14067
:102840004446D21B91460C4304431C1BA3429241B5
:102850004B4652429B1A9A4653461B0200D42BE128
:1028600053465A02530A9A465346002B00D166E15A
:10287000504600F091FC0300083B20222000D21AB1
:102880005146D040994002009C400A439E4200DDE0
:1028900064E19B1B591C1F2900DDFEE02023100072
:1028A00026005B1A9C409840CE40CA40631E9C4163
:1028B0003043924600260443630709D00F23234088
:1028C000042B05D0231DA342A4416442A2441C0052
:1028D00053461B0200D4F2E08C4B01369E4200D1DD
:1028E0000FE153468A49E4080B4019005B07234374
:1028F00072054C02240B520D12052243ED072A43A8
:102900001800110003B0F0BCBB46B246A946A04671
:10291000F0BDB41AA446002C59DD002A00D1B0E065
:10292000564500D1FAE08022120417436246382A45
:1029300000DDD4E01F2A00DCC0E13900203AD1409C
:102940006246202A06D064464022121B3C00944076
:1029500004430194019C621E94410C43C3E03C007B
:1029600004432BD08B468D422ED06A4CA446B444EF
:102970006446002C5FD0941BA446002E00D020E1BA
:102980004C461C4300D1C7E161464C1E012900D1D1
:1029900023E25E4DAC4500D1D8E1A4461AE13A00ED
:1029A000024300D1E4E02200013A012C00D1C3E14E
:1029B00056498C4200D1B1E094462BE70124614096
:1029C0008B468D4200D016E752498C46B44464468B
:1029D000002C00D1D3E0911B8C46002E00D15EE18B
:1029E0004A498A4200D1BEE180214C4609040C4389
:1029F000A1466146382900DDBAE11F2900DD27E242
:102A00002024641A4946A1401E0088466146A3401E
:102A1000CE4041465C1EA341314319430C0063463E
:102A20004946D9407F18241884429B415B429A460C
:102A30001600BA445DE0384C721C224200D0DFE040
:102A40004A461A43002E00D05CE1002A00D1CFE1B3
:102A50003A00024300D17FE11C1A4A46A342894151
:102A6000D21B4942521A9246120200D40AE2C41AF8
:102A7000A04280414B464042FF1A3B1A9A465D46AF
:102A80001AE73A00024373D02200013A012C00D128
:102A9000CBE0544542D0944648E710001F3BD84055
:102AA000202903D040235B1A9A401443631E9C41A3
:102AB000002300269A460443630700D0FEE65246F0
:102AC000E308520713435246B446D2080F498C45D7
:102AD0002AD01203140B62465205520D0CE73C003B
:102AE0000443621E9441E4189C42924152424A447B
:102AF000924653461B02DFD5044B01369E4200D05E
:102B0000A0E0320000240023F6E6C046FF070000E4
:102B1000FFFF7FFF01F8FFFFFE070000DB084A46CA
:102B2000520713434A46D2081900114300D1B5E1B8
:102B30008024240314432403D54A240BDCE620001C
:102B400000F02AFB030018331F2B00DC95E622005F
:102B50000838824000249E4200DC9AE6F61ACD4BEB
:102B60001A409246A8E63C000443621E94416CE67B
:102B70004A46DB08520713434A46D208A6E7C64C2A
:102B8000721C224200D0ACE04A461A43002E00D00C
:102B900005E1002A00D156E13A00024300D1DBE012
:102BA0001C189C429B414F44BA465B429A44534690
:102BB0001B0200D480E75246B64B01261A409246CB
:102BC0007AE7B34CA24200D1C0E080244D462404F1
:102BD0002543A9466446382C53DC61461F2C00DD92
:102BE000CDE020251E002D1B4C46AB40AC40CE4016
:102BF0005D1EAB41344323434C46CC403F1B45E074
:102C00004A461C1AD11BA3429241524292460A00E4
:102C10005146521A9246120200D583E0534623438E
:102C200000D021E60022002553E71C189C429B415E
:102C30004F44BA465B429A44534601261B0200D4D5
:102C40003AE702265246934B01211A4013002140D5
:102C500062080A43DC075B089A4614432CE63900F5
:102C6000203AD1406246202A06D064464022121BF8
:102C70003C00944004430194019C621E94410C4327
:102C8000E3E5494619430B005C1EA341C41AA04268
:102C90009B415B42FB1A9A465D461600DCE54946BD
:102CA000194300D1AEE0614664460139012C00D1E0
:102CB000E0E0774CA44556D08C469AE66146202247
:102CC0003C00521A944001009040A0466446421EC7
:102CD00090416246E1404446D7400C430443B94426
:102CE00001E76B498A4200D10CE7181898429B41D2
:102CF0004F445B42FB18DC0740085B089A4616000D
:102D00000443D9E6002A00D081E03B0003431DD1F3
:102D10008022002512030BE7C0087B075D460343B2
:102D2000FA08D3E6C41AA04280414B464042FF1A3B
:102D30003B1A9A465D4697E51C1A4A46A3429B41B8
:102D4000D71B5B42FB1A9A46012685E5C0087B0724
:102D50005D460343FA08E7E64A46DB085207134399
:102D60004A46D208B5E6C0087B070343FA08DBE60B
:102D7000494619430B00591E8B411C0053E64D4632
:102D8000203CE540202905D04024641A4946A14052
:102D90000B43984643465C1EA3412B4376E7002A2B
:102DA000E1D03A00DB08024300D1B8E64A465207B8
:102DB000802413434A462403D208224207D0FE0847
:102DC000264204D15D463200C3087F073B43590FBA
:102DD000DB004907DB080B43A6E6C41AA04280418A
:102DE0004B464042FF1A3B1A9A465D46012633E5A0
:102DF0003B00034300D115E7C0087B075D46034352
:102E0000FA0866E6C0087B070343FA085EE63A0064
:102E1000DB08024300D182E64A465207802413436E
:102E20004A462403D208224207D0FE08264204D193
:102E30005D463200C3087F073B43590FDB00DB08C8
:102E400049070B4370E6C0087B070343FA0840E6D6
:102E50004C462039CC406146202906D066464021A8
:102E6000891B4E468E40334398464346591E8B413C
:102E70001C43D8E51C18844280414F44BA46404266
:102E80008244D9E65346234300D1CBE614E6C0463C
:102E9000FF070000FFFF7FFFFE0700000023014A3D
:102EA0001C0029E5FF07000070B505000C481C0355
:102EB00016005B000A034900120B490D240B5B0D41
:102EC000814208D0064A0020934203D120003043BB
:102ED000431E984170BD01202A43FBD1F2E7C04652
:102EE000FF0700000A0030B5134C5300090305002A
:102EF000090B00205B0DD20FA34204DD0F48834273
:102F000002DD0F4BD01830BD8020400301430D4837
:102F1000C01A1F2808DD0C48C31AD9400B005842BC
:102F2000002AF0D11800EEE7084CC540A4466344DF
:102F300099400B002B43F2E7FE0300001D04000044
:102F4000FFFFFF7F3304000013040000EDFBFFFFD1
:102F500070B5002816D0C317C5185D40C40F2800EF
:102F600000F01AF9114B1B1A0A2816DC02002E0079
:102F7000153296400B22121AD5405B052D032D0BFE
:102F80005B0D03E000240023002500261B052B43D6
:102F9000E40723433000190070BD0B3885405B0502
:102FA0002D0300262D0B5B0DF0E7C0461E0400002C
:102FB00010B5041E10D000F0EFF80F4B1B1A0A28B2
:102FC00011DC0B222100121AD14015300A035B05D7
:102FD0008440120B5B0D01E0002300221B0513430C
:102FE0002000190010BD22000B3882405B0512033F
:102FF0000024120B5B0DF1E71E04000070B54202C5
:103000004300C40FFE201B0E591C550A08420CD069
:10301000E02189008C466D07120B63441B051343A6
:10302000E40723432800190070BD002B14D1002DA4
:103030001BD0280000F0B0F80A281CDC0B232A0063
:103040001B1ADA40030015339D400E4B12031B1A66
:103050005B05120B5B0DE1E7002D09D0130B8022FD
:1030600012031A436D07084BD8E700230022D5E767
:103070000022054BD2E703002A000B3B9A400025B3
:10308000E3E7C04689030000FF0700000200F0B537
:103090004B000D03400F5B0DCC0F6D0A3A49054301
:1030A000581CD70008420AD038495918FE2916DDA5
:1030B000FF200022C0051043E4072043F0BD002B91
:1030C00006D13D4326D005229201520AD8B2F1E73B
:1030D0002F43EDD08022D203FF202A43EAE70029C4
:1030E0001BDD9201501E8241ED007F0F2A433A43BF
:1030F000530747D00F231340042B00D00432802302
:10310000DB0413403ED0481CFE29D1D09201520A64
:10311000C0B2CFE700200022CCE70A0017322FDB35
:10312000802636042E431E256D1A1F2D11DD022226
:103130005242521A3100D140202D04D0144A9446F4
:1031400063449E4037433A00531E9A410A4300218C
:10315000CEE7104A38009446634498403A00411E36
:1031600088419E40EA403043024300215307C1D1C9
:1031700080211300C90401200B400A42C6D1A3E7F5
:103180000023A0E70B009FE7FE07000080FCFFFF85
:10319000A2FCFFFF82FCFFFF1C2101231B049842BD
:1031A00001D3000C10391B0A984201D3000A0839D8
:1031B0001B09984201D30009043902A2105C40188F
:1031C0007047C04604030202010101010000000033
:1031D0000000000010B5002903D1FFF7DDFF20300B
:1031E00002E00800FFF7D8FF10BDC04680B500AF71
:1031F000BFF34F8FC046044B044ADA60BFF34F8FD2
:10320000C046C046FDE7C04600ED00E00400FA05F8
:1032100080B582B000AF0200FB1D1A70FB1D1B7849
:10322000112B1BD0FB1D1B78052B17D0FB1D1B780A
:10323000192B13D0FB1D1B780F2B0FD0FB1D1B78F8
:103240001B2B0BD0FB1D1B78182B07D0FB1D1B78ED
:10325000132B03D0FB1D1B78062B01D1462300E066
:1032600047231800BD4602B080BD000080B582B083
:1032700000AF0200FB1D1A70FB1D1B785A1E044B89
:1032800016214A43D35ADBB21800BD4602B080BDB6
:10329000E8110020F0B587B000AFB96011007B6085
:1032A0000F257B19021C1A700C26BB190A1C1A80E8
:1032B0001523FC1828220823D318DB191B781800C3
:1032C000FFF7D4FF0300237017243B1901221A7063
:1032D0007B191B78180016F03FF9031E4CD07B19A0
:1032E0001A782A4B9200D3587A681100180019F006
:1032F00099FF031E40D11523FB181B781800FFF718
:1033000087FF0300472B0ED17B191B78180016F09E
:1033100023F93C19BB191A88BB68190022F0F8FB85
:103320000300237028E01623FB1800221A701AE00D
:103330000F23FB181B78180016F00EF91723FC1842
:10334000BB680122190022F0E3FB03002370BB6875
:103350000133BB6002201DF07FFA16217B181A781A
:103360007B1801321A701623FB181B789BB20C22B3
:10337000BA1812889A42DBD805201DF06DFA17237F
:10338000FB181B781800BD4607B0F0BDBC2100201B
:1033900080B500AF00F012F800F08EF800F0C0F831
:1033A00000F02AF900F0B8F900F0CAFA00F002FCC7
:1033B00000F076FDC046BD4680BD000090B583B0EC
:1033C00000AF3B1D00221A70BB1D08221A80BB1CD7
:1033D00000221A80334ABB1C12881A80BB1C1B882F
:1033E000314A934207D1314B01221A70304B0022EF
:1033F0001A70FA2351E0BB1C1B881B0A9BB2DAB27D
:103400002A4B1A70294B1B78002B02D1274B012223
:103410001A70BB1C1B88DAB2254B1A707B1D012267
:103420001A7032E07B1C00221A7024E0BB1D1B883E
:103430001C4A9446634419007B1D1B785A1E7B1C52
:103440001B78DBB21C000B8898B21A4913009B0052
:103450009B185B009B181B195B00021C5A52BB1D7A
:10346000BA1D128808321A807B1C1B78DBB201332C
:10347000DAB27B1C1A707B1C1B78DBB20A2BD5D905
:103480007B1D1A787B1D01321A70084B1B787A1D40
:1034900012789A42C6D93B1D1B781800BD4603B06E
:1034A00090BDC04600A80708FFFF00008400002070
:1034B00010110020E811002080B582B000AFFB1D84
:1034C00000221A70BB1D01221A7019E0BB1D1B7867
:1034D0009BB2013398B2BB1D1B78013B5A000E4BC7
:1034E000D318190012F03BF9BB1D1B78192B02D918
:1034F000FB1D0A221A70BB1D1A78BB1D01321A70FF
:10350000064B1B78BA1D12789A42DFD9FB1D1B7837
:103510001800BD4602B080BD243500208400002084
:1035200090B583B000AFFB1C00221A70BB1D0022B7
:103530001A803B0000221A807B1D00221A704BE08B
:103540003B1D01221A7033E0BB1D1B881C339BB24C
:103550003A001100180012F002F93B0018887B1D98
:103560001A783B1D1978C4B2214813009B009B18A0
:103570005B00C318221C5A543B001B881B0A98B2DC
:103580007B1D1A783B1D1B78591EC4B218481300C6
:103590009B009B185B00C318221C5A54BB1D1A8841
:1035A000BB1D01321A803B1D3A1D127802321A707F
:1035B0003B1D1B78092BC7D97B1D1A780C491300BA
:1035C0009B009B185B00CB18093300221A707B1DEF
:1035D0001A787B1D01321A70064B1B787A1D1278FF
:1035E0009A42ADD9FB1C1B781800BD4603B090BDB4
:1035F0005C1400208400002090B583B000AFFB1C59
:1036000000221A70BB1D00221A803B0000221A8083
:103610007B1D00221A707B1D00221A7015E0BB1D55
:103620001B88CB3398B27B1D1B785A00374BD318BD
:10363000190012F094F8BB1D1A88BB1D01321A80C4
:103640007B1D1A787B1D01321A70314B1B787A1D55
:1036500012789A42E3D37B1D00221A704BE03B1D87
:1036600001221A7033E0BB1D1B8899339BB23A00CC
:103670001100180012F073F83B0018887B1D1A78AF
:103680003B1D1978C4B2234813009B009B185B00B4
:10369000C318221C5A543B001B881B0A98B27B1D7E
:1036A0001A783B1D1B78591EC4B21A4813009B00A0
:1036B0009B185B00C318221C5A54BB1D1A88BB1DE3
:1036C00001321A803B1D3A1D127802321A703B1DDE
:1036D0001B78092BC7D97B1D1A780E4913009B0054
:1036E0009B185B00CB18093300221A707B1D1A78D7
:1036F0007B1D01321A707B1D1B78092BAFD9FB1C77
:103700001B781800BD4603B090BDC0468815002048
:103710008400002084110020B0B588B002AF0B23D4
:10372000FB1800221A703B1D00221A80BB1C0022CD
:103730001A8008243B1900221A80BB1D00221A801F
:1037400017257B1900221A7000233B610023FB60C0
:103750003B1D1900E42012F002F803001A003B1987
:103760001A803B191B88002B03D13B1D1A887B193B
:103770001A703B1D1900E52011F0F1FF03001A003B
:1037800008243B191A80BB1C1900E62011F0E7FF42
:1037900003001A00BB1D1A803B191B88002B0AD19D
:1037A000BB1D1B88002B06D13B1D1B881B04BA1CAC
:1037B00012889B183B613B1D1900E72011F0CFFFD9
:1037C00003001A0008243B191A80BB1C1900E820CA
:1037D00011F0C5FF03001A00BB1D1A803B191B889E
:1037E000002B0AD1BB1D1B88002B06D13B1D1B885B
:1037F0001B04BA1C12889B18FB603B1D1900E920B2
:1038000011F0ADFF03001A0008217B181A807B1805
:103810001B88002B0BD13B1D1B881B0A9BB2DAB205
:10382000414B1A703B1D1B88DAB2404B1A703B1D8E
:103830001900EA2011F093FF03001A0008217B18F9
:103840001A807B181B88002B0BD13B1D1B881B0A81
:103850009BB2DAB2364B1A703B1D1B88DAB2354B7D
:103860001A703B1D1900EB2011F079FF03001A00BC
:1038700008217B181A807B181B88002B0BD13B1D5D
:103880001B881B0A9BB2DAB22B4B1A703B1D1B889C
:10389000DAB22A4B1A70244B1B78002B11D0234B21
:1038A0001B78002B0DD0204B1D78204B1B78FC681B
:1038B00039691722BA18107800932B00220008F0FB
:1038C0005DF81B4B1B78002B11D01A4B1B78002B7B
:1038D0000DD0174B1D78174B1B78FC6839691722E0
:1038E000BA18107800932B00220008F047F8124B0A
:1038F0001B78002B11D0114B1B78002B0DD00E4BD9
:103900001D780E4B1B78FC6839691722BA1810789D
:1039100000932B00220008F031F80B23FB181B78D2
:103920001800BD4606B0B0BD091800200A180020D6
:103930000B1800200C1800200D1800200E18002075
:10394000B0B584B000AF0F23FB1800221A70082412
:103950003A198A235B001100180011F000FF0300E0
:103960001A000C217B181A807B181B88002B0ED1A3
:103970003B191B88DAB28A4B1A703B191B881B0A49
:103980009BB25A1E9341DAB2854B5A7007E0854BC1
:103990001A78834B1A70834B5A78814B5A700824DB
:1039A0003A198E235B001100180011F0D8FE0300B5
:1039B0001A000C217B181A807B181B88002B0ED153
:1039C0003B191B881BB29BB2DB0BDAB2744B1A712A
:1039D0003B191B885B089AB2714BDA8007E0714B88
:1039E0001A796F4B1A716F4BDA886D4BDA800824A5
:1039F0003A191623FF331100180011F0B0FE03002E
:103A00001A000C217B181A807B181B88002B04D10C
:103A10003B191A88644B1A8003E0644B1A88624B86
:103A20001A8008243A198B235B001100180011F04A
:103A300096FE03001A000C217B181A807B181B8845
:103A4000002B04D13B191A88574B5A8003E0574B7F
:103A50005A88554B5A8008243A191823FF3311000D
:103A6000180011F07CFE03001A000C217B181A804C
:103A70007B181B88002B0CD13B191B88DAB24A4BF0
:103A80001A713B191B881B0A9BB2DAB2464B5A715A
:103A900007E0464B1A79444B1A71444B5A79424B12
:103AA0005A7108243A198C235B001100180011F098
:103AB00056FE03001A000C257B191A80BA1D1A2322
:103AC000FF331100180011F04AFE03001A000A210A
:103AD0007B181A807B191B88002B0DD17B181B8843
:103AE000002B09D13B191B881A00BB1D1B881B0426
:103AF0001A432D4B9A600CE02D4B1B78002B04D001
:103B0000294BE12252029A6003E0284B9A68264B27
:103B10009A6008243A198D235B001100180011F0F7
:103B20001EFE03001A000C217B181A807B181B88CC
:103B3000002B0CD13B191B88DAB21B4B1A733B19B3
:103B40001B881B0A9BB2DAB2174B5A7305E0164B5F
:103B500018225A73144B00221A7308243A191C2392
:103B6000FF331100180011F0FAFD03001A000C21B8
:103B70007B181A807B181B88002B05D13B191B88EA
:103B8000DAB2094B9A7603E0084B9A7E064B9A7696
:103B90000F23FB181B781800BD4604B0B0BDC0460B
:103BA000E81000201C000020F01000200000002081
:103BB00008180020F0B5D6464F464646C0B588B036
:103BC00006AFBB1D00221A703B0000221A803B1D6D
:103BD00000221A80FB1C00221A70FB1D00221A70A2
:103BE0004DE1FB1D1B783B339BB29B009BB23A001F
:103BF0001100180011F0B3FD03001A003B1D1A80DC
:103C00003B1D1B88002B00D034E13B001B881B0AA6
:103C10009AB2FB1C1A70FB1C1B781B09DBB21A0042
:103C2000FB1D1B7801339A4200D023E1FB1C1B785B
:103C30000F22134000D11DE1FB1D1B785A1CFB1CF9
:103C40001B780F210B40D8B294491300DB009B185E
:103C5000CB180133021C1A703B001988FB1D1B781E
:103C60005A1CC8B28D491300DB009B18CB180833CF
:103C7000021C1A70FB1D1B783B339BB29B009BB24E
:103C800001339BB23A001100180011F068FD3B00AF
:103C90001B881B0A99B2FB1D1B785A1CC8B27F49AE
:103CA0001300DB009B18CB180233021C1A703B0078
:103CB0001988FB1D1B785A1CC8B278491300DB0019
:103CC0009B18CB180533021C1A70FB1D1B783B3365
:103CD0009BB29B009BB202339BB23A0011001800CA
:103CE00011F03DFD3B001B881B0A99B2FB1D1B78A0
:103CF0005A1CC8B269491300DB009B18CB18033368
:103D0000021C1A703B001988FB1D1B785A1CC8B294
:103D100062491300DB009B18CB180633021C1A7093
:103D2000FB1D1B783B339BB29B009BB203339BB2C2
:103D30003A001100180011F012FD3B001B881B0A0D
:103D400099B2FB1D1B785A1CC8B254491300DB0002
:103D50009B18CB180433021C1A703B001988FB1DFA
:103D60001B785A1CC8B24D491300DB009B18CB18B6
:103D70000733021C1A70FB1D1B785A1C474913009D
:103D8000DB009B18CB1801331A78FB1D1B7801331D
:103D9000DBB21900100012F0E7FBFB1D1B780133AA
:103DA000DBB29C46FB1D1B785A1C3C491300DB0010
:103DB0009B18CB1808331B7801221340DBB29846BE
:103DC000FB1D1B785A1C35491300DB009B18CB18D0
:103DD00008331B785B10DBB201221340DBB299463B
:103DE000FB1D1B785A1C2D491300DB009B18CB18B8
:103DF00002331B789A46FB1D1B785A1C2749130077
:103E0000DB009B18CB1803331978FB1D1B785A1C59
:103E100022481300DB009B18C31804331878FB1DDD
:103E20001B785A1C1D4C1300DB009B18E31805334C
:103E30001C78FB1D1B785A1C184D1300DB009B18C7
:103E4000EB1806331D78FB1D1B785A1C134E13000C
:103E5000DB009B18F31807331B78002205920493AC
:103E6000039502940190009153464A4641466046AC
:103E700012F0B2FDFB1D1A78FB1D01321A70FB1DFA
:103E80001B78062B00D8ACE6BB1D1B781800BD467E
:103E900002B0E0BCBA46B146A846F0BDD031002021
:103EA00090B585B000AF0F23FB1800221A706F4B3E
:103EB000BB60322024F040FC03003B603B68002BD9
:103EC00001D1FB23CEE0BB681B78FE2B01D0FF2382
:103ED000C8E0FB1D00221A70B8E00F23FB18002277
:103EE0001A7010E0BB685A1CBA6019000F203B180A
:103EF0001B783A68D3180A78D2B21A703B181A782D
:103F00003B1801321A700F243B191B78132BE9D987
:103F1000FB1D1A7813009B009B189B00544A9818AD
:103F20003B6801331422190026F039F93B6814224A
:103F30000021180026F007F83B1900221A70BB6810
:103F40001433BB600FE0BA680F203B181B78396848
:103F5000CB1812781A70BB680133BB603B183A1853
:103F6000127801321A70BB681B78FE2B08D0BB6830
:103F70001B78FF2B04D00F23FB181B78312BE2D9C1
:103F80000F217B181B78013B3A68D3181B78002B54
:103F900004D07B187A18127801321A700F23FB189C
:103FA0001A78FB1D1C78100024F0C6FB03001900D2
:103FB0002F4A23009B001B199B00D3180C33196058
:103FC000FB1D1A782A4913009B009B189B00CB18F5
:103FD0000C331B68002B12D1FB1D1A7813009B00B9
:103FE0009B189B00224A9B1814220021180025F0E0
:103FF000AAFF3B68180024F0A9FB0E2332E0FB1D4A
:104000001A781B4913009B009B189B00CB180C339C
:1040100018680F243B191A783B68190026F0BFF87E
:10402000144B1B780133DAB2124B1A703B191A7811
:104030003B680021180025F086FFBB681B78FE2B2B
:104040000AD1FB1D1A78FB1D01321A70FB1D1B786B
:10405000042B00D841E700E0C0463B68180024F07C
:1040600075FB00231800BD4605B090BD00B00708E1
:1040700068180020CC18002080B582B000AFFB1D6E
:1040800000221A70BB1D01221A7021E0BB1D1B7893
:104090005A1E154B5200D35A002B0DD0BB1D1B7856
:1040A0009BB2013398B2BB1D1B785A1E0E4B5200B7
:1040B000D35A190011F074FBBB1D1B78192B02D9C0
:1040C000FB1D0A221A70BB1D1A78BB1D01321A7023
:1040D000064B1B78BA1D12789A42D7D9FB1D1B7864
:1040E0001800BD4602B080BD2435002084000020A9
:1040F00090B583B000AFFB1C00221A70BB1D0022DC
:104100001A803B0000221A807B1D00221A7048E0B2
:104110007B1D1A78294913009B009B185B005B5C90
:10412000002B39D03B1D01221A7031E07B1D1A781B
:104130003B1D1B78591E214813009B009B185B00F8
:10414000C3185B5C9BB21B0299B27B1D1A783B1DA6
:1041500018781A4C13009B009B185B00E3181B5C3B
:104160009AB23B008A181A80BB1D1B881C339AB276
:104170003B001B881900100011F012FBBB1D1A88B0
:10418000BB1D01321A803B1D3A1D127802321A7093
:104190003B1D1B78092BC9D97B1D1A787B1D013269
:1041A0001A70074B1B787A1D12789A42B0D9FB1C03
:1041B0001B781800BD4603B090BDC0465C140020BB
:1041C00084000020F0B587B000AFB9607A601900B4
:1041D0000F243B19021C1A700E257B190A1C1A7039
:1041E0001726BB1900221A703B191B789BB21900C5
:1041F000E42011F0D5FABB681B0A9BB21900E52038
:1042000011F0CEFABB689BB21900E62011F0C8FA93
:104210007B681B0A9BB21900E72011F0C1FA7B688A
:104220009BB21900E82011F0BBFA7B191B789BB2F6
:104230001B029AB2202310241B19DB191B789BB296
:10424000D3189BB21900E92011F0AAFA24231B19F4
:10425000DB191B789BB21B029AB228231B19DB19AE
:104260001B789BB2D3189BB21900EA2011F098FA80
:104270002C231B19DB191B789BB21B029AB230232B
:104280001B19DB191B789BB2D3189BB21900EB20CA
:1042900011F086FABB191B781800BD4607B0F0BDB7
:1042A00080B582B000AFFB1D00221A70384B5B78DE
:1042B0005B011AB2364B1B781BB213431BB29AB286
:1042C0008A235B001100180011F06AFA304B1B7949
:1042D000DB031AB22E4BDB881BB213431BB29AB21C
:1042E0008E235B001100180011F05AFA294B1A882E
:1042F0001623FF331100180011F052FA254B5A888B
:104300008B235B001100180011F04AFA214B5B79F6
:104310001B021AB21F4B1B7B1BB213431BB29AB278
:104320001823FF331100180011F03AFA194B9B685B
:104330009AB28C235B001100180011F031FA154B72
:104340009B681B0C9AB21A23FF331100180011F05E
:1043500027FA104B5B7B1B021AB20E4B1B791BB268
:1043600013431BB29AB28D235B001100180011F0A9
:1043700017FA084B9B7E9AB21C23FF3311001800DA
:1043800011F00EFAFB1D1B781800BD4602B080BD6F
:10439000E8100020F010002080B582B000AFFB1DB7
:1043A00000221A701B4B34220021180025F0CBFD8F
:1043B000BB1D01221A7021E0BB1D1B785A1E154B34
:1043C0005200D35A002B0DD0BB1D1B789BB201337A
:1043D00098B2BB1D1B785A1E0E4B5200D35A1900BF
:1043E00011F0DEF9BB1D1B78192B02D9FB1D0A2227
:1043F0001A70BB1D1A78BB1D01321A70064B1B7850
:10440000BA1D12789A42D7D9FB1D1B781800BD46F9
:1044100002B080BD243500208400002080B500AFAC
:10442000074B1B68074A934206D011F0F2F9031EAE
:1044300002D1034B034A1A60C046BD4680BDC04648
:10444000F07F0020ADDEEFBEB0B58EB002AF14231A
:10445000F8180A257A191823F9180823FB1800936D
:104460000300012011F004FB0C23F818BA1D1023DF
:10447000F9183B1D00930300022011F0F9FA1C21EA
:104480007B1801225A607B1800229A607B191B88D6
:104490001A007B181A60BB691A000C007B181900FF
:1044A00010001EF0E1F821007B1800225A607B18F2
:1044B00002229A603B1D1B881A007B181A60FB6859
:1044C0001A007B18190010001EF0CEF8BB69180006
:1044D0007B191B88002219001EF027FB052014F011
:1044E0008DFAFB681A003B1D1B88190010001EF096
:1044F000FFFA031E17D1BB6918007B191B88012224
:1045000019001EF012FB052014F078FAFB681A005F
:104510003B1D1B88190010001EF0EAFA0300012B56
:1045200001D1012300E000231800BD460CB0B0BD4E
:1045300090B585B000AF78600F23FB1800221A7089
:104540001CE00F243B191A78114913005B009B18DB
:104550009B00CB1808331A687B6811001800FBF722
:10456000D3FD031E04D13B191B780133DBB20BE0F2
:104570000F217B181A787B1801321A700F23FB1851
:104580001B78002BDDD000231800BD4605B090BD80
:10459000D401002080B584B000AF78600F23FB18F1
:1045A00000221A7041E0264A7B6811001800FBF7D0
:1045B000ABFD031E01D101233DE0224A7B681100BF
:1045C0001800FBF7A1FD031E01D1022333E01E4AB0
:1045D0007B6811001800FBF797FD031E01D1032330
:1045E00029E01A4A7B6811001800FBF78DFD031EB5
:1045F00001D104231FE0164A7B6811001800FBF765
:1046000083FD031E01D1052315E0124A7B681100CA
:104610001800FBF779FD031E01D106230BE00F21E3
:104620007B181A787B1801321A700F23FB181B783D
:10463000052BB8D900231800BD4604B080BDC04684
:10464000DCF20208E0F20208E4F20208E8F20208F2
:10465000ECF20208F0F2020880B582B000AF13F06D
:10466000E7FC13F0A1FE11F04FF811F0EFF810F095
:10467000FFFD14F029F910F051FF14F05FF911F06B
:1046800049F9031E03D0FFF7C9FEFEF7AFFDFFF7A0
:10469000DBFE031E21D03A4B01221A70322014F0A7
:1046A000ADF90EF0EFF8374BE12252029A60FB1D94
:1046B00001221A700CE0334B9A68FB1D1B78110025
:1046C000180014F029FFFB1D1A78FB1D01321A7027
:1046D000FB1D1B78062BEED904E0322014F08EF976
:1046E0000EF0D0F8FEF754FE15F084F810F0E2FD5D
:1046F000254B1B78002B13D18023DB01234801229B
:1047000019001EF012FAFA235B00180014F076F973
:104710008023DB011D48002219001EF006FA26E066
:104720008023DB011948012219001EF0FEF9FA234B
:104730005B00180014F062F98023DB0113480022AB
:1047400019001EF0F2F9642014F058F98023DB01FF
:104750000E48012219001EF0E8F9642014F04EF909
:104760008023DB010948002219001EF0DEF906F063
:1047700063FC074B01221A70C046BD4602B080BDE3
:1047800008180020F0100020101100200004005034
:104790008117002080B500AF1BF0D8FF0DF0DCFCC6
:1047A000FFF75AFF06F072FC18F0FAFCC046BD464F
:1047B00080BD0000F0B587B002AF0F23FB180022C8
:1047C0001A700E23FB1800221A700D23FB1800220A
:1047D0001A70BB1D00221A707B1D00221A700C2358
:1047E000FB1800221A700B23FB1800221A700A23F0
:1047F000FB1800221A700923FB1800221A70BB1C38
:1048000000221A80D94B01221A70D94B1A78D94B41
:104810001A700823FB1801221A7016E0D54B1B787A
:1048200008217A1812789A4209D07B181B78180050
:1048300014F092FE03000121180014F0BBFE0821C1
:104840007B181A787B1801321A700823FB181B7822
:10485000062BE3D9C74B1B78180000F0CFFCC64BE2
:1048600002221A70322018F0A3FC0E23FB1801223A
:104870001A700923FB1801221A7043E009217B18E2
:104880001B785A1EBD4B9200D35A9BB2002B33D0DB
:104890000E243B193A19127801321A70B84B3A19A2
:1048A00012785A70B74B3A1912781A70B44B00222A
:1048B0001A700D007B181878032300931023002230
:1048C000002107F019FB3B191B789BB21B0299B220
:1048D0007B191B785A1EA94B9200D35A9BB2DBB2AC
:1048E0009BB27A191278013ACB1899B2A34B920075
:1048F000D152322018F05CFC09217B181A787B1801
:1049000001321A7009217B181B78062BB6D99E4BF1
:104910001A889E4B1A807B1801221A705FE00924C6
:104920003B191B785A1E954B9200D35A9BB2002B11
:104930004FD03B191B78591EBB1C904A89008A5ADC
:104940001A80BB1C1B881B0A9AB2BB1D1A703B192C
:104950001B785A1E894B9200D35A9AB27B1D1A704B
:10496000BB1D1B78DB001AB27B1D1B781BB21343E7
:1049700019B23B191A7889B2844B5200D1523B19B3
:104980001B78013BBA1D1278013A7C499B00CB1879
:1049900002331B8898B27D4B16214A43011CD15229
:1049A000724B1B78DB001AB23B191B781BB2134306
:1049B00019B2BB1D1B785A1E7B1D18788CB2734927
:1049C00013009B009B185B009B181B185B00221CAC
:1049D0005A5209217B181A787B1801321A70092360
:1049E000FB181B78062B9AD90C23FB1802221A708D
:1049F00020E00E243B191B78162253431A0063490A
:104A00005F4B180025F0CBFB3B191B789BB216229D
:104A100053439AB20C243B191B781121180007F05C
:104A200019FA0A2018F0C4FB21007B181A787B18A9
:104A300001321A700C23FA180E23FB1812781B7817
:104A40009A42D6D985E10C23FB1802221A7072E132
:104A5000FB1D01221A700AE0FB1D1B78013B484A2E
:104A60000121D154FB1D1A78FB1D01321A70FB1D68
:104A70001B780A2BF0D9424B00229A720C243B1966
:104A80001B780B220E21180007F0E4F9322018F0F1
:104A90008FFB3B191B7800220C21180007F0DAF974
:104AA00096235B00180018F083FB0B23FB180122F0
:104AB0001A7052E00B203B181B78591EBB1C344A5D
:104AC00089008A5A1A80BB1C1B881B0A9AB2BB1D1C
:104AD0001A70BB1C1B88002B39D0BB1D1B78002B08
:104AE00035D10E217B187A18127801321A70244BB6
:104AF0007A1812785A70234B7A1812781A707B1829
:104B00001B789BB21B0299B23B181B785A1E204B94
:104B10009200D35A9BB2DBB29BB23A181278013A98
:104B2000CB1899B21A4B9200D152154B01221A7030
:104B3000134B3A1812789A700C23FB181B78032237
:104B40001021180007F086F9322018F031FB0B21F4
:104B50007B181A787B1801321A700B22BB181B784D
:104B60000A2BA7D9BB1801221A70A5E0101100204A
:104B7000100A0020801700200C1100201C110020BA
:104B80004C1700208400002024000020E8110020A1
:104B9000341100200B243B191B785A1ECC4B920079
:104BA000D35A9BB2002B00D180E03B191B78591ED1
:104BB000BB1CC74A89008A5A1A80BB1C1B881B0A67
:104BC0009AB2BB1D1A703B191B785A1EC04B92003B
:104BD000D35A9AB27B1D1A70BB1D1B78012B65D06E
:104BE0000C257B191B785A1E3B191878B9491300FC
:104BF0009B009B185B009B181B185B005B5A002BEB
:104C000018D1BB1D1B78DB001AB27B1D1B781BB2B1
:104C1000134319B27B191B785A1E3B1918788CB2B2
:104C2000AC4913009B009B185B009B181B185B0092
:104C3000221C5A52BB1D1B785A1E7B1D1878A54991
:104C400013009B009B185B009B181B185B005B5AB2
:104C5000002B2BD10B243B191B78013BBA1D12787A
:104C6000013A9B499B00CB1802331B8898B2994BA1
:104C700016214A43011CD1520C23FB181B78DB0080
:104C80001AB23B191B781BB2134319B2BB1D1B7818
:104C90005A1E7B1D18788CB28E4913009B009B18FE
:104CA0005B009B181B185B00221C5A520B217B18BF
:104CB0001A787B1801321A700B243B191B780A2BC7
:104CC00000D867E7824B18220021180025F03BF935
:104CD0003B1902221A7020E00E243B191B78162281
:104CE00053431A007B497C4B180025F058FA3B19B6
:104CF0001B789BB2162253439AB20B243B191B78A4
:104D00001121180007F0A6F8642018F051FA2100CC
:104D10007B181A787B1801321A700B23FA180E23AD
:104D2000FB1812781B789A42D6D90C217B181A7876
:104D30007B1801321A700C23FA180E217B18127896
:104D40001B789A4200D883E60D23FB187A18127854
:104D50001A700D23FA180E23FB1812781B789A424A
:104D600000D070E65D4B1A785D4B1A705C4B1B7877
:104D7000180000F043FA322018F01AFA0C23FB183E
:104D800001221A7020E00C23FB181B78591EBB1C53
:104D9000544A89008A5A1A80BB1C1B881B0A9AB283
:104DA000BB1D1A70BB1C1B88002B07D0BB1D1B78BA
:104DB000002B03D10F23FB1805221A700C217B183E
:104DC0001A787B1801321A700C22BB181B78062B3C
:104DD000D9D9BB1802221A703DE00C23FB181B78AE
:104DE00000220C21180007F035F896235B0018000C
:104DF00018F0DEF90B23FB1801221A7020E00B23B8
:104E0000FB181B78591EBB1C314A89008A5A1A802C
:104E1000BB1C1B881B0A9AB2BB1D1A70BB1C1B88CB
:104E2000002B07D0BB1D1B78002B03D10F23FB18D1
:104E300005221A700B217B181A787B1801321A7020
:104E40000B23FB181B780A2BD9D90C217B181A7855
:104E50007B1801321A700C23FA180E23FB181278F3
:104E60001B789A42B9D90F23FB181B78002B00D06E
:104E700052E10923FB1801221A7017E01A4B1B8814
:104E80001BB209203A181278013A80210902114117
:104E90000A0012B2D24312B213401BB29AB2124BA2
:104EA0001A803B181A783B1801321A700923FB1834
:104EB0001B78062BE2D90C23FB180E22BA181278A5
:104EC0001A7002E10A23FB1801221A70B8E0C046EA
:104ED00034110020E81100204C170020100A002097
:104EE000801700201C110020243500200C243B19C1
:104EF0001B785A1E0A257B191878B94913009B00A4
:104F00009B185B009B181B185B005B5A002B21D180
:104F10007B191B78013BB34A0021D15420003B1878
:104F20001B785A1EB04B5200D35A1BB27A19127812
:104F3000013A8021090211410A0012B2D24312B291
:104F4000134019B23B181B785A1E89B2A64B520067
:104F5000D1526FE00C257B191B785A1E0A26BB190B
:104F60001C78B91C9E4813009B009B185B009B1883
:104F70001B195B001B5A0B80BB1C1B88DB089AB2F9
:104F8000BB1D1A70BB1C1B88DAB27B1D07210A40AF
:104F90001A70BB1D1B785A1E934B5200D35A19002E
:104FA0007B1D1B78013B802212021A4113000B402B
:104FB0001ED1BB191B78013B8A4A0121D1547B19B0
:104FC0001B785A1E884B5200D35A1AB2BB191B7851
:104FD000013B8021090219410B001BB2134319B296
:104FE0007B191B785A1E89B27F4B5200D15221E0A7
:104FF0000A203B181B78013B7A4A0021D1540C242B
:105000003B191B785A1E784B5200D35A1BB23A18E0
:105010001278013A8021090211410A0012B2D243EA
:1050200012B2134019B23B191B785A1E89B26E4B4B
:105030005200D1520A217B181A787B1801321A705B
:105040000A23FB181B780A2B00D84FE70C243B19C6
:105050001B781900012000F0F1FA20003B181B78A2
:10506000013B624AD35C5A1EBB1D61498A5C1A70BF
:105070007C1DBB1D1A7805003B181B781100180019
:1050800000F0DCFA03002370BA1D7B1912781B783C
:105090009A4206D07B1D1B78013B524AD35C012B00
:1050A00002D1504B01229A720C243B191B780B221F
:1050B0000E21180006F0CEFE0A2018F079F8210023
:1050C0007B181A787B18013A1A700C23FB181B788E
:1050D000012B00D9F6E60923FB1801221A7016E00D
:1050E000444B1B7809217A1812789A4209D07B1810
:1050F0001B78180014F030FA03000021180014F097
:1051000059FA09217B181A787B1801321A70092381
:10511000FB181B78062BE3D90F23FB181B78002BF9
:1051200025D10C23FB1802221A7019E00C243B191C
:105130001B7800220121180006F08CFE3B191B7819
:10514000013B2A4AD35C1A0013009B009B185B00AA
:10515000180018F02DF83B191A783B1901321A7013
:10516000254B1B780C22BA1812789A42DED90F23ED
:10517000FB181B78002B2CD10DF0A6F8FEF77CFF56
:10518000642018F015F80C23FB1802221A7019E09D
:105190000C243B191B7800221521180006F05AFE3A
:1051A0003B191B78013B114AD35C1A0013009B008A
:1051B0009B185B00180017F0FBFF3B191A783B198E
:1051C00001321A700C4B1B780C22BA1812789A42D2
:1051D000DED90F23FB181B781800BD4605B0F0BDC3
:1051E000E81100204C170020243500202414002052
:1051F00040220020801700208400002080B586B067
:1052000002AF0200FB1D1A700E23FB1800221A7059
:105210000F23FB1801221A7028E00F217A18FB1DBA
:1052200012781B789A421BD0164B1B881B0A9BB224
:10523000DAB2154B1A70134B1B88DAB2124B5A7044
:10524000114B7A1812789A707B1818780323009300
:105250000A230022002106F04FFE052017F0A8FFC8
:105260000F217B181A787B1801321A700F23FB1854
:105270001B78062BD1D90E23FB181B781800BD46CE
:1052800004B080BD240000204C170020F0B58DB084
:1052900000AF1F23F918087069460E001321182368
:1052A000CB18D9190020087017211823CB18D91949
:1052B0000020087016211823CB18D9190020087077
:1052C00015201823C318D91900200870142018239A
:1052D000C318D91900200870D54909780800013889
:1052E00078623961002078613A697B691000400F6B
:1052F0003A617B61DD0005433B69DC0039600020D9
:1053000078603C687D682300580F2B00DB00FB6051
:10531000FB680343FB602300DB00BB600B0007332B
:10532000DB08DB006A46D31A9D466B4600333B62BE
:1053300016211823CB18DB1900221A7018E016204A
:105340001823C318DB191B783A6A0021D15418239B
:10535000C318DB191A78B74B52000021D152182319
:10536000C318DB191A781823C318DB1901321A7015
:10537000AF4B1B78162218215218D21912789A4274
:10538000DDD315211823CB18DB1918228A18D2195E
:10539000127801321A701F23FB181B78013B3A6AFE
:1053A000080018240919C9190978D1541823C318F9
:1053B000DB1918228218D219127801321A701723B9
:1053C00018229B18DB1901221A7054E01F23FB18C6
:1053D0001B785A1E17241823E318DB1918789649EE
:1053E00013009B009B185B009B181B185B005B5A0B
:1053F000002B36D01F23FB181B785A1E8D4B5200F2
:10540000D35A1AB220001823C318DB191B78013BAA
:10541000012199400B001BB2134319B21F23FB1843
:105420001B785A1E89B2834B5200D1521F23FB189E
:105430001B785A1E1823C318DB1918787E491300ED
:105440009B009B185B009B181B185B005B5ADB08DA
:105450009BB2013B3A6A152118200918C91909782D
:10546000D15417211823CB18DB191A781823CB181D
:10547000DB1901321A70172318229B18DB191B78CD
:10548000062BA3D9142318229B18DB1900221A70AB
:1054900015221823D318DB1918215218D2191278A3
:1054A00001321A70162318229B18DB1900221A7079
:1054B000A2E0162318229B18DB191B783A6AD35CEA
:1054C0001A00152318215B18DB191B78013B9A423F
:1054D00000D087E0172318229B18DB1901221A70CD
:1054E00078E016241823E318DB191A7817251823F7
:1054F000EB18DB191878504913009B009B185B00D0
:105500009B181B185B005B5A002B59D01823E3181B
:10551000DB191A781823EB18DB19187846491300A1
:105520009B009B185B009B181B185B005B5ADB08F9
:105530009BB2013B3A6AD35C002B41D12000182377
:10554000C318DB191A783B4B5200D35A1AB22C00FD
:105550001823E318DB191B78013B012199400B004C
:105560001BB2134319B21823C318DB191A7889B276
:10557000304B5200D1521823C318DB191A78182364
:10558000E318DB1918782C4913009B009B185B006B
:105590009B181B185B005B5ADB089BB2013B3A6A05
:1055A000152118200918C9190978D1541422182373
:1055B000D318DB1918215218D219127801321A7037
:1055C00017211823CB18DB191A781823CB18DB19ED
:1055D00001321A70172318229B18DB191B78062B2F
:1055E00000D87EE716211823CB18DB191A78182368
:1055F000CB18DB1901321A700D4B1B7816221821BB
:105600005218D21912789A4200D252E71423182263
:105610009B18DB191B78002B00D033E713231822CB
:105620009B18DB191B78B5461800BD460DB0F0BDC0
:10563000840000204C110020E8110020B0B594B087
:1056400000AF0200FB1D1A70BB1D0A1C1A70082354
:10565000FB1800221A6004332E220021180024F0C7
:1056600072FC3B23FB1800221A704F23FB18002208
:105670001A703A23FB1800221A704E23FB180022DE
:105680001A70A04B1A220021180024F05CFCFB1DAC
:105690001B78013B9C4A0021D154FB1D1B78013B28
:1056A0009A4A0021D1540123BB6432E0FB1D1B78D0
:1056B0005A1E974913009B009B185B009B18BA6CFD
:1056C0009B185B005B5A002B20D0FB1D1B785A1ED9
:1056D0008F4913009B009B185B009B18BA6C9B18AA
:1056E0005B005B5ADB089AB2BB1D1B789BB29A42E7
:1056F0000CD1BB1D1B78013B834A0121D154814B46
:10570000BA1D12781A70BB6CDBB2F6E0BB6C0133C9
:10571000BB64BB6C062BC9DD01237B6411E0FB1D60
:105720001B787A6C9A4209D07B6C013B764AFF2148
:10573000D1547B6C013B754A0021D1547B6C013301
:105740007B64744B1B781A007B6C9342E7DD77E037
:1057500008243A196C4B1100180000F0DDF8030022
:105760001A004F217B1801321A707A18BB1D12786B
:105770001B789A426DD07B181B78013B3A190121A6
:10578000D1544323FB1801221A7054E04F243B19D3
:105790001B785A1E43257B1918785D4913009B001E
:1057A0009B185B009B181B185B005B5A002B3CD0BE
:1057B0003B191B785A1E7B191878554913009B001A
:1057C0009B185B009B181B185B005B5ADB089AB2A6
:1057D0003A217B181A707B181B78013B0822BA18F3
:1057E000D35C002B21D13B191B78013B464AD25C8C
:1057F0003B203B1801321A707B181B78013B424A50
:10580000D35C05003A1812789A420ED208007B1831
:105810001B78013B3C4A79190978D1543B181B7815
:10582000013B3A4A39190978D15443217B181A7837
:105830007B1801321A704323FB181B78062BA5D95D
:105840000823FB18180000F0ABF8031E00D17FE717
:1058500000E0C04613E04E22BB181B78BA18591C52
:1058600011701900274B4F203A1812785A54010032
:105870007B181B785A1E7B1824498A5C1A704F23A8
:10588000FB181B78013B214AD35C002BE3D1012399
:10589000FB632EE0FB1D1B785A1E1D4913009B0065
:1058A0009B185B009B18FA6B9B185B005B5A002BE4
:1058B0001CD0FB1D1B785A1E154913009B009B181A
:1058C0005B009B18FA6B9B185B005B5ADB089AB273
:1058D000BB1D1B78013B0C49CB5C013B0949CB5CF0
:1058E0009BB29A4202D1FB6BDBB206E0FB6B013349
:1058F000FB63FB6B062BCDDD00231800BD4614B007
:10590000B0BDC046402200202414002040140020D6
:10591000E81100208400002080B584B000AF7860DA
:1059200039600F217B18FF221A700E23FB1800220A
:105930001A703B681B78002B03D17B187A681278A9
:105940001A700023BB601BE0BB687A68D3181B7811
:105950000F217A1812789A420FD9BB683A68D31887
:105960001B78002B09D1BB687A68D2187B18127893
:105970001A700E23FB18BA681A70BB680133BB603B
:10598000064B1B781A00BB689342DDDB0E23FB1825
:105990001B781800BD4604B080BDC04684000020BE
:1059A00080B584B000AF78600F23FB1801221A7015
:1059B0000023BB600CE0BB687A68D3181A780F210B
:1059C0007B18791809780A401A70BB680133BB60EC
:1059D000064B1B781A00BB689342ECDB0F23FB18C5
:1059E0001B781800BD4604B080BDC046840000206E
:1059F000F0B587B002AF0200FB1D1A70854A864BD6
:105A00001100180024F020FA834B1800FAF786FBE7
:105A100003009AB28049FB1D187801235B42009372
:105A2000322313F0E7FC0F23FB1801221A701BE04E
:105A30000F243B191A787949774B180024F004FA9F
:105A4000754B1800FAF76AFB03009AB27249FB1D06
:105A5000187801235B420093322313F0CBFC3B19EF
:105A60001A783B1901321A700F23FB181B78062B8A
:105A7000DED96B49FB1D187801235B42009332236A
:105A8000032213F0B7FC0E23FB1800221A70ABE0C0
:105A90000E243B191B785A1C62495F4B180024F0F6
:105AA000D3F95D4B1800FAF739FB03009AB25A4953
:105AB000FB1D187801235B420093322313F09AFCFC
:105AC0003B191A78584B16214A43D35A1A0013002F
:105AD0005B009B185B00554A99184F4B0522180034
