:020000040800F2
:1000000000800020D9EF000865F0000855E50008E1
:1000100000000000000000000000000000000000E0
:100020000000000000000000000000003DF5000896
:100030000000000000000000F5F5000849E5000898
:1000400065F0000865F0000865F0000865F000083C
:1000500065F0000865F0000865F0000865F000082C
:1000600065F00008A5E50008B1E50008F1E5000825
:1000700065F0000865F0000865F0000865F000080C
:1000800029E7000865F0000865F0000865F0000841
:1000900065F0000865F0000865F0000865F00008EC
:1000A00065F0000865F0000865F0000859E50008F3
:0C00B00069E5000879E5000865F000082B
:1000BC0010B5064C2378002B07D1054B002B02D032
:1000CC00044800E000BF0123237010BD800A00200B
:1000DC00000000004CAF0108044B10B5002B03D0FE
:1000EC000349044800E000BF10BDC04600000000FA
:1000FC00840A00204CAF010802780B78002A03D048
:10010C00013001319A42F7D0D01A70470023C25CFB
:10011C000133002AFBD1581E7047000002B471460F
:10012C0049084900095C49008E4402BC7047C0462E
:10013C0003B47146490840004900095A49008E44ED
:10014C0003BC7047002243088B4274D303098B42D3
:10015C005FD3030A8B4244D3030B8B4228D3030C8B
:10016C008B420DD3FF22090212BA030C8B4202D32D
:10017C001212090265D0030B8B4219D300E0090A55
:10018C00C30B8B4201D3CB03C01A5241830B8B425E
:10019C0001D38B03C01A5241430B8B4201D34B0347
:1001AC00C01A5241030B8B4201D30B03C01A5241AC
:1001BC00C30A8B4201D3CB02C01A5241830A8B4231
:1001CC0001D38B02C01A5241430A8B4201D34B021A
:1001DC00C01A5241030A8B4201D30B02C01A52417E
:1001EC00CDD2C3098B4201D3CB01C01A5241830932
:1001FC008B4201D38B01C01A524143098B4201D36C
:10020C004B01C01A524103098B4201D30B01C01A96
:10021C005241C3088B4201D3CB00C01A5241830810
:10022C008B4201D38B00C01A524143088B4201D33D
:10023C004B00C01A5241411A00D20146524110469D
:10024C007047FFE701B5002000F0F0F802BDC04692
:10025C000029F7D076E7704703460B437FD4002282
:10026C0043088B4274D303098B425FD3030A8B423E
:10027C0044D3030B8B4228D3030C8B420DD3FF22A8
:10028C00090212BA030C8B4202D31212090265D076
:10029C00030B8B4219D300E0090AC30B8B4201D329
:1002AC00CB03C01A5241830B8B4201D38B03C01A70
:1002BC005241430B8B4201D34B03C01A5241030BE7
:1002CC008B4201D30B03C01A5241C30A8B4201D398
:1002DC00CB02C01A5241830A8B4201D38B02C01A43
:1002EC005241430A8B4201D34B02C01A5241030ABA
:1002FC008B4201D30B02C01A5241CDD2C3098B429F
:10030C0001D3CB01C01A524183098B4201D38B011B
:10031C00C01A524143098B4201D34B01C01A5241BE
:10032C0003098B4201D30B01C01A5241C3088B4203
:10033C0001D3CB00C01A524183088B4201D38B00EE
:10034C00C01A524143088B4201D34B00C01A524190
:10035C00411A00D201465241104670475DE0CA0F67
:10036C0000D04942031000D34042534000229C4627
:10037C0003098B422DD3030A8B4212D3FC22890131
:10038C0012BA030A8B420CD3890192118B4208D307
:10039C00890192118B4204D389013AD0921100E069
:1003AC008909C3098B4201D3CB01C01A524183097D
:1003BC008B4201D38B01C01A524143098B4201D3AA
:1003CC004B01C01A524103098B4201D30B01C01AD5
:1003DC005241C3088B4201D3CB00C01A524183084F
:1003EC008B4201D38B00C01A5241D9D243088B42A5
:1003FC0001D34B00C01A5241411A00D20146634648
:10040C0052415B10104601D34042002B00D54942AB
:10041C00704763465B1000D3404201B5002000F0EA
:10042C0005F802BD0029F8D016E770477047C046A2
:10043C008446101C62468C46191C634600E0C0467C
:10044C001FB501F011FE002801D40021C8421FBDC8
:10045C0010B501F05BFD4042013010BD10B501F04C
:10046C0003FE002801DB002010BD012010BDC0469A
:10047C0010B501F0F9FD002801DD002010BD0120B0
:10048C0010BDC04610B501F07DFD002801DC002038
:10049C0010BD012010BDC04610B501F073FD002841
:1004AC0001DA002010BD012010BDC0468446081C96
:1004BC006146FFE71FB500F04FFB002801D4002177
:1004CC00C8421FBD10B500F0D3FA4042013010BD38
:1004DC0010B500F041FB002801DB002010BD01200D
:1004EC0010BDC04610B500F037FB002801DD002020
:1004FC0010BD012010BDC04610B500F0E1FA002877
:10050C0001DC002010BD012010BDC04610B500F06C
:10051C00D7FA002801DA002010BD012010BDC0461A
:10052C00002B11D1002A0FD1002900D1002802D0B4
:10053C000021C943081C07B4024802A140180290CC
:10054C0003BDC046E9FEFFFF03B4684601B502983F
:10055C0000F0B6F8019B9E4602B00CBC7047C0463A
:10056C00F0B515042D0C0F0001002E00C646844674
:10057C000004140C000C090C46434D4360436143CA
:10058C004019340C241800B5A54203D98020400230
:10059C0080464144250C6D18614659437A4330041A
:1005AC0049192404000C2018891880BCB846F0BDE9
:1005BC009E2110B5C905041CFFF7A8FF002803D124
:1005CC00201C00F0F5FD10BD9E21201CC90500F07B
:1005DC0027FC00F0EDFD80231B069C466044F2E7EF
:1005EC0070B500220C4B04000D00FFF755FF0028DE
:1005FC0004D12000290002F0C3FB70BD064B002281
:10060C002000290002F00CF802F0BAFB80231B0634
:10061C009C466044F1E7C0460000E04170B505001F
:10062C000C000022002328002100FFF717FF0028F0
:10063C0008D12800210000F00FF802000B00100078
:10064C00190070BD80231B06E118280000F004F887
:10065C00002342428B41F2E770B500220B4B0D0098
:10066C00040001F071FDFFF7BBFF060002F0EEFB8A
:10067C000022074B01F068FD02000B00200029004E
:10068C0001F0CEFFFFF7ACFF310070BD0000F03D74
:10069C000000F04170B50600080002F0A7FB002234
:1006AC00064B01F051FD0D000400300002F0CEFBB2
:1006BC002B00220000F0D8FD70BDC0460000F041B8
:1006CC00F0B557464E464546DE46E0B504000D00F3
:1006DC009246994683B08B4230D82DD0494650462D
:1006EC0002F0C8FC29000600200002F0C3FC331AFB
:1006FC009846203B9B4633D45A4653469340424639
:10070C001F00534693401E00AF423AD8AF4200D16F
:10071C0078E05B46A41BBD41002B00DA75E000229B
:10072C0000230092019301235A4693400193012325
:10073C0042469340009328E08242CFD90022002306
:10074C00009201930C9B002B01D01C605D60009803
:10075C00019903B0F0BCBB46B246A946A046F0BD19
:10076C00424620239B1A5246DA40414613004A4621
:10077C008A40170042461F43534693401E00AF4227
:10078C00C4D900220023009201934346002BD9D0F8
:10079C00FB0772081A4346467B080EE0AB4201D1B8
:1007AC00A2420CD8A41A9D41012024196D410021AC
:1007BC00013E24184D41002E06D0AB42EED9013E2D
:1007CC0024196D41002EF8D1009801995B4600194F
:1007DC006941002B24DB2B005A464446D3402A00A7
:1007EC00E2401C005B461500002B2ADB26009E40D5
:1007FC00330026004746BE403200801A99410090D3
:10080C0001919FE7A342BCD883E7424620230021F5
:10081C009B1A0022009101920122DA40019286E794
:10082C00424620239B1A2A0046469A402300F34056
:10083C00444613432A00E2401C005B461500002B83
:10084C00D4DA42462F002023260097409B1ADE4024
:10085C003B003343CDE7C046F0B54F464646D6463F
:10086C004502C0B547000C1C6D0A3F0EC60F002F89
:10087C0066D0FF2F6CD00023EA00802599469A465B
:10088C00ED0415437F3F60026100430A9846090E50
:10089C00E40F002948D0FF2910D08022D800D204C0
:1008AC000243904600207F394A4633007F1A0243A8
:1008BC006C4992008A586340DBB29746002B6DD18D
:1008CC000220FF3F33E0002398462600454682462F
:1008DC005346022B00D17FE0032B00D194E0012B77
:1008EC0017D038007F3000285FDD6B0704D00F2352
:1008FC002B40042B00D004352B0103D538005A4B68
:10090C0080301D40FE2867DCAD016D0AC0B202E0EC
:10091C001E0000200025C0052843F6073043E0BC2C
:10092C00BA46B146A846F0BD002B2BD101204A4651
:10093C0033004E49024392008A586340DBB297461B
:10094C00002D13D104239946033B00279A469AE7BE
:10095C00002D05D108239946063BFF279A4692E7BE
:10096C000C239946093BFF279A468CE7280002F096
:10097C0063FB7627431F9D4000237F4299469A468E
:10098C003F1A80E7180002F057FB4246431F7621BE
:10099C009A404942091A9046002085E7FF2103201E
:1009AC0082E71E00FF200025B5E701231B1A1B2B35
:1009BC00AFDC9E372900BD40D9406A1E95410D43DE
:1009CC006B0704D00F232B40042B00D004356B0194
:1009DC0044D5012000259EE7FF2000259BE78025BC
:1009EC000026FF20ED0396E7002398468020C003E5
:1009FC00054209D04346034206D1454605436D02E4
:100A0C002600FF206D0A86E78020C00305436D0297
:100A1C00FF206D0A7FE741466A014801824219D2E4
:100A2C001B210025013F012614006D005200002CF3
:100A3C0001DB904201D8121A354301390029F3D158
:100A4C00501E824138007F301E001543002800DD07
:100A5C004BE7AAE71A210125121AE4E7AD010020A1
:100A6C006D0A58E790B60108FFFFFFF7D0B60108F2
:100A7C0070B542004E024C0045026D0A120EC30FB7
:100A8C00760A240EC90FFF2A0FD0FF2C11D001209B
:100A9C00A24200D070BDB542FCD18B420DD0002AD1
:100AAC00F8D12800451EA841F4E70120002DF1D112
:100ABC00EBE70120002EEDD1E9E70020EAE7C04684
:100ACC00F0B5420046024D024C00C30F760A120EDE
:100ADC006D0A240EC80FFF2A1FD0FF2C10D0002A3D
:100AEC001FD171427141002C01D1002D1ED0002963
:100AFC000ED183421ED00221581E08400138F0BD91
:100B0C00002D26D1002AF4D1714271410029F0D078
:100B1C000028F4D101204042F1E7002E19D1FF2C1E
:100B2C00EED0002CE5D1002DE3D1E4E70020002E1F
:100B3C00E5D0E0E7A24205DCEADBAE4202D8E7D31F
:100B4C000020DCE741424141484202210840013883
:100B5C00D5E702204042D2E7F0B5420046024D02F2
:100B6C004C00C30F760A120E6D0A240EC80FFF2A12
:100B7C000DD0FF2C0FD0002A23D171427141002CD3
:100B8C000FD1002D0DD10020002E14D00DE0002E21
:100B9C0010D1FF2C15D1002D0CD1002A03D171429C
:100BAC007141002908D1834210D00221581E0840FF
:100BBC00013800E00220F0BD0028FCD101204042A9
:100BCC00F9E7002CEFD1002DEDD1EEE7A24205DCC8
:100BDC00F2DBAE4202D8EFD30020ECE741424141B8
:100BEC004842022108400138E5E7C046F8B55746AF
:100BFC004E464546DE464402E0B545000F1C640AED
:100C0C002D0EC60F002D47D0FF2D4DD00023802078
:100C1C009A469B46E400C00404437F3D7802430A95
:100C2C0099467A00FB0F9846120E4B4644D0FF2A89
:100C3C0011D0D8008023DB040343994600207F3A6F
:100C4C00AD18474653467740691C0F2B3FD8724A64
:100C5C009B00D3589F46FF35002B00D079E05246BD
:100C6C0002231A4392460220EBE747464C46834642
:100C7C005B46022B28D0032B00D1C6E0012B4FD1B1
:100C8C0000200024C005FF0720433843F0BCBB46BE
:100C9C00B246A946A046F8BD002C71D104239A4651
:100CAC00033B00259B46B9E7002C63D108239A46E9
:100CBC00063BFF259B46B1E7002B50D15246013332
:100CCC001A4392460120BCE7FF200024DAE748468D
:100CDC00260C2404220C0404240C4B4620001B0C70
:100CEC00504374435A435E431219030C9B189C42A5
:100CFC0003D9802252029446664400041A04000C64
:100D0C0012189401601E84411B0C920E9B19144303
:100D1C009B011C431B0172D50120630804401C433A
:100D2C0008007F3000283CDD630704D00F232340EC
:100D3C00042B00D00434230103D580310800374B39
:100D4C001C40FE28C0DCA401640AC0B29AE737003C
:100D5C008EE7524603231A439246032071E7484616
:100D6C0002F06AF94A46431F9A402D1A9146002018
:100D7C00763D66E70C239A46093BFF259B464DE7DB
:100D8C00200002F059F97625431F9C4000236D4248
:100D9C009A469B462D1A41E780240027FF20E40346
:100DAC0070E701231B1A1B2B00DD69E79E31200025
:100DBC008C40D840631E9C410443630704D00F232E
:100DCC002340042B00D0043463011AD501200024E5
:100DDC0058E78020C003044209D04B46034206D199
:100DEC004C46044364024746FF20640A4AE78020CD
:100DFC00C003044364023700FF20640A42E7290061
:100E0C008EE7A4010020640A3CE78020C003044361
:100E1C006402FF20640A35E710B70108FFFFFFF7F3
:100E2C00F0B54646D6464F4643025B0ADA00944676
:100E3C004A02C0B54400560A051CB046240E4E00AA
:100E4C0092091F0020009246ED0F360EC90FFF2E9F
:100E5C0000D17FE0012251408D4251D0A21B91461E
:100E6C00002A00DC7EE0002E00D199E0FF2C00D19E
:100E7C008CE080235246DB041A4392464A460123F7
:100E8C001B2A08DC53462021D340891A52468A403B
:100E9C00511E8A4113436246D31A5A0100D4F3E01F
:100EAC009B019E09300002F0C7F805388640844249
:100EBC0000DDF7E03200041B20200134E240041B6B
:100ECC00A64033005E1EB341002413435A0704D0DE
:100EDC000F221A40042A00D004335A0100D4D6E061
:100EEC00621CFE2C00D1DAE09B015F0AD0B2C00577
:100EFC003843ED072843E0BCBA46B146A846F0BDDE
:100F0C00A21B9146002A63DD002E00D199E0FF2C34
:100F1C003CD080235246DB041A4392464A460123B6
:100F2C001B2A08DC53462021D340891A52468A409A
:100F3C00511E8A41134363445A0100D4A4E0013486
:100F4C00FF2C00D1ABE0012297491A405B080B4003
:100F5C001343BBE7002A32D08D4235D0FF225242D8
:100F6C009146A1444A46002A51D0301B002C00D097
:100F7C009CE06346002B00D1DFE00138002800D153
:100F8C00F7E0FF2E00D099E00D004346002B00D176
:100F9C0085E08027FF031F437F02FF207F0AA6E71F
:100FAC005246002A74D0012252429046C1444A460D
:100FBC00002A00D1C8E0FF2C00D05FE7E6E7012251
:100FCC005140A94200D049E7FF2252429146A14428
:100FDC004A46002A43D0311B002C00D18CE0FF2E56
:100FEC0000D192E080236246DB041A43944601232D
:100FFC001B2909DC202063466246CB40411A8A40FB
:10100C001100481E81410B433400534494E7FE22E7
:10101C00661C324264D1002C00D082E06346002B67
:10102C0000D1ABE05346002B00D160E7634652463B
:10103C009B1A5A0100D4AAE0634652460D00D31AFB
:10104C0044E75246002A23D0012252429046C14422
:10105C004A46002A75D0FF2C00D05FE796E7FE26A3
:10106C000134264253D1002872D16346002B00D1A3
:10107C0093E05346002B00D139E7634400245A0116
:10108C0002D54A4A013413405A0700D020E7DB0846
:10109C00FF2C00D17AE75B025F0AE0B227E7FF2062
:1010AC00002724E7414B241A33400FE7FF2E00D1D1
:1010BC006AE780236246DB041A43944601231B280B
:1010CC0009DC202463466246C340201A824010008B
:1010DC00441EA041034352460D003400D31ADCE6F3
:1010EC00634652469E1A730117D4002E00D0D9E6DF
:1010FC00002500200027FAE66346002B44D0013976
:10110C0000294CD0FF2E00D071E743463EE7FF2C60
:10111C00C5D0524662445308B6E763460D00D61A52
:10112C00C0E66246002A16D15346002B00D02BE7AE
:10113C0080270025FF20FF03D9E60D00434634002D
:10114C00A6E753466344F7E6634652469B1AA4E669
:10115C006246002AD9D05246002A00D116E78022D6
:10116C00D203134200D111E74046104200D00DE7E4
:10117C000AE752460D003400D31A8EE65346002B74
:10118C0008D00D004746B2E64346340080E7002BFA
:10119C0000D079E700250027A9E64746A7E6534685
:1011AC0034006344C8E6C046FFFFFF7DFFFFFFFB32
:1011BC0041024200C30F490A0020120E7E2A03D9B5
:1011CC009D2A02D9094A98187047802000040143CF
:1011DC00952A07DC9620821AD1404842002BF3D185
:1011EC000800F1E7963A9140F7E7C046FFFFFF7F12
:1011FC0070B5051E0ED001F01FFF9E2304001B1AB4
:10120C00962B0CDC082801DD083CA5406D026D0A0C
:10121C00D8B201E000200025C005284370BD992BF1
:10122C0009DD020029001B3291404A1E9141052222
:10123C00121AD5400D43052C01DD621F9540290083
:10124C00084E31406A0709D00F202840042805D0E9
:10125C0004314A0102D59F2331401B1B89014D0AE1
:10126C00D8B2D9E7FFFFFFFBF0B54F46D64646464E
:10127C000D0001001800C0B517002B035A0A4B0FC4
:10128C001343CA00914602036E004100520AEC0F50
:10129C007D0F1543760D490DC00F8246AC46FF00FD
:1012AC00721A844200D198E0002A00DC81E0002907
:1012BC0000D1B6E0C9498E4200D172E180212800EC
:1012CC00090408438446382A00DD5EE11F2A00DD4C
:1012DC00EEE1202039006546801A8740D1408540D8
:1012EC000D4339004F1EB9416746D7402943DB1BDC
:1012FC004A46551AA945894149425B1A98464346C4
:10130C001B0200D4CCE043465B025B0A9846434682
:10131C00002B00D12CE1404601F08EFE0100083973
:10132C00202228004346521A8B40D0408D40034364
:10133C008E4200DD17E18E1B721C1F2A00DDA7E117
:10134C00202118002E00891A8D408840D640D340A9
:10135C00691E8D4130439846002605436B0709D022
:10136C000F232B40042B05D02B1DAB42AD416D42FE
:10137C00A8441D0043461B0200D494E0974B721CFA
:10138C009A4200D19DE04146954BED0819400B0067
:10139C00520549075B0229431B0B520D12051343DF
:1013AC00E407234308001900E0BCBA46B146A8463E
:1013BC00F0BD002A43D08A1B002E00D02AE14C46F7
:1013CC001C4300D1D1E1541E012A00D11FE2834DF0
:1013DC00AA4200D172E2220023E1002A00DC98E04C
:1013EC00002942D07D498E4200D1DAE080212800CC
:1013FC00090408438446382A00DD29E11F2A00DC51
:10140C0087E1110065462039CD40202A04D04020C8
:10141C006146821A91400F4339004F1EB9410D436A
:10142C001BE12900394300D1B5E0511E012A00D13E
:10143C00ABE16A48824200D1B2E10A0043E7694954
:10144C00751C0D4200D0CFE0002E00D093E1494630
:10145C00194300D1D1E16146394300D0E3E149465B
:10146C005807C9080143DB0826E02900394300D19D
:10147C0091E0511E012A05D05848824200D18FE1DB
:10148C000A00B8E73D004D444D45894163449846F8
:10149C0049428844434602261B0200D5EBE0013E3C
:1014AC006B0700D05CE74346E9085A07114332004A
:1014BC00DB084A48824221D01B0352051B0B520DFC
:1014CC006CE70023002169E72A003A4369D04A46B9
:1014DC005807D108DA0880231B0308431A4207D0A7
:1014EC002900ED081D4203D12A00FF0848073843A4
:1014FC00430FC1005B07C908194313000A001A43C4
:10150C0000D113E28022120313431B03334A1B0B3B
:10151C0044E7002A4BD08A1B002E00D1E7E02F486D
:10152C00814200D195E1802000040343382A00DD7C
:10153C0043E11F2A00DDDBE120201D004E46801A0E
:10154C008540D64035434E4686403000D340461E3B
:10155C00B0419C440543ED19BD429B415B42634441
:10156C0098460E007FE01E4A761A13409846F5E620
:10157C00280001F061FD010018311F2900DCCFE6C5
:10158C002B00083883400025D2E662463A4311000E
:10159C004F1EB941ACE649465807C9080143DB0860
:1015AC0087E749465A07C9081143DB08A6E70D49E6
:1015BC00701C084200D0BBE0002E00D014E149465C
:1015CC00194300D175E12900394300D07EE1494629
:1015DC005807C9080143DB086EE7C046FF07000047
:1015EC00FFFF7FFFFE0700004946CD1B6146581ADE
:1015FC00A94589414942884601004046091A884656
:10160C00090200D5A6E04146294300D07FE600231D
:10161C00002451E7C74CA14200D1C7E08024240428
:10162C002343382A54DC1F2A00DDCCE02024484612
:10163C00A41A1D004E46A040D640A5400400D3403D
:10164C0062463543661EB441D31A9C46254344E09A
:10165C0062463A4315006F1EBD414D444D458941CC
:10166C0049428846984443461B0200D418E7B14BC4
:10167C0001369E4249D04246AF4B01211A4013001D
:10168C006A080D401543D9075B0898460D4365E67B
:10169C0018001F3EF040202A03D040218A1A9340A4
:1016AC001D43691E8D410023002698460543F7E62D
:1016BC00110065462039CD40202A04D040206146D7
:1016CC00821A91400F4339004F1EB94129430FE64E
:1016DC004A4613431D006B1E9D417D1BAF429B412F
:1016EC0062465B42D31A984654460E0007E64846BB
:1016FC00184300D1B3E0501E012A00D10DE18D4DED
:10170C00AA4200D1A5E0020010E73200002300211C
:10171C0044E620213800891A65468F408D40D04020
:10172C00791E8F4105433D436746D740DB1994E74B
:10173C00804A904200D1ECE039004944494592413D
:10174C00634452429B18DD0749085B089846060023
:10175C000D43A5E64A46BD1AAF428941624649424D
:10176C00D31A5B1A98465446D1E56C07F908214305
:10177C00EB0804009DE64A461A4375D1614639438D
:10178C0014D1802300241B03BCE64A46D51BA94573
:10179C008941624649429B1A5B1A98460126AEE57E
:1017AC004A46D1085A071143DB08A7E66346F908F5
:1017BC005A0754461143DB08A0E64A4613431D0062
:1017CC006B1E9D41C7E614001E00203CE640202AFB
:1017DC0005D04024A21A93404A461A4391464D46DE
:1017EC006B1E9D41354378E74A461A4300D06BE6A1
:1017FC006B07F9081943EB0880E66146394354D06E
:10180C006346F9085C072143DB08040054E64A46AA
:10181C00BD1AAF42894162464942D31A5B1A9846B7
:10182C00040001266BE54A46D51BA9458941624651
:10183C0049429A1A521A9046120232D54A46BD1A99
:10184C00AF42894162464942D31A5B1A984604005A
:10185C0084E56346F9085A071143DB084EE6F9089C
:10186C0068070143EB0824E662463A4300D198E648
:10187C004A46D1085A071143DA0880231B031A423F
:10188C0008D06046C5081D4204D154462A00F90808
:10189C00430719434B0FC9005B07C90819431300D1
:1018AC002CE64146294300D0FAE500230A00002427
:1018BC0002E66B07F9081943EB08FDE56346F908E6
:1018CC005B07194363460400DB0817E63D004D44F3
:1018DC0063444D45894198464942884443461B021E
:1018EC0000D4DDE54246144B01261A409046D7E55C
:1018FC0010001E002038C640202A05D04020821A35
:10190C0093404A461A4391464D466B1E9D413543C2
:10191C0021E602000023002140E54A46D519BD42CC
:10192C0089416344984649428844B3E50021014A01
:10193C000B0033E5FF070000FFFF7FFFF0B55746B4
:10194C004E464546DE46E0B5814605000C03480090
:10195C0092461F0085B0240B400DCE0F002859D0A5
:10196C00874B984200D198E06B0FE4001C43802316
:10197C001B0423439846834BED009B46002399465A
:10198C00834400933C037B005046240B5B0DFF0FFC
:10199C00002B67D07A4A934218D07A49420F8C4672
:1019AC00E40059461443802263441204CB1A1443B6
:1019BC009B46C200002033007B409A464B460F2BBF
:1019CC0000D9EFE070499B00CB589F466F4B5246B5
:1019DC009C462243E344002A00D095E0494602236A
:1019EC001943894600240220E5E700230024002542
:1019FC0052461B052343D20713432800190005B098
:101A0C00F0BCBB46B246A946A046F0BD002400255A
:101A1C005B4BEDE74B462343984600D189E0002C05
:101A2C0000D1E0E1200001F007FB010002000B39BE
:101A3C001D235B1A49461000D940083884400B001E
:101A4C004D4623439846854051483C03831A9B4698
:101A5C000023994600937B005046240B5B0DFF0F2F
:101A6C00002B97D15246224355D0002C00D1CAE10D
:101A7C00200001F0E1FA02000B3A1D2301009B1A31
:101A8C0052460839DA408C40144352468A40414B46
:101A9C0058449B46834400208DE74B46234398468D
:101AAC0040D108239946063B00258346009369E7FD
:101ABC00B246009B022BA9D0032B00D111E2012BC3
:101ACC0093D0354A5A44002A00DC3CE16B0700D025
:101ADC00A7E1ED084346DB0106D542462F4B1A40E1
:101AEC0090468022D2005A442D4B9A428EDC4346BB
:101AFC00520558075C020543240B530D78E7BA4690
:101B0C00A04615000090D4E74A4603231A43914699
:101B1C00032052464FE749460123194389460024C6
:101B2C00012048E70C239946093BA04683460093C5
:101B3C0028E70423994600239B4601330025009394
:101B4C0020E7002380249A4600250D4B24034FE701
:101B5C00802341461B03194208D01C4206D11C436A
:101B6C002403BA461500064B240B41E78024434658
:101B7C0024031C432403B246014B240B38E7C04614
:101B8C00FF07000001FCFFFF50B7010801F8FFFF41
:101B9C000DFCFFFFF3030000FF030000FFFFFFFE3F
:101BAC00FE070000444500D216E100D111E10123EB
:101BBC005B429C462E0040460025E3442302140E53
:101BCC001C431B0C994623041F0C1202494600921D
:101BDC000197FEF73DFB02007A430B04310C804663
:101BEC0019438A420BD901235B429C460919E044F4
:101BFC008C4204D88A4202D9831E98460919881A45
:101C0C004946FEF725FB09048C4631046646019AC9
:101C1C00090C4243030031438A4204D90919013BA0
:101C2C008C4200D811E1891A4246009E12041A43D4
:101C3C00330C1F00100C9046029313043204160C44
:101C4C0032001B0C5A4303967B4346437843170CD4
:101C5C00BC469B1963449E4203D980267602B44647
:101C6C0060441E0C301816041B04360C9E1981425D
:101C7C0000D29CE000D197E0AE1B091AB54280411E
:101C8C004042081A844200D111E14946FEF7E0FABD
:101C9C00019A0B044243310C050019438A4207D9BF
:101CAC000919013D8C4203D88A4201D9851E0919B4
:101CBC00881A4946FEF7CCFA09048C46310466466C
:101CCC00019A090C4243030031438A4207D909198E
:101CDC00013B8C4203D88A4201D9831E0919039E09
:101CEC00891A32002D041D43029F2B041B0C5A43EE
:101CFC007B439C46280C4643130CB4446344784302
:101D0C009E4203D980267602B44660441E0C12040F
:101D1C001B04120C30189B18814206D302D00123ED
:101D2C001D43CEE6002B00D1CBE661186E1EA142FE
:101D3C0000D2A4E0814200D2C9E000D1D9E0350044
:101D4C00EDE701256D420121891A382900DD4CE6A9
:101D5C001F2900DC7FE01F235B429A1A4346D340C5
:101D6C00202904D04446654A5A44944025436A1EAF
:101D7C00954107222B43150000241D401A4200D127
:101D8C00A1E00F2200241A40042A00D198E01A1D69
:101D9C009A429B415B42E4181300220200D48FE06C
:101DAC0001230024002523E6B54200D364E7434613
:101DBC005A1E009B9C4665441F009D429B415B4202
:101DCC001B19C9188C423AD2884263D860D090460D
:101DDC0052E7AA4200D9EAE64346DE0758086B08E8
:101DEC001E43ED07EAE6484601F026F90100020021
:101DFC00153120321C2900DC1AE64B46083883408A
:101E0C000025984620E601F017F903001A00153258
:101E1C0020301C2A00DC30E65446083B00229C4053
:101E2C0035E60F232B40042B00D152E605235B42F1
:101E3C00AB429B4104355B42ED0898444AE68C4228
:101E4C00C5D1AF42C0D9904616E78A4200D8EAE61F
:101E5C00831E0919E7E62A4A28005A44434695404E
:101E6C009340C8406A1E9541444603432B43CC40E3
:101E7C005A0792D00F221A40042A88D18DE73500D8
:101E8C00814200D04BE7009A934200D047E718E616
:101E9C00AE429CD902235B429C46009BE0449C468C
:101EAC0065449D429B415B421B19C918E4E6154AE7
:101EBC005A44002A00DC44E701230025984409E633
:101ECC0065076402240BDB081D43002390E5009E8C
:101EDC00023D7200B242BF417F423C190919009287
:101EEC00CEE78024434624031C432403064B240BD7
:101EFC007EE5009A9A42EAD33500C4E73E0400001E
:101F0C001E040000FF030000FF070000F0B54F4661
:101F1C004646D646944691461A03120B184DC0B548
:101F2C004C000F0392465A00060080463F0B0120DE
:101F3C00640DC90F520DDB0FAC420AD0AA4203D07C
:101F4C00944201D157450DD0E0BCBA46B146A846E3
:101F5C00F0BD3D003543F7D1A242F5D1524665465E
:101F6C002A43F1D10120C845EED1994206D0002C6C
:101F7C00EAD13E433000461EB041E5E70020E3E7DE
:101F8C00FF070000F0B54E4645465746DE460400B6
:101F9C001800E0B516001B031B0B324D0F034A0053
:101FAC0099464300A446B0463F0B520DC90F5B0D3A
:101FBC00C00FAA4229D0AB4218D0002A2AD13C43E8
:101FCC00A34665426541002B02D14C46264327D0DF
:101FDC00002D15D1814228D002200139084001384A
:101FEC00F0BCBB46B246A946A046F0BD4D462E43BA
:101FFC002FD1002AEED13C4365426541002DE9D03A
:10200C000028EDD101204042EAE73D00254320D1D4
:10201C009342EBD0002BDDD14C462643DAD1DBE7E3
:10202C005B460020002BDBD0D6E79A420ADCE7DBCC
:10203C004F45D1D810D000204F45D1D20029E1D046
:10204C000800CDE743425841022340421840013872
:10205C00C6E702204042C3E7C445BDD80020C445B2
:10206C00BED2EBE7FF070000F0B54E46454657469B
:10207C00DE4604001800E0B516001B031B0B314DA7
:10208C000F034A0099464300A446B0463F0B520D3D
:10209C00C90F5B0DC00FAA4211D0AB4214D0002A5D
:1020AC002FD13C43A34665426541002B14D14C46CD
:1020BC00264311D15B460020002B17D010E03D00C9
:1020CC00254312D193421CD14D462E430DD1002AEB
:1020DC0004D13C4365426541002D0DD1814216D09F
:1020EC00022001390840013800E00220F0BCBB4658
:1020FC00B246A946A046F0BD0028F7D101204042C7
:10210C00F4E7002BEAD14C462643E7D1E8E79A42A4
:10211C0006DD434258410223404218400138E5E7AE
:10212C009A42E9DB4F45DBD806D000204F45DDD283
:10213C000029E3D00800D9E7C445D1D80020C44514
:10214C00D4D2F5E7FF070000F0B557464E4645469A
:10215C00DE46E0B598460C034B000600924687B06D
:10216C00240B5B0DCF0F002B6CD0DD4A934200D1BA
:10217C0086E0420FE4001443802212041443D94A2F
:10218C00C500944663440093002399469B464346FE
:10219C0042461E03D20F5B0050469046360B5B0D39
:1021AC0000D178E0CE4A93421DD0CE49420F8C46E6
:1021BC0000996344F6008C46164380229C4412041A
:1021CC0063461643C2000020009300994346013138
:1021DC008C4649467B4001930F2900D97EE0C24BC7
:1021EC00890059588F465246009B324300D056E125
:1021FC00BB4900268C46634449460093022319438D
:10220C0089460220E1E743460193340015008346DA
:10221C005B46022B5ED0032B00D1F3E1012B00D0E7
:10222C0018E1002200240025019B12052243DB0744
:10223C001A432800110007B0F0BCBB46B246A946B1
:10224C00A046F0BD2500054300D141E1002C00D192
:10225C00ADE1200000F0F0FE010002000B391D235F
:10226C0010005B1A3100350008388440D940854095
:10227C000C439E48831A0093002399469B4686E79D
:10228C000500254300D01CE1082200930223002402
:10229C0091469B467BE75246324300D10AE1002E21
:1022AC0000D176E1300000F0C7FE02000B3A1D238E
:1022BC0001009B1A52460839DA408E4016435246AA
:1022CC008A40009B8949181A03008C4663440020FD
:1022DC0000937AE700240025814AA5E72F0C2D04F2
:1022EC002D0C2B00110C1204120C534398461300A6
:1022FC0028007B43994648434844834640460B009C
:10230C00000C824658467B4350440293814506D9C3
:10231C009A4680235B029946CA4453460293030CA7
:10232C009B4643461B0400041B0C98460300434485
:10233C000493330C99462B003604360C73439846A1
:10234C0033007B439A464B465D435F4343465544BB
:10235C00180C4019824503D980235B029A465744D6
:10236C00050CEB19059343461D042D0C0004401974
:10237C00250C2404240C270057436A4390462A005A
:10238C003B0C9A464A43614341445144834488453B
:10239C0003D980235B02984642443F040B0C3F0C4C
:1023AC000904C919270098464B4677435C436E4392
:1023BC005D433B0C9946A4194C4442440395A642F8
:1023CC0004D980235B02984645440395029B3F0445
:1023DC005B441E008342804123049846059B3F0CBE
:1023EC004744984676188E428941474440423D18EE
:1023FC00A846934649428A46C3449F42BF41804502
:10240C008041039BDA449846534640427F4207433F
:10241C00240C934592418A4589413F19DC0D049B5C
:10242C0075021D43681E85415346524249420A4378
:10243C00BF184744F60D7F0235435A023C431543FF
:10244C00FB0100D4C1E001216A080D401543E207ED
:10245C001543640826496144002956DD6B0709D0F1
:10246C000F222A40042A05D02A1DAA42AD416D42F2
:10247C0064191500E30104D580211E4AC9001440DB
:10248C0061441D4A914200DD24E76207ED086402B5
:10249C0049051543240B4A0DC6E60197B8E6104AC8
:1024AC000320944663444A46009303231A439146FF
:1024BC0052468AE6494601231943894600260120E3
:1024CC0083E60C2200930323050091469B465EE6AF
:1024DC000423994600230093013300249B4656E6BF
:1024EC00FF07000001FCFFFF90B701080DFCFFFF88
:1024FC00FF030000FFFFFFFEFE0700000023802407
:10250C000025444A019324038EE60120401A382802
:10251C0000DD86E61F285BDD1F2223005242511A84
:10252C00CB401900202803D03B4A624494402543F9
:10253C006A1E95412A000A4307210D00002415400C
:10254C0011425BD00F2100241140042953D0111DDE
:10255C00914292415242A4180A0023024BD5012207
:10256C000024002560E680231B031C4209D01E4278
:10257C0007D133431C0343461500240B254A019312
:10258C0052E68022120314432403224A240B01979F
:10259C004AE600F051FD03001A00153220301C2AC7
:1025AC0000DC84E65646083B00229E4089E600F09B
:1025BC0043FD01000200153120321C2900DC4EE6DF
:1025CC00340008380025844053E6009B9C4641E7C4
:1025DC001249220061442E008D408A40C640691E7B
:1025EC008D4132432A43C4405307B6D00F211140CA
:1025FC000429ACD1B1E765076402240BD20815435A
:10260C00002211E68022120314432403014A240BF6
:10261C000AE6C046FF0700003E0400001E0400004E
:10262C00F8B557464E464546DE460400E0B51F0059
:10263C0010000B03620F4E00CD0F5B0A39031343DE
:10264C00490AE200440F2143C24C91469246C00015
:10265C007A008046760D520DFF0FA24200D1B4E0F5
:10266C0001246740BB46BD4200D188E0B41AA446A1
:10267C00002C00DCB2E0002A00D1C5E0B54A96423D
:10268C0000D18BE28022120411436246382A00DD0D
:10269C00A1E11F2A00DD16E220270C00BF1ABC4066
:1026AC000200A0466446B840E2404446144302008F
:1026BC00501E82416046C14022435B1A49468C1A27
:1026CC00A145924152429B1A984643461B0200D4A4
:1026DC0017E143465B025B0A98464346002B00D148
:1026EC006CE1404600F0A8FC0200083A20212000D2
:1026FC004346891A9340C84094400343964200DDF8
:10270C0057E1961B711C1F2900DDCBE1202218001C
:10271C002600521A94409040CE40CB40621E944109
:10272C003043984600260443630709D00F23234007
:10273C00042B05D0231DA342A4416442A0441C00D9
:10274C0043461B0200D4DFE0824B01369E4200D18F
:10275C00FBE04246804BE4081A4013007105520717
:10276C005B0222431B0B490D0905ED071943294355
:10277C001000F0BCBB46B246A946A046F8BDB41A40
:10278C00A446002C58DD002A00D19EE0714A9642E6
:10279C0000D13BE18022120411436246382A00DD4D
:1027AC00C1E01F2A00DCBBE10C00203AD44022001F
:1027BC006446202C04D040273F1BB9400843804678
:1027CC004446611E8C411443B1E00C0004432AD0F2
:1027DC00BB46BD422DD0614CA446B4446446002C8B
:1027EC005CD0941BA446002E00D015E14D461D4331
:1027FC0000D1C3E1651E012C00D10CE2554EB44250
:10280C0000D1F8E1AC460EE10A00024300D136E1FA
:10281C002200013A012C00D1C6E14E4CA44500D156
:10282C00F4E0944631E701246740BB46BD4200D03A
:10283C001CE74A4CA446B4446446002C00D1CFE0BB
:10284C00941BA446002E00D15CE1424EB24200D152
:10285C00ECE18026360433436446382C00DDB3E1CA
:10286C001F2C00DD38E22026361B1C00B4404F46DE
:10287C00A0466446E74044463C434F46B7403E00C2
:10288C00771EBE4134436646F340C918241884426F
:10289C009B415B429846160088444EE0304A741CBB
:1028AC00144200D0D6E04A461A43002E00D05BE119
:1028BC00002A00D1A5E10A00024300D0BBE14A4640
:1028CC005907D2080A43DB0827E00A00024300D16B
:1028DC0074E12200013A012C05D01E4CA44500D114
:1028EC0094E0944659E74844484592415B18984611
:1028FC00040052429044434602261B0200D5C4E019
:10290C00013E630700D011E74346B4465907E2087D
:10291C000A43DB080F498C4540D061461B0349052F
:10292C001B0B490D20E701430C00611E8C414C44EC
:10293C004C45924152429046984443461B02E0D586
:10294C00044B01369E4200D09FE031000023002250
:10295C000AE7C046FF070000FFFF7FFF01F8FFFFFB
:10296C00FE070000002A00D160E10A0002434DD0AE
:10297C004A465C07D20822438024DB082403234206
:10298C0007D0CE08264204D15D463300C208490761
:10299C000A43510FD200D20849070A4311001943C8
:1029AC0000D1C8E1802109030B431B03D5491B0B44
:1029BC00DAE6D549B61A0B409846B5E6200000F089
:1029CC003BFB020018321F2A00DC8FE6230008387C
:1029DC008340002492E608430200501E82416DE6BB
:1029EC00CA4C721C224200D0ADE04A461A43002E5B
:1029FC00B8D1002A00D158E10A00024300D059E1B5
:102A0C004A465907D2080A43DB0886E74A46590763
:102A1C00D2080A43DB08C1E7BA4DAA4200D11EE135
:102A2C0080252D042B436446382C5DDC1F2C00DDE7
:102A3C00D0E0202567462D1B4E461C00FE40AC40C6
:102A4C0034434E46AE403500FB406E1EB541C91AAC
:102A5C002C434EE04A46141AA145924152429046EC
:102A6C005F1A3A004746D21B9046120200D58BE003
:102A7C004246224300D030E6002300254DE74A466B
:102A8C005907D2080A43DB0844E742469E4B6108CB
:102A9C001A401300012214400C43DA075B089846D5
:102AAC00144341E61A001F3EF2401600202903D0C1
:102ABC004022511A8B401C43621E94410023344324
:102ACC00984600261DE70C00203AD44022006446AC
:102ADC00202C04D040273F1BB94008438046444675
:102AEC00611E8C412243E9E54C4623431C00631EC6
:102AFC009C41041BA0429B415B42CB1A98465D460D
:102B0C001600E2E54E461E4300D1AEE0661E012CD7
:102B1C0000D1FDE07B4FBC4200D107E1B4469BE6FF
:102B2C0064462022121B0C00944007009040A046E3
:102B3C006446421E90416246E7404446D1403C43C5
:102B4C0004435B18F3E66F4CA24200D1D5E0484435
:102B5C005B184845894149425B18DC0740085B0813
:102B6C00984616000443CCE6002A00D082E00A0006
:102B7C00024340D1802300251B0313E74B07C208F7
:102B8C001A435D46CB08C5E64A46841AA0429241D8
:102B9C00CB1A52429B1A98465D469EE54A46590707
:102BAC00D2080A43DB08F9E64A46141AA1459241B9
:102BBC005B1A52429B1A9846012686E54A465907EB
:102BCC00D2080A43DB08A5E64C4623431C00631ECF
:102BDC009C415BE665461E00203DEE40202C05D056
:102BEC0040252D1BAB404C461C43A2465446631E4D
:102BFC009C4134437DE74B07C2081A435D46CB0822
:102C0C00CCE60A00024300D136E74B07C2081A4350
:102C1C005D46CB0881E64A46841AA0429241CB1A03
:102C2C0052429B1A98465D4601264EE54B07C20858
:102C3C001A43CB08B2E64A46141AA14592415F1AD0
:102C4C005242BA1A904612026BD54A46841AA042D6
:102C5C009241CB1A52429B1A98465D4664E54B074B
:102C6C00C2081A435D46CB0898E64B07C2081A43C4
:102C7C00CB084FE60A00024390D04A465C07D208C4
:102C8C0014438022DB081203134208D0CE081642EC
:102C9C0005D1C0084907084304005D463300610FA5
:102CAC00E2004907D2080A4378E64B07C2081A43E8
:102CBC00CB0832E648445B1848459241984652424C
:102CCC009044434604001B0200D41AE642460E4BC5
:102CDC0001261A40904614E666461F00203EF74037
:102CEC00202C05D04026361BB3404C461C43A24634
:102CFC005446631E9C413C43C8E51100002300224E
:102D0C0032E5C046FF070000FFFF7FFFFE07000013
:102D1C004A461418844292415B1898465242904499
:102D2C00E9E54246224300D1A6E6EAE54B07C20894
:102D3C001A43CB0832E600220149130014E5C046C1
:102D4C00FF07000070B505000C480C031600490085
:102D5C001A035B00240B490D120B5B0D814208D04A
:102D6C00064900208B4203D132431000421E904191
:102D7C0070BD01202C43FBD1F2E7C046FF070000D9
:102D8C000A0030B5134C530009030500090B002051
:102D9C005B0DD20FA34204DD0F48834202DD0F4BC3
:102DAC00D01830BD8020400301430D48C01A1F28A5
:102DBC0008DD0C48C31AD9400B005842002AF0D148
:102DCC001800EEE7084CC540A446634499400B003C
:102DDC002B43F2E7FE0300001D040000FFFFFF7F02
:102DEC003304000013040000EDFBFFFF70B5002856
:102DFC0016D0C317C5185D40C40F280000F01CF98D
:102E0C00114A121A0A2816DC03002E0015339E40B4
:102E1C000B23181AC54053052D032D0B5B0D03E036
:102E2C0000240023002500261B052B43E407234325
:102E3C003000190070BD0B38854053052D0300265A
:102E4C002D0B5B0DF0E7C0461E04000010B5041EF0
:102E5C0010D000F0F1F80F4B1B1A0A2811DC0B22D2
:102E6C002100121AD14015300A035B058440120B65
:102E7C005B0D01E0002300221B0513432000190009
:102E8C0010BD22000B3882405B0512030024120B8C
:102E9C005B0DF1E71E04000070B543004602C40F41
:102EAC00FE201B0E591C750A08420CD0E022920021
:102EBC0094466D07360B63441B053343E4072343E9
:102ECC002800190070BD002B14D1002D1BD0280038
:102EDC0000F0B2F80A281CDC0B232A001B1ADA407B
:102EEC00030015339D400E4B12031B1A5B05160B8A
:102EFC005B0DE1E7002D09D0320B80263603094B20
:102F0C006D071643D8E700230026D5E70026054BAE
:102F1C00D2E703002A000B3B9A400025E3E7C046AA
:102F2C0089030000FF07000002004B00F0B5080306
:102F3C005B0D3D4ECC0F400A510F5F1C0843D50072
:102F4C0037420AD039495E18FE2E16DDFF230021C8
:102F5C00DB050B43E0071843F0BD002B06D12843DB
:102F6C0027D005218901490ADBB2F1E70543EDD0F1
:102F7C008021C903FF230143EAE7002E1CDD9201E7
:102F8C0011004A1E9141C0006D0F014329434B07AC
:102F9C0048D00F230B40042B00D004318023DB04DA
:102FAC000B403FD0721CFE2ED0D08901490AD3B2FF
:102FBC00CEE700230021CBE73200173222DB802141
:102FCC001E2209040843921B1F2A1DDD02214942BF
:102FDC008E1B0100F1400E00202A04D0144A9446A6
:102FEC0063449840054329004D1EA94131430026F6
:102FFC004B07CED180200B00C004012203400142BC
:10300C00D3D1AFE70023ACE70A498C4629006344CF
:10301C00D1409D400A00290098404D1EA941014312
:10302C001143E4E733009DE7FE07000080FCFFFF3F
:10303C00A2FCFFFF82FCFFFF1C2101231B04984212
:10304C0001D3000C10391B0A984201D3000A08392D
:10305C001B09984201D30009043902A2105C4018E4
:10306C007047C04604030202010101010000000088
:10307C000000000010B5002903D1FFF7DDFF203060
:10308C0002E0081CFFF7D8FF10BDC046F0B5224B7C
:10309C0022491B8883B09AB28B4235D0160A2CD0A9
:1030AC001F4BF6B21E701F4B1A706B46D91D0023B6
:1030BC00022201259C461C4C63460B700B780A2B94
:1030CC0014D86B1E9800C0184000C018124BD718AB
:1030DC000B783F88C3185B00E7520B780232013340
:1030EC00DBB20B700B7892B20A2BEFD90135EDB233
:1030FC00AE42E1D2002003B0F0BD0121084B012605
:10310C001970084B1A70D0E70122054BFA201A707F
:10311C000022044B1A70EEE700D80108FFFF0000F4
:10312C0008000020A00A0020140F0020F0B5C646AD
:10313C0000B50D4D2F78002F12D0012400270B4E17
:10314C00611E631C490018007118984604F0FCFCC1
:10315C00192C00D90A274346DCB22B78A342EFD2B4
:10316C00380080BCB846F0BD08000020F073002089
:10317C00F0B557464E46DE464546E0B583B06B4645
:10318C009E1D002398463380194B21279A46194BD4
:10319C009B4643469B001D00994645447C1F6D0091
:1031AC00A4B255442000310004F0CEFC3388013425
:1031BC006B70A4B21B0A2B700235BC42F2D14F4685
:1031CC00002347447F0057447B7243460133DBB2F4
:1031DC0098465B461B780534A7B24345D9D20020EC
:1031EC0003B0F0BCBB46B246A946A046F0BDC046F3
:1031FC00040E002008000020F0B54646D6464F4687
:10320C00C0B582B06B469E1D0023234D33802B78B6
:10321C000024002B3CD0214B002198461F1D200080
:10322C004900CB30791880B204F08EFC611C2B78ED
:10323C008CB2C9B28B42F2D838232700D0349C46CA
:10324C00A3B2994600239A469E37E044BFB2454646
:10325C007C1FA4B22000310004F076FC33880134CA
:10326C006B70A4B21B0A2B700235A742F2D14346F5
:10327C0052465A720A239C460537BFB2E0444F456A
:10328C00E5D1002002B0E0BCBA46B146A846F0BD7C
:10329C00024B9846D0E7C04608000020A00A002048
:1032AC00F0B585B000236A46E42003A99381D3814D
:1032BC0004F04AFC0025002801D16B461D7B03A9B4
:1032CC00E52004F041FC0E236B4404001900E620B9
:1032DC0004F03AFC0443A4B20026002C04D16B4643
:1032EC009E89DB893604F61803A9E72004F02CFC30
:1032FC000E236B4404001900E82004F025FC044361
:10330C00A4B20027002C04D16B469F89DB893F04B3
:10331C00FF18E92003A904F017FC00282FD0264C35
:10332C00EA2003A904F010FC002804D16B469B8909
:10333C001A0AA277E377EB2003A904F005FC002816
:10334C0006D16B4620229B89190AA1540132A35441
:10335C00237F002B02D0627F002A1ED1A37F002B7B
:10336C0002D0E27F002A1FD12023E35C002B03D084
:10337C002122A25C002A09D1002005B0F0BD6B46C9
:10338C009B890D4C1A0A22776377C9E700923100AA
:10339C003A00280006F05CF9EEE7009231003A00A2
:1033AC00280006F055F9D9E7009231003A002800C0
:1033BC0006F04EF9D8E7C046200B00208A2030B525
:1033CC0083B001A9400004F0BFFB002860D16B461C
:1033DC008E209B88494C01A9237040001B0A637006
:1033EC0004F0B2FB00285ED16B4616209B8801A925
:1033FC00DA0BFF305B082271E38004F0A5FB002898
:10340C005DD16B469B888B203D4D01A940002B80E4
:10341C0004F09AFB002800D069E06B469B881820CA
:10342C0001A9FF306B8004F08FFB00285BD16B4649
:10343C009B88AB808C2001A9400004F085FB6B4677
:10344C0004001A20991DFF3004F07EFB0443A4B243
:10345C00002C3FD16B466A46DB8892881B041343D1
:10346C00AB608D2001A9400004F06EFB00282DD12B
:10347C006B469B88AB811C2001A9FF3004F064FBD8
:10348C0000281FD16B461B790020AB7603B030BDF2
:10349C008E201C4B194C9B8801A92380400004F002
:1034AC0053FB0028A0D01620164B01A91A7AFF3026
:1034BC0022715B89E38004F047FB0028A1D0114BFB
:1034CC009B89A0E726230F4AD35CDDE7C0235B0171
:1034DC00AB81D0E722230C4AD35C002B0AD0E1232A
:1034EC005B02AB60BDE7074B1B8AAB80A2E7054BC9
:1034FC00DB8994E7034B5B69AB60B2E76C6E002031
:10350C00EC6E002008000020200B0020F0B54F4688
:10351C004646D646C0B588B000236A46D3830F33DF
:10352C0098460E3B0126EC249946374F05E00434AF
:10353C000136A4B20937082E5ED01E236B44190045
:10354C00200004F001FB051EF1D16B46DB8B190A40
:10355C001A0BB242EBD1424640460A400842E6D032
:10356C00B0007B7483B29A4618001E23E9306B447A
:10357C001900BA7280B204F0E7FA6B46DB8B504646
:10358C001A0ABB731E23EA306B441900FA7280B21C
:10359C0004F0DAFA6B46DB8B50461A0AFB731E23D7
:1035AC00EB306B4419003A7380B204F0CDFA6B46E1
:1035BC00DB8BB87A1A0A3B74F3B219007A739A4609
:1035CC0005F086F84846797CFB7A4A10059502404E
:1035DC000140387C04340490F87B01360390B87BAE
:1035EC00A4B20290787B09370190F878009050468D
:1035FC0005F078F9082EA0D1002008B0E0BCBA463E
:10360C00B146A846F0BDC04624190020F0B5D646F8
:10361C0046464F463220C0B511F09CF9061E6AD0C2
:10362C00364C2278FE2A55D1431C994664239A467F
:10363C00334B344F9846BA442100351B1431227851
:10364C002A5501348C42FAD114224946380011F023
:10365C00B7FB14220021300011F0BBFB2278FD2AAD
:10366C003AD80023143D01E0322B30D02A55627831
:10367C0001330134DBB2FD2AF6D91D005A1EB25CAF
:10368C00002A01D00133DDB2280011F063F9F86093
:10369C00002826D02A00310011F092FB4346424606
:1036AC001B7800210133137030002A0011F091FBBC
:1036BC002378FE2B02D11437BA45BDD1300011F05E
:1036CC0053F90020E0BCBA46B146A846F0BD312201
:1036DC003225D4E7FF20F5E70122002500235242D2
:1036EC00CDE714220021380011F073FB300011F0EB
:1036FC003BF90E20E6E7FB20E4E7C04600DC0108BE
:10370C0088110020086F002010B5FFF7BFFCFFF7F1
:10371C000DFDFFF72DFDFFF76FFDFFF7C1FDFFF767
:10372C004DFEFFF7F3FEFFF771FF10BDF0B5C64677
:10373C0000B5104E33789846002B16D00023012488
:10374C0098460D4F07E0192C01D90A239846337877
:10375C00ECB2A34209D3631E5B00F95A651C002925
:10376C00F1D0A8B204F01CFAEDE7404680BCB84694
:10377C00F0BDC04608000020F07300200023F0B517
:10378C004646D6464F4698461C4BC0B599461C4BF0
:10379C0000269A4605E0534601361B78F6B2B34232
:1037AC0026D34B46B400A41964001B5D002BF2D049
:1037BC004546474601341C3521374C44ADB2BFB2A7
:1037CC0021781B022800C918013589B2ADB204F06A
:1037DC00E7F9BD4202D063780234F1E74346053382
:1037EC009BB29846534601361B78F6B2B342D8D2F8
:1037FC000020E0BCBA46B146A846F0BD040E00203D
:10380C0008000020F8B5DE4657464E4645468B4626
:10381C00E0B51C000AAB1B7801009A460BAB1B7879
:10382C00E42098460CAB1F780DAB1E780EAB91467E
:10383C001D7804F0B5F95B46190A89B2E52004F04D
:10384C00AFF95B46E62099B204F0AAF94B46190A87
:10385C0089B2E72004F0A4F94B46240299B25444EF
:10386C00E82004F09DF9A1B2E92004F099F943464F
:10387C001902C91989B2EA2004F092F931024919E6
:10388C0089B2EB2004F08CF90020F0BCBB46B246A8
:10389C00A946A046F8BDC0468A2010B51E4C400073
:1038AC00637821785B01194304F07AF98E20217931
:1038BC00E388C903194389B2400004F071F916205A
:1038CC00164CFF30218804F06BF98B206188400086
:1038DC0004F066F918206379217B1B021943FF3031
:1038EC0004F05EF98C202189400004F059F91A206B
:1038FC006189FF3004F054F98D20637B21791B0220
:10390C001943400004F04CF91C20A17EFF3004F058
:10391C0047F9002010BDC0466C6E0020EC6E0020F4
:10392C00F0B5C646124E34220021300000B511F01D
:10393C0050FA104D2F78002F16D0022301240027A7
:10394C009846192C00D90A274346DCB22B78A3429F
:10395C000AD3631E5B00F15A631C98460029F0D011
:10396C00180004F01DF9ECE7380080BCB846F0BD37
:10397C00F0730020080000200E2330B512248FB005
:10398C006B446C44009303AA06AB05A901200AF012
:10399C00F1FC04AA08AB07A9022000940AF0EAFC87
:1039AC0001230A936B4600259B89059809A9099365
:1039BC000B950EF0C7FD02230B932388089809A9D9
:1039CC0009930A950EF0BEFD6B4600229989059865
:1039DC000EF06CFF05200BF075F8218808980EF09E
:1039EC005FFF03000020002B01D00FB030BD6B46F1
:1039FC000122998905980EF059FF05200BF062F809
:103A0C00218808980EF04CFF013843425841C0B24F
:103A1C00EBE7C04610B50BF093FAE1231B024360B1
:103A2C008023DB000361802304005B01836010F0C2
:103A3C00CDFD2021226813680B43136010BDC046D6
:103A4C00044B10B59968FCF757FB43425841C0B280
:103A5C0010BDC0469400002070B5017803000C0026
:103A6C003D3C3D2900D144780D0006203E3D3C39BB
:103A7C00002C27D0002D02D15A78002A24D00029FE
:103A8C0002D15A78002A21D01A783E2A05D15E78C4
:103A9C003D2E02D19E78002E1AD03C2A05D15E789C
:103AAC003D2E02D19E78002E14D0212A05D15A78B1
:103ABC003D2A02D19A78002A0ED00138C0B20028D3
:103ACC00D6D170BD0120FCE70220FAE70320F8E70D
:103ADC000420F6E70520F4E70620F2E7F0B5C64629
:103AEC00114E124B370005000124984600B52437BF
:103AFC0082B0A5420FD043461B8DBC705BBAB38419
:103B0C0003230022009300212000073305F096FECA
:103B1C000A200BF0D9FA0134E4B2072CE9D10020C9
:103B2C0002B080BCB846F0BD200B0020080000207D
:103B3C00F0B557464546DE464E46E0B583B06A467C
:103B4C00494B00AF1D78EB1DDB08DB00D31A9D46FB
:103B5C006C46002D0AD000230021444A5432E15413
:103B6C000133DEB211800232B542F8D8012316229D
:103B7C00013823543E4B42439C463C4B40001818A2
:103B8C000123984601336244002154269C46A346E7
:103B9C007D605388002B0DD0855BDB08A94645461C
:103BAC008D40AA464D465446254364465B44013B32
:103BBC0085531C70013102320629EAD102235422AA
:103BCC0099465C469346CA46284B7D689B445346AF
:103BDC000133DBB29A46002D3CD0012300265B4218
:103BEC005344B44600221E00214804E00132D3B2F3
:103BFC0016309D422BD9A35CB342F7D15300A94692
:103C0C00012190461D007E604B00C35A002B13D03F
:103C1C00DB08013BE25C002A0ED101264A1E9640CD
:103C2C0032005E46AE5B32435E46AA535246E254C5
:103C3C0063460133DBB29C4601310729E4D142468D
:103C4C004D460132D3B27E6816309D42D3D86646BB
:103C5C00002EBCD10020BD4603B0F0BCBB46B24622
:103C6C00A946A046F0BDC04608000020200B00204D
:103C7C00140F0020F0B5DE464E464546574600244C
:103C8C00E0B593B005000E002E22029106A800218B
:103C9C00059411F09EF81A220021664811F099F84B
:103CAC002421654B6A1E99469B185C541C72162382
:103CBC005343624A012093461A005A440392B1B20C
:103CCC004300D35A002B03D0DB088B4200D1A1E078
:103CDC0001300728F4D15A4B1C78002C00D1A6E0F7
:103CEC004A4648460123FF260021D71D23309D421A
:103CFC0002D01A18FE5411700133A342F7DD04AB45
:103D0C00DF1C082300224B449C46904605AE320033
:103D1C00012100231078013301400132A342F9DB69
:103D2C00002900D081E03378002B3CD04B46FF209B
:103D3C001A7A012302E062469A5C0133904205D95B
:103D4C00FD5C002D02D11000591EC9B29C42F2DC60
:103D5C000131CBB29846029B984528D043465A1E57
:103D6C0001231625B3545B46554359190C335D1981
:103D7C004A4401944B88002B10D0DB08DBB2013B8A
:103D8C00F05C00280AD1107A4B4401301C7AC0B286
:103D9C00844203D94446187224201C5402318D42AB
:103DAC00E8D1019CB3E74B46187A0200C1E71A0030
:103DBC004B469B18233319780023002901D10CE0C2
:103DCC00010018001B4C013322544A46521823326E
:103DDC001078DBB20A000028F2D1029B01204B4480
:103DEC001900039C4300E35A002B08D0114DCA79EB
:103DFC00AC466244013A1278DB089A4213D0013087
:103E0C000728EFD1002013B0F0BCBB46B246A94640
:103E1C00A046F0BD029B01211A004A44D171054A0B
:103E2C00C0B21370EFE7C0B2EDE74246C0E7002224
:103E3C00BEE7C04600700020A00B0020140F00202D
:103E4C0008000020F0B54F464646D646C0B51F00C8
:103E5C00394B814684B018780E0015009846FFF750
:103E6C0009FF0400002F27D1344B9B19DA79012A62
:103E7C005DD0334B9B18013B1B789A4643461B780D
:103E8C00994521D10BF036FA2E4B32001968814638
:103E9C0011F094F92C4B4846196811F0AFF94846CB
:103EAC00FCF734F9322382B2494628000AF0F2FFBB
:103EBC0064200DF0C3F807E043461B78B34228D0CA
:103ECC00002292464B4528D02800FFF7A3FD200086
:103EDC00FFF7A0FD43461978514511D000230393F9
:103EEC00013B029301930333009322000B00280043
:103EFC0005F058FF04B0E0BCBA46B146A846F0BD88
:103F0C0020000BF01DF801210BF026F84346197820
:103F1C00E4E79A463C004B45D6D10BF0EBF90B4B42
:103F2C00320019683B00814611F048F9B2E743466C
:103F3C001B789A46A4E7C046A00A0020A00B0020DC
:103F4C000070002090000020880000208C000020D1
:103F5C005B4BF0B51C0045464E46DE46574640349A
:103F6C002200E0B59846574B060023CB23C201250F
:103F7C00196883B011609B886D42938021003223B5
:103F8C001122300000950AF04FFF4F4B0127994644
:103F9C003A004946200011F011F92000FCF7B6F860
:103FAC00013782B232232100300000950AF03CFF29
:103FBC00072FEDD1322303223000444900950AF03B
:103FCC0033FF434B1B78002B6AD0424B45469A4635
:103FDC00414B002499464035083F631C1A003F4969
:103FEC0028009B4611F0EAF82800FCF78FF83223E2
:103FFC0082B22900300000970AF016FF16236343A3
:10400C0098464246364B28009B5A05225900C9183F
:10401C00344B49009C46614411F024F932230522AB
:10402C002900300000970AF0FFFE322330000122F5
:10403C002D4900970AF0F8FE294B43441C00284BED
:10404C000C33984433004646984610E04946280005
:10405C0011F0B4F82800FCF759F8023482B232237C
:10406C002900404600970AF0DFFEB4420AD062886D
:10407C00002AEBD00723514613402800D20811F038
:10408C009DF8E7E7322302224046184900970AF0D0
:10409C00CBFE5B46DCB20E4B46461B78A3429CD84B
:1040AC0001235B42009301223000114933330AF0A3
:1040BC00BBFE03B0F0BCBB46B246A946A046F0BD61
:1040CC00A00B0020D0B70108E4B701089CC301087D
:1040DC0008000020FCB70108F8B70108ECB701088C
:1040EC00140F002014B00108E0B7010808B901084A
:1040FC004CE40108F0B54546DE4657464E4633497A
:10410C00E0B540310A00324B824631CB31C231CB63
:10411C0031C21B6883B0136001235B4200931B22E6
:10412C00333350460AF080FE2A4B1B78002B34D0D8
:10413C0001239946284B80279846284B3F029B46E3
:10414C004B46224E5D1E00246D00403601E00A2CC9
:10415C001BD022003900434611415B5B01341942EC
:10416C00F5D023004A465946300011F027F83000AC
:10417C00FBF7CCFF01235B4282B200933100504627
:10418C0033330AF051FE0A2CE3D14B460133DBB238
:10419C009946104B1B784B45D2D20C49104B4031F1
:1041AC000A0031CB31C231CB31C211CB11C2012348
:1041BC005B4200931F22504633330AF035FE03B0A6
:1041CC00F0BCBB46B246A946A046F0BDA00B0020F1
:1041DC0004B8010808000020F073002040B8010862
:1041EC0020B80108F0B5DE464E4645465746E0B5C8
:1041FC0085B002900BF07EF800230370954B040001
:10420C001A789A46944B95491D00403528009846DB
:10421C0010F0D4FF2900200010F0F0FF904B9149D2
:10422C001A7C280010F0CAFF2900200010F0E6FFCD
:10423C00052300228C4900932800033B10F0BEFF9D
:10424C002900200010F0DAFF884A8949280010F074
:10425C00B5FF2900200010F0D1FF864A86492800BE
:10426C0010F0ACFF2900200010F0C8FF2A00834B8F
:10427C0043CB43C2196820001160998801269180B4
:10428C009B792900937110F0B9FF7D4B9B467D4BB8
:10429C00994632005946280010F090FF2900200062
:1042AC0010F0ACFF6E4B1433F35C042B0BD84A4666
:1042BC009B00D3589F462A00734B83CB83C283CB7E
:1042CC0083C21B88138029002000013610F096FF52
:1042DC00072EDED12A006D4BA14643CB43C243CB04
:1042EC0043C22900200010F089FF694B01259B4631
:1042FC00684E19E0706A08F039F8674AAB0007009D
:10430C004446D05808F032F840342A003B00594655
:10431C000090200010F052FF01352100484610F0AB
:10432C006DFF3836072D11D03368002BE2D144468F
:10433C0040342A005949200010F040FF013521007B
:10434C00484610F05BFF3836072DEDD14846FBF799
:10435C00DDFE4C460500524B0222190020189946EE
:10436C0010F02EFDA81C1D224E49201810F028FD1F
:10437C004D4B80269B4640239C461E3503954B4F48
:10438C0000253602E04401E0062D15D02A0031004C
:10439C00534611411B780135013B5B00FB5A194216
:1043AC00F2D059462A00404610F008FF4146200042
:1043BC0010F024FF062DE9D12000FBF7A7FE6B4679
:1043CC0005009889A8423ED003224946601910F096
:1043DC00F7FC029B002B29D105B0F0BCBB46B246C2
:1043EC00A946A046F0BD2A00314B83CB83C26AE7B5
:1043FC002A00304B83CB83C203CB03C21B781370D0
:10440C0061E72B002C4A83CA83C383CA83C3116818
:10441C0019609188998092799A7154E7274B1A68A0
:10442C002A609A88AA809B79AB714CE72000FBF735
:10443C006DFE01235B4282B200932100029833335C
:10444C000AF0F2FCC8E7601905221D4910F0B8FC0F
:10445C000435B9E7A00A0020A00B002054B80108CD
:10446C00200C002070B801088CB80108ACB8010809
:10447C00B8B80108D0B80108DCB80108F8B80108D0
:10448C000CB9010868AF010840B901087CB90108F2
:10449C00B0B90108BC1C00203013002094B90108ED
:1044AC0008B90108E0B9010800BA0108F07300204E
:1044BC0034B901081CB901085CB9010814B9010828
:1044CC0008BA0108F0B5C64600B5037806006D2B96
:1044DC000AD14378652B07D18378002B04D1264B66
:1044EC00187880BCB846F0BD30002449FBF704FEB8
:1044FC00002837D033789846232B22D0204B1F78B6
:10450C00002F0FD000241F4D29003000FBF7F4FDC5
:10451C00002802D14346002B26D10134E4B20A35DF
:10452C00A742F1D10024144D383529003000FBF797
:10453C00E3FD00281AD001340A350A2CF5D1642089
:10454C00CFE7701C10F0A5F9C3B2002B03D00C4AB6
:10455C0012789A4204D2084A662012789A42C0D144
:10456C0018B2BEE7FF20BCE720B2BAE7FE20240257
:10457C00204300B2B5E7C046A00A002010BA0108DB
:10458C0008000020040E0020F0B5C6462A4C8046D8
:10459C0025000E0000B5103521003000FBF7ACFDF6
:1045AC0000283AD00434AC42F6D1244B1F78012FAA
:1045BC0010DD0125224C03E001350A34BD4209DA35
:1045CC0021003000FBF798FD0028F5D1072080BCB6
:1045DC00B846F0BD1B4D2C009C3538342100300002
:1045EC00FBF78AFD0028F1D00A34A542F6D1164F0C
:1045FC00164CFC6103E06468FC61002C0FD023684E
:10460C001D682800FBF782FD29000200300010F025
:10461C0018FE0028EFD10820D9E70620D7E743463B
:10462C0098000B4F404440003100C01910F001FEBF
:10463C00FFF7A4F8CBE7C046C4AF01080800002080
:10464C000E0E0020A00A0020200C0020B800002034
:10465C00040E0020F0B54F464646D6463C4BC0B53E
:10466C001F00383780460E0099463D000024290073
:10467C003000FBF741FD002851D001340A350A2CDB
:10468C00F5D1344C2500103521003000FBF734FDFA
:10469C0000284ED00434A542F6D12F4B1B789A46F5
:1046AC00012B12DD01252D4C03E001350A34AA45FE
:1046BC000BDD21003000FBF71FFD0028F5D1072092
:1046CC00E0BCBA46B146A846F0BD254B254C9A46EF
:1046DC001C6204E0534664681C62002C0DD02368F5
:1046EC001D682800FBF712FD29000200300010F0B5
:1046FC00A8FD0028EED10820E2E73B78002B1AD069
:10470C0001340A370A2CF8D18023DB004746013FDD
:10471C007F004F44BA8800201343BB80D0E70122AE
:10472C004746A240013F7F004F44BB881343BB80E8
:10473C00C6E70620C4E74B46A000001938334000FA
:10474C001818310010F075FD0123A3401BB2DDE7F2
:10475C00A00A0020C4AF0108080000200E0E0020A3
:10476C00200C0020B8000020F8B5DE4657464E4617
:10477C004546E0B5254B9A461B789B46002B3ED010
:10478C0000239B46224B01249846224B994614E069
:10479C0000221321200005F0DFFA32200AF092F9F2
:1047AC0024231D4AD35C002B01D002239B46534685
:1047BC0001341B78E4B2A34221D343461B78A342B5
:1047CC00E6D1802700253F026E1CF0B20AF0B8FB40
:1047DC00436BBB420AD1390043464A4629411B78F8
:1047EC00013B5B009A5A0A4349465A523500062E41
:1047FC00EAD1534601341B78E4B2A342DDD25846C9
:10480C00F0BCBB46B246A946A046F8BD0800002045
:10481C00A00A0020F0730020200C0020F8B58025A1
:10482C000022104F104E2D0207E00AF089FB0021E8
:10483C000AF092FB2200062C11D02900114133788A
:10484C00541C013B5B00FB5AE0B21942EDD00AF05C
:10485C0077FB01210AF080FB2200062CEDD1002011
:10486C00F8BDC046F0730020A00A002070B509F016
:10487C00E1FF0AF081F803F079FA09F039FD08F04C
:10488C009FFC0AF0ABF809F0F3FC0AF0D9F809F038
:10489C00DDFD00285CD1FFF76FF8002827D132200E
:1048AC000AF010F907F02EFEFEF72EFFFFF7B6FF09
:1048BC0009F052F9802190202F4B01221B7809011D
:1048CC00C005002B2BD10DF0F1FFFA2040000AF0AF
:1048DC00F9F88021902000220901C0050DF0E6FFB7
:1048EC0003F0B8F825230121244AD15470BD0121CD
:1048FC002223234A3220D1540AF0E4F807F002FEB6
:10490C00E121204D49020124A96000E0A9682000A2
:10491C000134E4B20AF002FB072CF7D1C4E70DF026
:10492C00C5FFFA2040000AF0CDF88021902000222B
:10493C000901C0050DF0BAFF64200AF0C3F880210C
:10494C0090200122C00509010DF0B0FF6420BEE7E4
:10495C000D4C0E4D2368AB4204D003F0B7F9002880
:10496C0000D12560BFF34F8F094B0A4ADA60BFF3C1
:10497C004F8FC046FDE7C046A00A0020200C002047
:10498C00200B0020EC6E0020F07F0020ADDEEFBE8F
:10499C0000ED00E00400FA0510B50CF031FB07F057
:1049AC0075FBFFF763FF03F05FFD0AF087FB10BD9B
:1049BC00F8B557464546DE464E46E0B57E4E0AAC47
:1049CC0020CC83463078277882462800441EA041AC
:1049DC003C0040013070601E844102206442204043
:1049EC0084462020802480462405C444A24227D239
:1049FC00724C04302254220024325370082B14D8E9
:104A0C006F4A9B00D3589F460B682434A3710B68E4
:104A1C001B12E3710B681B1423720B681B160A2202
:104A2C0061465846637205F097F95346002033707F
:104A3C00002D22D1F0BCBB46B246A946A046F8BD1B
:104A4C00242080460020814640464F465B4CA044C3
:104A5C00275440464370100E814640464F4687709F
:104A6C00100C814640464F4652BAC7702285082B1F
:104A7C00DBD8544A9B00D3589F460CF0D9FA242615
:104A8C000400514FB85D0028D4D00CF0D1FA001BB3
:104A9C00A842F7D3B85DCDE70B78243407226146E2
:104AAC005846A37105F058F9BFE70B78243403225C
:104ABC0020215846A37005F04FF9B6E70B88243433
:104ACC00A3700B881B0A042220215846E37005F0C2
:104ADC0043F9AAE70B782434A3704B780A22E370CD
:104AEC008B7858462371CB7863710B79A3714B7912
:104AFC00E3718B792372CB792021637205F02CF949
:104B0C0093E70B782434A3714B780E22E3718B78E6
:104B1C0058462372CB7863720B79A3724B79E3728C
:104B2C008B792373CB796146637305F015F97CE7B8
:104B3C000B682434A3700B681B12E3700B681B14F6
:104B4C0023710B681B16062220215846637105F051
:104B5C0003F96AE70B682434A3700B681B0AE37033
:104B6C000B681B0C23710B681B0EECE70B882434B1
:104B7C00A3700B881BB21B12A5E70B682434A3711E
:104B8C000B681B0AE3710B681B0C23720B681B0E62
:104B9C0045E70B882434A3710B881BB21B12082227
:104BAC0061465846E37105F0D7F83EE70B8824348C
:104BBC00A3710B881B0AF2E76C6E0020200B0020FF
:104BCC007CAF0108A0AF0108200C002030B50121FA
:104BDC0083B01E200FF064FE040009480949027DD1
:104BEC00058B837D013A0195407D92008A180090D7
:104BFC00126920002C3110F0E1FA200003B030BD16
:104C0C00EC6E0020C4AF010800B5084B0A001978FF
:104C1C00012385B00393023B02930193033300936A
:104C2C000B0005F0BFF805B000BDC046A00A00207F
:104C3C00002330B505000C0087B00022002104933E
:104C4C0003930293019300930020FEF7DBFD691E92
:104C5C00CB005B1A114ADB009B58611E002B12D053
:104C6C00CB005B1ADB009B582800002B04D102F010
:104C7C0049FE002007B030BD02F044FE200002F0D7
:104C8C0041FE0020F6E7CB005B1ADB009B58002BA3
:104C9C0001D02000EBE76820ECE7C046BC1C0020EC
:104CAC00F8B5CE46474680B5264E274D337880461C
:104CBC00013B9C00E418A4002C19E3689946002BD6
:104CCC002FD01800FBF722FA07004046FBF71EFA1C
:104CDC0039180231484610F0AFF83278E060013AEA
:104CEC0093009B189B00EB18D8687A1C80184146DF
:104CFC0010F09FFA3278013A93009B1813229B0014
:104D0C00EB18DB68DA553378013B9800C01880004B
:104D1C002818C368002B0ED00020C0BCB946B04682
:104D2C00F8BDFBF7F3F901300FF014FE4146E060DB
:104D3C0010F07FFAF0E71422002110F04AF80E2050
:104D4C00EBE7C04688110020086F0020F0B55746ED
:104D5C004E46DE464546E0B5CD4E040037788BB066
:104D6C00052F6AD0BB00CB4DD81980009A462B1862
:104D7C00994600234A460230138000210422281849
:104D8C0010F027F82378622B02D1A3782E2B57D062
:104D9C00331D98461800210010F04BFABE4F4046C8
:104DAC00390011F0BDF839000400002011F0B8F8FA
:104DBC0039008046002011F0B3F80700002C39D0E0
:104DCC002000FEF73DFE814600282ED14346002BE5
:104DDC0030D0002F2ED03800FEF732FE002862D0E3
:104DEC0004223778BC00E3199B00EA544A46EB18BE
:104DFC00DA70D8714046FEF72FFE3278E419930032
:104E0C00A4009B182C199B006070ED186B78002B7C
:104E1C0010D0002398460132327040460BB0F0BCE3
:104E2C00BB46B246A946A046F0BD4346002BD0D1A6
:104E3C00002F70D067239846EFE70E239846ECE7D7
:104E4C006378303BDBB29B46002398465B46062BCF
:104E5C00E3D84946012358460B80E31C887007228F
:104E6C0018008E49079310F0ECF9002835D00E226B
:104E7C008B49079810F0E5F9002859D106234A46CA
:104E8C00D3705B46DA00874B5A449B180222110000
:104E9C001B7A194088461A4200D183E000239846B9
:104EAC0001373770B9E73278380093009B1803222A
:104EBC009B00EA544A46EB18DA700FF0DFFCFEF761
:104ECC0033F837780990BC00E019800006300422D2
:104EDC00281809A90FF074FF8CE705234946CB70FD
:104EEC005946704BCA005A4401219B1801221B7A67
:104EFC00194088461A42D1D101230491059303919C
:104F0C00029101910091002300220121584603F0E7
:104F1C00E9FC3778C4E70221327893009B189B0098
:104F2C00E954ED18002301329846E870327074E7AA
:104F3C000C225D49079810F084F9002813D15B46C8
:104F4C00DA00584B5A449B189A789046002A38D06D
:104F5C00DA789046002A51D01B799846002B7DD0E8
:104F6C000C2398469CE70D225049079810F069F9DC
:104F7C00002895D15B464B4AD900CB18D3185879E9
:104F8C008046002852D09B799846002B00D18FE0A8
:104F9C0059445218D3799846002B00D1A7E00D2321
:104FAC0098467DE7012304910593039102910191A9
:104FBC000091002300215846013A03F093FC377806
:104FCC006EE709234A462000D3700F300FF05BFCCC
:104FDC003178C3B28A0052189200AD1801222B719D
:104FEC000592424604920392029201920092002290
:104FFC000021584603F076FC377851E70A234A46DD
:10500C002000D3700F300FF03EFC3278C0B293000A
:10501C009B189B00ED1801232871059343460090C3
:10502C0004930393029301930023E0E70C234A4675
:10503C002000D37010300FF026FC3278C0B29300F1
:10504C009B189B00ED180123287105934346029091
:10505C0004930393019300930023C8E73B000B22B6
:10506C00200053449B00EB18DA700F300FF00BFC50
:10507C003278C0B293009B189B00ED180123287165
:10508C000593002301900493039302930093AEE7DE
:10509C0088110020086F002010B90108D0C3010846
:1050AC005CBC0108241900206CBC01087CBC010804
:1050BC001433200099465F43073BEF19FB70103007
:1050CC000FF0E1FB4A46337800215343ED180123DE
:1050DC00C0B228710A00059303900B005846049146
:1050EC0002910191009103F0FDFB3778D8E614335F
:1050FC00200099465F43063BEF19FB7010300FF010
:10510C00C2FB4A463378C0B25343ED1801232871D1
:10511C000593434603930293019300930023049059
:10512C001A001900584603F0DDFB3778B8E6C04684
:10513C00F0B54E46DE4657464546E0B51E00002308
:10514C008BB003908A4615000021052208A807930E
:10515C000FF03FFED04BD14C99462B782A00032000
:10516C00002B0AD0E15C0140012901D12033DBB2D4
:10517C00137053780132002BF4D136274B46DB5D8C
:10518C009846002B62D006222800C54910F059F829
:10519C00002800D1BFE04346022B39D12800FFF78D
:1051AC007FFD002800D0D2E00D2333705346002B36
:1051BC0000D1A7E000239B463000FAF7A7FF01239C
:1051CC005B4282B2009331000398333309F02CFE1A
:1051DC003000FAF79BFF0021020030000FF0F9FDC0
:1051EC005B46002BB9D10922002107A80FF0F1FD75
:1051FC0036234A46D35C002B03D15346002B00D0F8
:10520C00B1E00BB0F0BCBB46B246A946A046F0BD1F
:10521C002E2128000FF0FFFF071E09D0C31E1A789D
:10522C00622A2BD15A786F2A28D19B78732B25D1DF
:10523C00992231002800920009F0D8FF8346337878
:10524C00002BC5D05346002BC2D0B5E72B78692B69
:10525C00DED16B78662BDBD1202252429046AB78A4
:10526C009844202BD4D1E81CFFF770FD002865D1A1
:10527C0002234A46D3550B33337097E77B78874A22
:10528C00D35C5B07D4D429007A1B07A80FF0EAFF84
:10529C0007A8FFF717F9834B80461B7804939842B5
:1052AC006BD0642859D066286FD0FF2800D1ACE0B1
:1052BC00C3B20593FE2B00D116E17B1C062218000D
:1052CC0079499B460FF0BDFF002864D1059B774FB1
:1052DC009B46002219213870180004F03DFD642013
:1052EC0009F0F2FE724B59461A786E4B187800236F
:1052FC00FEF7A8FD3B78602B00D1B6E03378002B8D
:10530C0000D053E73000FAF701FF00210200300013
:10531C000FF05FFD67E74B461A78D855013A9300BA
:10532C009B18644A9B00D31801221A7406F006FFDE
:10533C004122300060490FF043FD37E75222300024
:10534C005E490FF03DFD4B464246DA552EE75222A0
:10535C0030005A490FF034FD28E727223000584915
:10536C000FF02EFD22E701235B42009338225549B2
:10537C000398333309F058FD43E799223100781C28
:10538C00920009F033FF834659E7252230004E493D
:10539C000FF016FD0AE72800FAF7B8FE07AB0490E9
:1053AC001800FAF7B3FE049A5946013A121A07008C
:1053BC0046480FF057FF2800FAF7A8FE421ED21BF2
:1053CC00172192B2059804F0C7FC424630004049C0
:1053DC000FF0F4FE3378002B0DD05346002B0AD07F
:1053EC003000FAF793FE012382B200933100039848
:1053FC00313309F019FD3000FAF788FE0021020064
:10540C0030000FF0E6FC294F74E71A2200213148D6
:10541C000FF0DFFC2800FAF779FE834607A8FAF7AD
:10542C0075FE5A4680460137013A3900121A274850
:10543C000FF018FF2800FAF769FE4346C31A9BB217
:10544C001722FF21049804F041FC992231009200AC
:10545C00380009F0CBFE83463000FAF757FE1D22C8
:10546C001D4930180FF0ACFCE9E6FA210120890047
:10547C000BF050FB194B1B78002B00D13EE7184A60
:10548C0030001388174901331380434632000FF064
:10549C0095FE337833E7C046881100201EEA0108D8
:1054AC00E0BC0108A00A0020C8BD01086C6E0020F9
:1054BC00300C0020086F0020E8BC01088CBC0108EF
:1054CC002CBD010814BE010854BD0108440B00207A
:1054DC00D0BD0108E80D00207CBD0108440C002063
:1054EC00D21B0020F4BD01080012C3B298464946F5
:1054FC00372340461A22C85400211D480FF069FC7E
:10550C002800FAF703FE07A905900800FAF7FEFD3C
:10551C00059A0137013A121A3900059015480FF017
:10552C00A1FE2800FAF7F2FD05991722431A9BB247
:10553C004146049804F0CAFB0F49104A0B784946BF
:10554C00013B5B009B5A37228A5C1341DB0706D474
:10555C00320030000A4907AB0FF030FE6FE699229B
:10556C0031003800920009F041FE8346F0E7C04656
:10557C00E80D0020440B0020A00A0020A40A002003
:10558C009CBD0108F0B5DE4657464E464546E0B593
:10559C0087B002AB9C460F2401210023644449428E
:1055AC00012023700BF0B6FA09F0A4FEE1235E4A49
:1055BC00039092681B039A4200D1B2E001255B4B29
:1055CC001E001B789D4205D0E1212800090309F03B
:1055DC00A5FC33780135EDB2072DF3D1544B554D65
:1055EC001A88317853009B18534A5B009B18534A16
:1055FC00383512782800009151490FF0DFFDA422B4
:10560C000A2350499200307809F044FC2800FAF73C
:10561C007DFD0A2382B22900307809F03BFC00237F
:10562C009A46494BD1469B46484BB2469846534600
:10563C0018785B46451E5B5DBF2B1BD86A00511961
:10564C008901414494464E1C07E0BF2B03D13278AC
:10565C00002A5CD1BE3B01339BB2CA5C1F00002AFE
:10566C00F3D0227062460021521992014244D15566
:10567C005A4653550A230122210009F00BFC2378CA
:10568C000D2B16D00A2B11D0082B32D07F2B30D0FB
:10569C001A00203A5E2A09D84A46312A06DC4D46C1
:1056AC002B4A01354A4413756BB2994609F06CFFCD
:1056BC00BDE753460222187826490A2309F0EAFB73
:1056CC004B46002B26D05346214D18781435039B9E
:1056DC002A000121FFF72CFD1648290060300FF03D
:1056EC00A8FD3222002128000FF073FB00239946FD
:1056FC00DCE74B46002BD9D04D46013D6AB29146B2
:10570C00134AEBB29446002263441A75CEE7012784
:10571C000123A6E707490E48603114300FF089FDCC
:10572C00D1E7024B1E0059E7EC6E0020300C002034
:10573C00300000208811002014B00108A00A0020BD
:10574C0050BE01087CBE01085413002094130020A5
:10575C0008120020C4E70108F8B51A4B0D001A789E
:10576C00013A93009B18184A9B00D318DB68002B56
:10577C0026D0164FBC6C002C14D02378002B0ED0E6
:10578C00132120000FF047FD061E0ED0021B210036
:10579C0028000FF067FD01200136BE64F8BD002023
:1057AC00BB64FBE70400B864E7E7210028000FF0B6
:1057BC0040FD2800FAF7AAFC2418BC640120EDE790
:1057CC000020EBE788110020086F00200812002051
:1057DC00830030B518182E498000435C83B0012B30
:1057EC0020D0032B1BD10C18E2780630013A530061
:1057FC009B18284A9B009B584118042201A81D683D
:10580C000FF0DEFA6378062B09D8234A9B00D35895
:10581C009F460198291CFAF76FFE002814D100202E
:10582C0003B030BD08188278C078D3009B181B4A8F
:10583C009B5C181A43425841C0B2F1E70198291CED
:10584C00FAF740FE0028EAD10021281CFAF73AFEAC
:10585C0043425841E4E70198291CFAF733FE431EF2
:10586C009841DDE70198291CFAF732FE431E984156
:10587C00D6E70198291CFAF735FE431E9841CFE76D
:10588C000198291CFAF742FE0028C8D0DCE7C04674
:10589C00086F002094000020ACB0010824190020EF
:1058AC00F8B5DE464E4645465746E0B509F022FDB2
:1058BC00234B060098461B78002B39D0214B224FE6
:1058CC009B4620239A46214B00249946204D4C3769
:1058DC0006E0434601341B78A4B21435A34227D901
:1058EC002B7C002BF5D0E0B2FFF772FF0028F0D034
:1058FC005B4652461A700EE04B463A00002118786F
:10590C003300FFF715FC3000FAF700FC0021020011
:10591C0030000FF05EFA3900E868FFF71DFF002831
:10592C00EAD1434601341B78A4B21435A342D7D82C
:10593C000020F0BCBB46B246A946A046F8BDC04606
:10594C00881100206C6E002008120020300C002002
:10595C00086F002000207047002370B582B004004F
:10596C0015000093019300282FD06A4601212800CE
:10597C0009F0C4FC0023C356702B0CD001AA0221E1
:10598C00280009F0BBFC0EF084FF13222000104904
:10599C000FF016FA16E001300EF07BFF01AA06009C
:1059AC000221280009F0AAFC0EF073FF0500F0B2EA
:1059BC00290009F0B3FAFF232A00200005493340DF
:1059CC000FF0FCFB002002B070BD72B6FEE7C046C3
:1059DC0038C1010810C10108002310B582B0041EA3
:1059EC000093019313D0684601A903F0BFF86946F0
:1059FC0020000FF01EFC0198FDF74EFA02000B0080
:105A0C00200004490FF0DAFB002002B010BD72B682
:105A1C00FEE7C0464CC10108002310B582B0041E3D
:105A2C000093019313D0684601A903F09FF86946CF
:105A3C0020000FF0FEFB0098FDF72EFA02000B0081
:105A4C00200004490FF0BAFB002002B010BD72B662
:105A5C00FEE7C04674C101080023F0B585B0019380
:105A6C0002930023040016000393002817D0012191
:105A7C00300001AA09F042FC05000221300002AA04
:105A8C0009F03CFC2B780600323B012B09D915227E
:105A9C0020001A490FF094F9002005B0F0BD72B641
:105AAC00FEE728000EF0F5FE154FC5B239003000A8
:105ABC00FAF722FB002805D030001249FAF71CFB3C
:105ACC00002815D13900280003F02EFA03AA39005A
