:020000040800F2
:100000000080002011E200089DE200088DD7000862
:1000100000000000000000000000000000000000E0
:1000200000000000000000000000000089E7000858
:10003000000000000000000041E8000881D700082F
:100040009DE200089DE200089DE200089DE2000894
:100050009DE200089DE200089DE200089DE2000884
:100060009DE20008DDD70008E9D7000829D800087C
:100070009DE200089DE200089DE200089DE2000864
:1000800061D900089DE200089DE200089DE2000899
:100090009DE200089DE200089DE200089DE2000844
:1000A0009DE200089DE200089DE2000891D700084B
:0C00B000A1D70008B1D700089DE20008AD
:1000BC0010B5064C2378002B07D1054B002B02D032
:1000CC00044800E000BF0123237010BD8002002013
:1000DC000000000074710108044B10B5002B03D014
:1000EC000349044800E000BF10BDC04600000000FA
:1000FC00840200207471010802780B78002A03D066
:10010C00013001319A42F7D0D01A70470023C25CFB
:10011C000133002AFBD1581E7047000002B471460F
:10012C0049084900095C49008E4402BC7047C0462E
:10013C0003B47146490840004900095E49008E44E9
:10014C0003BC7047002243088B4274D303098B42D3
:10015C005FD3030A8B4244D3030B8B4228D3030C8B
:10016C008B420DD3FF22090212BA030C8B4202D32D
:10017C001212090265D0030B8B4219D300E0090A55
:10018C00C30B8B4201D3CB03C01A5241830B8B425E
:10019C0001D38B03C01A5241430B8B4201D34B0347
:1001AC00C01A5241030B8B4201D30B03C01A5241AC
:1001BC00C30A8B4201D3CB02C01A5241830A8B4231
:1001CC0001D38B02C01A5241430A8B4201D34B021A
:1001DC00C01A5241030A8B4201D30B02C01A52417E
:1001EC00CDD2C3098B4201D3CB01C01A5241830932
:1001FC008B4201D38B01C01A524143098B4201D36C
:10020C004B01C01A524103098B4201D30B01C01A96
:10021C005241C3088B4201D3CB00C01A5241830810
:10022C008B4201D38B00C01A524143088B4201D33D
:10023C004B00C01A5241411A00D20146524110469D
:10024C007047FFE701B5002000F0F0F802BDC04692
:10025C000029F7D076E7704703460B437FD4002282
:10026C0043088B4274D303098B425FD3030A8B423E
:10027C0044D3030B8B4228D3030C8B420DD3FF22A8
:10028C00090212BA030C8B4202D31212090265D076
:10029C00030B8B4219D300E0090AC30B8B4201D329
:1002AC00CB03C01A5241830B8B4201D38B03C01A70
:1002BC005241430B8B4201D34B03C01A5241030BE7
:1002CC008B4201D30B03C01A5241C30A8B4201D398
:1002DC00CB02C01A5241830A8B4201D38B02C01A43
:1002EC005241430A8B4201D34B02C01A5241030ABA
:1002FC008B4201D30B02C01A5241CDD2C3098B429F
:10030C0001D3CB01C01A524183098B4201D38B011B
:10031C00C01A524143098B4201D34B01C01A5241BE
:10032C0003098B4201D30B01C01A5241C3088B4203
:10033C0001D3CB00C01A524183088B4201D38B00EE
:10034C00C01A524143088B4201D34B00C01A524190
:10035C00411A00D201465241104670475DE0CA0F67
:10036C0000D04942031000D34042534000229C4627
:10037C0003098B422DD3030A8B4212D3FC22890131
:10038C0012BA030A8B420CD3890192118B4208D307
:10039C00890192118B4204D389013AD0921100E069
:1003AC008909C3098B4201D3CB01C01A524183097D
:1003BC008B4201D38B01C01A524143098B4201D3AA
:1003CC004B01C01A524103098B4201D30B01C01AD5
:1003DC005241C3088B4201D3CB00C01A524183084F
:1003EC008B4201D38B00C01A5241D9D243088B42A5
:1003FC0001D34B00C01A5241411A00D20146634648
:10040C0052415B10104601D34042002B00D54942AB
:10041C00704763465B1000D3404201B5002000F0EA
:10042C0005F802BD0029F8D016E770477047C046A2
:10043C008446101C62468C46191C634600E0C0467C
:10044C001FB501F025FD002801D40021C8421FBDB5
:10045C0010B501F06FFC4042013010BD10B501F039
:10046C0017FD002801DB002010BD012010BDC04687
:10047C0010B501F00DFD002801DD002010BD01209C
:10048C0010BDC04610B501F091FC002801DC002025
:10049C0010BD012010BDC04610B501F087FC00282E
:1004AC0001DA002010BD012010BDC0468446081C96
:1004BC006146FFE71FB500F063FA002801D4002164
:1004CC00C8421FBD10B500F0E7F94042013010BD25
:1004DC0010B500F055FA002801DB002010BD0120FA
:1004EC0010BDC04610B500F04BFA002801DD00200D
:1004FC0010BD012010BDC04610B500F0F5F9002864
:10050C0001DC002010BD012010BDC04610B500F06C
:10051C00EBF9002801DA002010BD012010BDC04607
:10052C00F0B515042D0C0F0001002E00C6468446B4
:10053C000004140C000C090C46434D43604361430A
:10054C004019340C241800B5A54203D98020400270
:10055C0080464144250C6D18614659437A4330045A
:10056C0049192404000C2018891880BCB846F0BD29
:10057C009E2110B5C905041CFFF7C8FF002803D144
:10058C00201C00F029FD10BD9E21201CC90500F087
:10059C005BFB00F021FD80231B069C466044F2E7C8
:1005AC0070B500220C4B04000D00FFF775FF0028FE
:1005BC0004D12000290002F0D9FA70BD064B0022AC
:1005CC002000290001F040FF02F0D0FA80231B0626
:1005DC009C466044F1E7C0460000E04170B5050060
:1005EC000C000022002328002100FFF737FF002811
:1005FC0008D12800210000F00FF802000B001000B9
:10060C00190070BD80231B06E118280000F004F8C7
:10061C00002342428B41F2E770B500220B4B0D00D8
:10062C00040001F0A5FCFFF7BBFF060002F004FB81
:10063C000022074B01F09CFC02000B00200029005B
:10064C0001F002FFFFF7ACFF310070BD0000F03D80
:10065C000000F04170B50600080002F0BDFA00225F
:10066C00064B01F085FC0D000400300002F0E4FAAA
:10067C002B00220000F00CFD70BDC0460000F041C4
:10068C00F0B54F464646D6464502C0B547000C1C51
:10069C006D0A3F0EC60F002F66D0FF2F6CD00023C3
:1006AC00EA00802599469A46ED0415437F3F600287
:1006BC006100430A9846090EE40F002948D0FF292F
:1006CC0010D08022D800D2040243904600207F39FB
:1006DC004A4633007F1A02436C4992008A586340A1
:1006EC00DBB29746002B6DD10220FF3F33E0002395
:1006FC0098462600454682465346022B00D17FE0A1
:10070C00032B00D194E0012B17D038007F30002848
:10071C005FDD6B0704D00F232B40042B00D0043576
:10072C002B0103D538005A4B80301D40FE2867DC66
:10073C00AD016D0AC0B202E01E0000200025C0050C
:10074C002843F6073043E0BCBA46B146A846F0BD94
:10075C00002B2BD101204A4633004E490243920014
:10076C008A586340DBB29746002D13D10423994677
:10077C00033B00279A469AE7002D05D1082399469A
:10078C00063BFF279A4692E70C239946093BFF2725
:10079C009A468CE7280002F045FB7627431F9D40C4
:1007AC0000237F4299469A463F1A80E7180002F0D0
:1007BC0039FB4246431F76219A404942091A90461A
:1007CC00002085E7FF21032082E71E00FF20002583
:1007DC00B5E701231B1A1B2BAFDC9E372900BD404C
:1007EC00D9406A1E95410D436B0704D00F232B4053
:1007FC00042B00D004356B0144D5012000259EE765
:10080C00FF2000259BE780250026FF20ED0396E7BF
:10081C00002398468020C003054209D0434603427A
:10082C0006D1454605436D022600FF206D0A86E77A
:10083C008020C00305436D02FF206D0A7FE741460F
:10084C006A014801824219D21B210025013F012671
:10085C0014006D005200002C01DB904201D8121ADA
:10086C00354301390029F3D1501E824138007F30C5
:10087C001E001543002800DD4BE7AAE71A210125CD
:10088C00121AE4E7AD0100206D0A58E7A0710108C7
:10089C00FFFFFFF7E071010870B542004E024C00FB
:1008AC0045026D0A120EC30F760A240EC90FFF2AD9
:1008BC000FD0FF2C11D00120A24200D070BDB54248
:1008CC00FCD18B420DD0002AF8D12800451EA8413E
:1008DC00F4E70120002DF1D1EBE70120002EEDD142
:1008EC00E9E70020EAE7C046F0B5420046024D02B7
:1008FC004C00C30F760A120E6D0A240EC80FFF2A85
:10090C001FD0FF2C10D0002A1FD171427141002C36
:10091C0001D1002D1ED000290ED183421ED0022100
:10092C00581E08400138F0BD002D26D1002AF4D104
:10093C00714271410029F0D00028F4D101204042CD
:10094C00F1E7002E19D1FF2CEED0002CE5D1002DB3
:10095C00E3D1E4E70020002EE5D0E0E7A24205DC7D
:10096C00EADBAE4202D8E7D30020DCE7414241414A
:10097C004842022108400138D5E702204042D2E724
:10098C00F0B5420046024D024C00C30F760A120E1F
:10099C006D0A240EC80FFF2A0DD0FF2C0FD0002A91
:1009AC0023D171427141002C0FD1002D0DD10020AB
:1009BC00002E14D00DE0002E10D1FF2C15D1002DDF
:1009CC000CD1002A03D171427141002908D1834214
:1009DC0010D00221581E0840013800E00220F0BD62
:1009EC000028FCD101204042F9E7002CEFD1002D6A
:1009FC00EDD1EEE7A24205DCF2DBAE4202D8EFD33A
:100A0C000020ECE7414241414842022108400138B4
:100A1C00E5E7C046F8B557464E464546DE46440225
:100A2C00E0B545000F1C640A2D0EC60F002D47D0F3
:100A3C00FF2D4DD0002380209A469B46E400C00435
:100A4C0004437F3D7802430A99467A00FB0F98468F
:100A5C00120E4B4644D0FF2A11D0D8008023DB0461
:100A6C000343994600207F3AAD18474653467740DA
:100A7C00691C0F2B3FD8724A9B00D3589F46FF35F9
:100A8C00002B00D079E0524602231A4392460220F2
:100A9C00EBE747464C4683465B46022B28D0032B9C
:100AAC0000D1C6E0012B4FD100200024C005FF0768
:100ABC0020433843F0BCBB46B246A946A046F8BD1D
:100ACC00002C71D104239A46033B00259B46B9E7C1
:100ADC00002C63D108239A46063BFF259B46B1E7C1
:100AEC00002B50D1524601331A4392460120BCE7E9
:100AFC00FF200024DAE74846260C2404220C0404C8
:100B0C00240C4B4620001B0C504374435A435E4349
:100B1C001219030C9B189C4203D980225202944652
:100B2C00664400041A04000C12189401601E8441DF
:100B3C001B0C920E9B1914439B011C431B0172D579
:100B4C000120630804401C4308007F3000283CDD72
:100B5C00630704D00F232340042B00D0043423015B
:100B6C0003D580310800374B1C40FE28C0DCA401A3
:100B7C00640AC0B29AE737008EE7524603231A4341
:100B8C009246032071E7484602F04CF94A46431F4F
:100B9C009A402D1A91460020763D66E70C239A4622
:100BAC00093BFF259B464DE7200002F03BF97625DB
:100BBC00431F9C4000236D429A469B462D1A41E7E9
:100BCC0080240027FF20E40370E701231B1A1B2B52
:100BDC0000DD69E79E3120008C40D840631E9C41AB
:100BEC000443630704D00F232340042B00D00434A8
:100BFC0063011AD50120002458E78020C003044269
:100C0C0009D04B46034206D14C4604436402474686
:100C1C00FF20640A4AE78020C003044364023700C3
:100C2C00FF20640A42E729008EE7A4010020640A31
:100C3C003CE78020C00304436402FF20640A35E7CC
:100C4C0020720108FFFFFFF7F0B54646D6464F4627
:100C5C0043025B0ADA0094464A02C0B54400560AC5
:100C6C00051CB046240E4E0092091F00200092462F
:100C7C00ED0F360EC90FFF2E00D17FE0012251403F
:100C8C008D4251D0A21B9146002A00DC7EE0002E42
:100C9C0000D199E0FF2C00D18CE080235246DB047C
:100CAC001A4392464A4601231B2A08DC534620214C
:100CBC00D340891A52468A40511E8A4113436246D8
:100CCC00D31A5A0100D4F3E09B019E09300002F0C4
:100CDC00A9F805388640844200DDF7E03200041B99
:100CEC0020200134E240041BA64033005E1EB341B9
:100CFC00002413435A0704D00F221A40042A00D0B0
:100D0C0004335A0100D4D6E0621CFE2C00D1DAE088
:100D1C009B015F0AD0B2C0053843ED072843E0BC05
:100D2C00BA46B146A846F0BDA21B9146002A63DD27
:100D3C00002E00D199E0FF2C3CD080235246DB04DE
:100D4C001A4392464A4601231B2A08DC53462021AB
:100D5C00D340891A52468A40511E8A411343634438
:100D6C005A0100D4A4E00134FF2C00D1ABE00122E5
:100D7C0097491A405B080B401343BBE7002A32D05B
:100D8C008D4235D0FF2252429146A1444A46002A58
:100D9C0051D0301B002C00D09CE06346002B00D1BE
:100DAC00DFE00138002800D1F7E0FF2E00D099E0F9
:100DBC000D004346002B00D185E08027FF031F4325
:100DCC007F02FF207F0AA6E75246002A74D0012238
:100DDC0052429046C1444A46002A00D1C8E0FF2C3A
:100DEC0000D05FE7E6E701225140A94200D049E775
:100DFC00FF2252429146A1444A46002A43D0311B5D
:100E0C00002C00D18CE0FF2E00D192E080236246B2
:100E1C00DB041A43944601231B2909DC202063467A
:100E2C006246CB40411A8A401100481E81410B4357
:100E3C003400534494E7FE22661C324264D1002CE9
:100E4C0000D082E06346002B00D1ABE05346002B70
:100E5C0000D160E7634652469B1A5A0100D4AAE0BF
:100E6C00634652460D00D31A44E75246002A23D05B
:100E7C00012252429046C1444A46002A75D0FF2CAA
:100E8C0000D05FE796E7FE260134264253D10028B6
:100E9C0072D16346002B00D193E05346002B00D156
:100EAC0039E7634400245A0102D54A4A01341340FD
:100EBC005A0700D020E7DB08FF2C00D17AE75B0251
:100ECC005F0AE0B227E7FF20002724E7414B241AF2
:100EDC0033400FE7FF2E00D16AE780236246DB0424
:100EEC001A43944601231B2809DC202463466246DE
:100EFC00C340201A82401000441EA04103435246B6
:100F0C000D003400D31ADCE6634652469E1A730178
:100F1C0017D4002E00D0D9E6002500200027FAE6D1
:100F2C006346002B44D0013900294CD0FF2E00D051
:100F3C0071E743463EE7FF2CC5D052466244530846
:100F4C00B6E763460D00D61AC0E66246002A16D1F3
:100F5C005346002B00D02BE780270025FF20FF03F2
:100F6C00D9E60D0043463400A6E753466344F7E642
:100F7C00634652469B1AA4E66246002AD9D05246D2
:100F8C00002A00D116E78022D203134200D111E7C8
:100F9C004046104200D00DE70AE752460D003400DF
:100FAC00D31A8EE65346002B08D00D004746B2E606
:100FBC004346340080E7002B00D079E7002500275A
:100FCC00A9E64746A7E6534634006344C8E6C04644
:100FDC00FFFFFF7DFFFFFFFB41024200C30F490AE9
:100FEC000020120E7E2A03D99D2A02D9094A98188C
:100FFC007047802000040143952A07DC9620821A52
:10100C00D1404842002BF3D10800F1E7963A9140C9
:10101C00F7E7C046FFFFFF7F70B5051E0ED001F04D
:10102C0001FF9E2304001B1A962B0CDC082801DD03
:10103C00083CA5406D026D0AD8B201E000200025E5
:10104C00C005284370BD992B09DD020029001B3215
:10105C0091404A1E91410522121AD5400D43052C90
:10106C0001DD621F95402900084E31406A0709D006
:10107C000F202840042805D004314A0102D59F23B3
:10108C0031401B1B89014D0AD8B2D9E7FFFFFFFB8A
:10109C00F0B54F46D64646460D0001001800C0B5C7
:1010AC0017002B035A0A4B0F1343CA009146020335
:1010BC006E004100520AEC0F7D0F1543760D490D61
:1010CC00C00F8246AC46FF00721A844200D198E0F1
:1010DC00002A00DC81E0002900D1B6E0C9498E422B
:1010EC0000D172E180212800090408438446382A83
:1010FC0000DD5EE11F2A00DDEEE1202039006546AF
:10110C00801A8740D14085400D4339004F1EB941AC
:10111C006746D7402943DB1B4A46551AA9458941E6
:10112C0049425B1A984643461B0200D4CCE0434626
:10113C005B025B0A98464346002B00D12CE14046EB
:10114C0001F070FE01000839202228004346521A93
:10115C008B40D0408D4003438E4200DD17E18E1B47
:10116C00721C1F2A00DDA7E1202118002E00891A0D
:10117C008D408840D640D340691E8D4130439846FF
:10118C00002605436B0709D00F232B40042B05D0F9
:10119C002B1DAB42AD416D42A8441D0043461B02C2
:1011AC0000D494E0974B721C9A4200D19DE04146CA
:1011BC00954BED0819400B00520549075B0229437A
:1011CC001B0B520D12051343E407234308001900AF
:1011DC00E0BCBA46B146A846F0BD002A43D08A1BF3
:1011EC00002E00D02AE14C461C4300D1D1E1541E04
:1011FC00012A00D11FE2834DAA4200D172E22200E3
:10120C0023E1002A00DC98E0002942D07D498E427F
:10121C0000D1DAE080212800090408438446382AEA
:10122C0000DD29E11F2A00DC87E111006546203929
:10123C00CD40202A04D040206146821A91400F43B1
:10124C0039004F1EB9410D431BE12900394300D130
:10125C00B5E0511E012A00D1ABE16A48824200D1AF
:10126C00B2E10A0043E76949751C0D4200D0CFE09A
:10127C00002E00D093E14946194300D1D1E16146DB
:10128C00394300D0E3E149465807C9080143DB085C
:10129C0026E02900394300D191E0511E012A05D0E6
:1012AC005848824200D18FE10A00B8E73D004D4416
:1012BC004D45894163449846494288444346022639
:1012CC001B0200D5EBE0013E6B0700D05CE7434608
:1012DC00E9085A0711433200DB084A48824221D000
:1012EC001B0352051B0B520D6CE70023002169E711
:1012FC002A003A4369D04A465807D108DA088023B5
:10130C001B0308431A4207D02900ED081D4203D1E4
:10131C002A00FF0848073843430FC1005B07C90880
:10132C00194313000A001A4300D113E2802212035E
:10133C0013431B03334A1B0B44E7002A4BD08A1B75
:10134C00002E00D1E7E02F48814200D195E18020AA
:10135C0000040343382A00DD43E11F2A00DDDBE1F2
:10136C0020201D004E46801A8540D64035434E46FF
:10137C0086403000D340461EB0419C440543ED19D5
:10138C00BD429B415B42634498460E007FE01E4A7F
:10139C00761A13409846F5E6280001F043FD01004B
:1013AC0018311F2900DCCFE62B00083883400025BC
:1013BC00D2E662463A4311004F1EB941ACE64946AB
:1013CC005807C9080143DB0887E749465A07C9088B
:1013DC001143DB08A6E70D49701C084200D0BBE0A6
:1013EC00002E00D014E14946194300D175E12900C3
:1013FC00394300D07EE149465807C9080143DB0850
:10140C006EE7C046FF070000FFFF7FFFFE070000EE
:10141C004946CD1B6146581AA9458941494288461F
:10142C0001004046091A8846090200D5A6E041464B
:10143C00294300D07FE60023002451E7C74CA1428A
:10144C0000D1C7E0802424042343382A54DC1F2A0B
:10145C0000DDCCE020244846A41A1D004E46A040D6
:10146C00D640A5400400D34062463543661EB441C5
:10147C00D31A9C46254344E062463A4315006F1E3E
:10148C00BD414D444D4589414942884698444346A7
:10149C001B0200D418E7B14B01369E4249D042469C
:1014AC00AF4B01211A4013006A080D401543D907B0
:1014BC005B0898460D4365E618001F3EF040202A55
:1014CC0003D040218A1A93401D43691E8D4100238D
:1014DC00002698460543F7E6110065462039CD40B5
:1014EC00202A04D040206146821A91400F433900D3
:1014FC004F1EB94129430FE64A4613431D006B1E8C
:10150C009D417D1BAF429B4162465B42D31A98467C
:10151C0054460E0007E64846184300D1B3E0501E6F
:10152C00012A00D10DE18D4DAA4200D1A5E00200A7
:10153C0010E732000023002144E620213800891AEC
:10154C0065468F408D40D040791E8F4105433D4309
:10155C006746D740DB1994E7804A904200D1ECE013
:10156C003900494449459241634452429B18DD0776
:10157C0049085B08984606000D43A5E64A46BD1A85
:10158C00AF42894162464942D31A5B1A9846544687
:10159C00D1E56C07F9082143EB0804009DE64A46A7
:1015AC001A4375D16146394314D1802300241B039F
:1015BC00BCE64A46D51BA9458941624649429B1A5D
:1015CC005B1A98460126AEE54A46D1085A071143E4
:1015DC00DB08A7E66346F9085A0754461143DB08B3
:1015EC00A0E64A4613431D006B1E9D41C7E614003E
:1015FC001E00203CE640202A05D04024A21A93402D
:10160C004A461A4391464D466B1E9D41354378E739
:10161C004A461A4300D06BE66B07F9081943EB08EE
:10162C0080E66146394354D06346F9085C07214390
:10163C00DB08040054E64A46BD1AAF4289416246B3
:10164C004942D31A5B1A9846040001266BE54A46B8
:10165C00D51BA9458941624649429A1A521A9046AD
:10166C00120232D54A46BD1AAF42894162464942FE
:10167C00D31A5B1A9846040084E56346F9085A07A6
:10168C001143DB084EE6F90868070143EB0824E632
:10169C0062463A4300D198E64A46D1085A071143AC
:1016AC00DA0880231B031A4208D06046C5081D4285
:1016BC0004D154462A00F908430719434B0FC900BB
:1016CC005B07C908194313002CE64146294300D097
:1016DC00FAE500230A00002402E66B07F908194317
:1016EC00EB08FDE56346F9085B0719436346040004
:1016FC00DB0817E63D004D4463444D45894198464F
:10170C004942884443461B0200D4DDE54246144B53
:10171C0001261A409046D7E510001E002038C6401E
:10172C00202A05D04020821A93404A461A439146FB
:10173C004D466B1E9D41354321E6020000230021DE
:10174C0040E54A46D519BD42894163449846494211
:10175C008844B3E50021014A0B0033E5FF07000084
:10176C00FFFF7FFFF0B557464E464546DE46E0B5D7
:10177C00814605000C03480092461F0085B0240BDF
:10178C00400DCE0F002859D0874B984200D198E0DD
:10179C006B0FE4001C4380231B0423439846834BAC
:1017AC00ED009B4600239946834400933C037B0049
:1017BC005046240B5B0DFF0F002B67D07A4A9342E7
:1017CC0018D07A49420F8C46E400594614438022C3
:1017DC0063441204CB1A14439B46C200002033000E
:1017EC007B409A464B460F2B00D9EFE070499B008B
:1017FC00CB589F466F4B52469C462243E344002AEB
:10180C0000D095E049460223194389460024022062
:10181C00E5E700230024002552461B052343D2078D
:10182C0013432800190005B0F0BCBB46B246A946CC
:10183C00A046F0BD002400255B4BEDE74B4623434F
:10184C00984600D189E0002C00D1E0E1200001F0A5
:10185C00E9FA010002000B391D235B1A49461000FE
:10186C00D940083884400B004D46234398468540A8
:10187C0051483C03831A9B460023994600937B00F6
:10188C005046240B5B0DFF0F002B97D15246224381
:10189C0055D0002C00D1CAE1200001F0C3FA02009F
:1018AC000B3A1D2301009B1A52460839DA408C4032
:1018BC00144352468A40414B58449B468344002073
:1018CC008DE74B462343984640D108239946063B67
:1018DC0000258346009369E7B246009B022BA9D0F2
:1018EC00032B00D111E2012B93D0354A5A44002A24
:1018FC0000DC3CE16B0700D0A7E1ED084346DB01BF
:10190C0006D542462F4B1A4090468022D2005A44AC
:10191C002D4B9A428EDC4346520558075C02054318
:10192C00240B530D78E7BA46A04615000090D4E777
:10193C004A4603231A439146032052464FE7494631
:10194C000123194389460024012048E70C239946BA
:10195C00093BA0468346009328E7042399460023BD
:10196C009B4601330025009320E7002380249A46F0
:10197C0000250D4B24034FE7802341461B031942DE
:10198C0008D01C4206D11C432403BA461500064B52
:10199C00240B41E78024434624031C432403B24612
:1019AC00014B240B38E7C046FF07000001FCFFFF8A
:1019BC006072010801F8FFFF0DFCFFFFF30300004C
:1019CC00FF030000FFFFFFFEFE070000444500D2AE
:1019DC0016E100D111E101235B429C462E004046EA
:1019EC000025E3442302140E1C431B0C99462304CC
:1019FC001F0C1202494600920197FEF729FC0200C7
:101A0C007A430B04310C804619438A420BD90123CB
:101A1C005B429C460919E0448C4204D88A4202D9A4
:101A2C00831E98460919881A4946FEF711FC0904C9
:101A3C008C4631046646019A090C4243030031433B
:101A4C008A4204D90919013B8C4200D811E1891A48
:101A5C004246009E12041A43330C1F00100C904691
:101A6C00029313043204160C32001B0C5A430396D7
:101A7C007B4346437843170CBC469B1963449E42F8
:101A8C0003D980267602B44660441E0C3018160426
:101A9C001B04360C9E19814200D29CE000D197E0C9
:101AAC00AE1B091AB54280414042081A844200D14B
:101ABC0011E14946FEF7CCFB019A0B044243310C71
:101ACC00050019438A4207D90919013D8C4203D8F4
:101ADC008A4201D9851E0919881A4946FEF7B8FBB6
:101AEC0009048C4631046646019A090C42430300F2
:101AFC0031438A4207D90919013B8C4203D88A42E7
:101B0C0001D9831E0919039E891A32002D041D4325
:101B1C00029F2B041B0C5A437B439C46280C4643C8
:101B2C00130CB444634478439E4203D98026760256
:101B3C00B44660441E0C12041B04120C30189B1883
:101B4C00814206D302D001231D43CEE6002B00D1E7
:101B5C00CBE661186E1EA14200D2A4E0814200D2F5
:101B6C00C9E000D1D9E03500EDE701256D42012136
:101B7C00891A382900DD4CE61F2900DC7FE01F2381
:101B8C005B429A1A4346D340202904D04446654A06
:101B9C005A44944025436A1E954107222B43150055
:101BAC0000241D401A4200D1A1E00F2200241A404B
:101BBC00042A00D198E01A1D9A429B415B42E4181A
:101BCC001300220200D48FE001230024002523E619
:101BDC00B54200D364E743465A1E009B9C466544BD
:101BEC001F009D429B415B421B19C9188C423AD283
:101BFC00884263D860D0904652E7AA4200D9EAE600
:101C0C004346DE0758086B081E43ED07EAE64846D4
:101C1C0001F008F901000200153120321C2900DC0A
:101C2C001AE64B46083883400025984620E601F01A
:101C3C00F9F803001A00153220301C2A00DC30E6BB
:101C4C005446083B00229C4035E60F232B40042BC6
:101C5C0000D152E605235B42AB429B4104355B420B
:101C6C00ED0898444AE68C42C5D1AF42C0D99046A3
:101C7C0016E78A4200D8EAE6831E0919E7E62A4AE3
:101C8C0028005A44434695409340C8406A1E9541EB
:101C9C00444603432B43CC405A0792D00F221A40A0
:101CAC00042A88D18DE73500814200D04BE7009A99
:101CBC00934200D047E718E6AE429CD902235B4220
:101CCC009C46009BE0449C4665449D429B415B4284
:101CDC001B19C918E4E6154A5A44002A00DC44E7EB
:101CEC0001230025984409E665076402240BDB08F0
:101CFC001D43002390E5009E023D7200B242BF419D
:101D0C007F423C1909190092CEE7802443462403F4
:101D1C001C432403064B240B7EE5009A9A42EAD31B
:101D2C003500C4E73E0400001E040000FF03000061
:101D3C00FF070000F0B54F464646D64694469146FE
:101D4C001A03120B184DC0B54C000F0392465A00E3
:101D5C00060080463F0B0120640DC90F520DDB0FAE
:101D6C00AC420AD0AA4203D0944201D157450DD0BF
:101D7C00E0BCBA46B146A846F0BD3D003543F7D1AC
:101D8C00A242F5D1524665462A43F1D10120C845FD
:101D9C00EED1994206D0002CEAD13E433000461ECB
:101DAC00B041E5E70020E3E7FF070000F0B54E4641
:101DBC0045465746DE4604001800E0B516001B03E6
:101DCC001B0B324D0F034A0099464300A446B04604
:101DDC003F0B520DC90F5B0DC00FAA4229D0AB426D
:101DEC0018D0002A2AD13C43A34665426541002BFA
:101DFC0002D14C46264327D0002D15D1814228D044
:101E0C000220013908400138F0BCBB46B246A94655
:101E1C00A046F0BD4D462E432FD1002AEED13C43B7
:101E2C0065426541002DE9D00028EDD101204042EA
:101E3C00EAE73D00254320D19342EBD0002BDDD1C6
:101E4C004C462643DAD1DBE75B460020002BDBD087
:101E5C00D6E79A420ADCE7DB4F45D1D810D00020F8
:101E6C004F45D1D20029E1D00800CDE7434258417B
:101E7C000223404218400138C6E702204042C3E723
:101E8C00C445BDD80020C445BED2EBE7FF07000017
:101E9C00F0B54E4645465746DE4604001800E0B500
:101EAC0016001B031B0B314D0F034A0099464300D0
:101EBC00A446B0463F0B520DC90F5B0DC00FAA4292
:101ECC0011D0AB4214D0002A2FD13C43A34665421B
:101EDC006541002B14D14C46264311D15B460020A2
:101EEC00002B17D010E03D00254312D193421CD19A
:101EFC004D462E430DD1002A04D13C436542654129
:101F0C00002D0DD1814216D0022001390840013834
:101F1C0000E00220F0BCBB46B246A946A046F0BD8C
:101F2C000028F7D101204042F4E7002BEAD14C46BF
:101F3C002643E7D1E8E79A4206DD434258410223A3
:101F4C00404218400138E5E79A42E9DB4F45DBD8BF
:101F5C0006D000204F45DDD20029E3D00800D9E798
:101F6C00C445D1D80020C445D4D2F5E7FF07000002
:101F7C00F0B557464E464546DE46E0B598460C034E
:101F8C004B000600924687B0240B5B0DCF0F002B45
:101F9C006CD0DD4A934200D186E0420FE40014433A
:101FAC00802212041443D94AC5009446634400931A
:101FBC00002399469B46434642461E03D20F5B00C4
:101FCC0050469046360B5B0D00D178E0CE4A9342DA
:101FDC001DD0CE49420F8C4600996344F6008C46C6
:101FEC00164380229C44120463461643C200002010
:101FFC0000930099434601318C4649467B4001933E
:10200C000F2900D97EE0C24B890059588F465246A1
:10201C00009B324300D056E1BB4900268C466344FA
:10202C00494600930223194389460220E1E74346BF
:10203C0001933400150083465B46022B5ED0032BC4
:10204C0000D1F3E1012B00D018E10022002400257F
:10205C00019B12052243DB071A432800110007B02D
:10206C00F0BCBB46B246A946A046F0BD25000543D0
:10207C0000D141E1002C00D1ADE1200000F0D2FEF6
:10208C00010002000B391D2310005B1A31003500D2
:10209C0008388440D94085400C439E48831A0093ED
:1020AC00002399469B4686E70500254300D01CE19A
:1020BC00082200930223002491469B467BE752465C
:1020CC00324300D10AE1002E00D176E1300000F05D
:1020DC00A9FE02000B3A1D2301009B1A5246083937
:1020EC00DA408E40164352468A40009B8949181AA2
:1020FC0003008C466344002000937AE700240025FB
:10210C00814AA5E72F0C2D042D0C2B00110C120469
:10211C00120C53439846130028007B4399464843BE
:10212C004844834640460B00000C824658467B438D
:10213C0050440293814506D99A4680235B02994606
:10214C00CA4453460293030C9B4643461B040004AB
:10215C001B0C9846030043440493330C99462B0004
:10216C003604360C7343984633007B439A464B46F1
:10217C005D435F4343465544180C4019824503D9CF
:10218C0080235B029A465744050CEB190593434692
:10219C001D042D0C00044019250C2404240C2700CC
:1021AC0057436A4390462A003B0C9A464A43614384
:1021BC00414451448344884503D980235B029846AB
:1021CC0042443F040B0C3F0C0904C91927009846E4
:1021DC004B4677435C436E435D433B0C9946A419D5
:1021EC004C4442440395A64204D980235B02984692
:1021FC0045440395029B3F045B441E00834280418F
:10220C0023049846059B3F0C4744984676188E420B
:10221C008941474440423D18A846934649428A4664
:10222C00C3449F42BF4180458041039BDA4498469A
:10223C00534640427F420743240C934592418A45C2
:10224C0089413F19DC0D049B75021D43681E8541B5
:10225C005346524249420A43BF184744F60D7F0287
:10226C0035435A023C431543FB0100D4C1E0012124
:10227C006A080D401543E20715436408264961447A
:10228C00002956DD6B0709D00F222A40042A05D0FD
:10229C002A1DAA42AD416D4264191500E30104D513
:1022AC0080211E4AC900144061441D4A914200DD40
:1022BC0024E76207ED08640249051543240B4A0D17
:1022CC00C6E60197B8E6104A0320944663444A4692
:1022DC00009303231A43914652468AE6494601234A
:1022EC00194389460026012083E60C220093032320
:1022FC00050091469B465EE6042399460023009315
:10230C00013300249B4656E6FF07000001FCFFFF4B
:10231C00A07201080DFCFFFFFF030000FFFFFFFE92
:10232C00FE070000002380240025444A0193240367
:10233C008EE60120401A382800DD86E61F285BDD7A
:10234C001F2223005242511ACB401900202803D0DF
:10235C003B4A6244944025436A1E95412A000A4335
:10236C0007210D000024154011425BD00F210024E1
:10237C001140042953D0111D914292415242A4188C
:10238C000A0023024BD501220024002560E680239D
:10239C001B031C4209D01E4207D133431C03434686
:1023AC001500240B254A019352E680221203144394
:1023BC002403224A240B01974AE600F033FD030064
:1023CC001A00153220301C2A00DC84E65646083BE5
:1023DC0000229E4089E600F025FD01000200153127
:1023EC0020321C2900DC4EE63400083800258440DD
:1023FC0053E6009B9C4641E71249220061442E00A3
:10240C008D408A40C640691E8D4132432A43C440E8
:10241C005307B6D00F2111400429ACD1B1E76507A1
:10242C006402240BD2081543002211E68022120309
:10243C0014432403014A240B0AE6C046FF0700009C
:10244C003E0400001E040000F8B557464E464546B3
:10245C00DE460400E0B51F0010000B03620F4E00B7
:10246C00CD0F5B0A39031343490AE200440F2143A1
:10247C00C24C91469246C0007A008046760D520DB1
:10248C00FF0FA24200D1B4E001246740BB46BD421D
:10249C0000D188E0B41AA446002C00DCB2E0002A7B
:1024AC0000D1C5E0B54A964200D18BE280221204DD
:1024BC0011436246382A00DDA1E11F2A00DD16E235
:1024CC0020270C00BF1ABC400200A0466446B8404E
:1024DC00E240444614430200501E82416046C14013
:1024EC0022435B1A49468C1AA145924152429B1ACF
:1024FC00984643461B0200D417E143465B025B0A35
:10250C0098464346002B00D16CE1404600F08AFC13
:10251C000200083A202120004346891A9340C84003
:10252C0094400343964200DD57E1961B711C1F2912
:10253C0000DDCBE1202218002600521A9440904076
:10254C00CE40CB40621E9441304398460026044353
:10255C00630709D00F232340042B05D0231DA3426E
:10256C00A4416442A0441C0043461B0200D4DFE09B
:10257C00824B01369E4200D1FBE04246804BE40880
:10258C001A401300710552075B0222431B0B490DC5
:10259C000905ED07194329431000F0BCBB46B246B0
:1025AC00A946A046F8BDB41AA446002C58DD002A52
:1025BC0000D19EE0714A964200D13BE18022120488
:1025CC0011436246382A00DDC1E01F2A00DCBBE162
:1025DC000C00203AD44022006446202C04D0402722
:1025EC003F1BB940084380464446611E8C4114434E
:1025FC00B1E00C0004432AD0BB46BD422DD0614C47
:10260C00A446B4446446002C5CD0941BA446002E13
:10261C0000D015E14D461D4300D1C3E1651E012CD0
:10262C0000D10CE2554EB44200D1F8E1AC460EE1BB
:10263C000A00024300D136E12200013A012C00D1FC
:10264C00C6E14E4CA44500D1F4E0944631E7012498
:10265C006740BB46BD4200D01CE74A4CA446B4447C
:10266C006446002C00D1CFE0941BA446002E00D170
:10267C005CE1424EB24200D1ECE180263604334399
:10268C006446382C00DDB3E11F2C00DD38E2202637
:10269C00361B1C00B4404F46A0466446E7404446F7
:1026AC003C434F46B7403E00771EBE41344366461E
:1026BC00F340C918241884429B415B42984616008B
:1026CC0088444EE0304A741C144200D0D6E04A468E
:1026DC001A43002E00D05BE1002A00D1A5E10A00CC
:1026EC00024300D0BBE14A465907D2080A43DB0833
:1026FC0027E00A00024300D174E12200013A012CC8
:10270C0005D01E4CA44500D194E0944659E74844AA
:10271C00484592415B189846040052429044434607
:10272C0002261B0200D5C4E0013E630700D011E76E
:10273C004346B4465907E2080A43DB080F498C4567
:10274C0040D061461B0349051B0B490D20E7014393
:10275C000C00611E8C414C444C45924152429046B7
:10276C00984443461B02E0D5044B01369E4200D0F0
:10277C009FE03100002300220AE7C046FF0700005B
:10278C00FFFF7FFF01F8FFFFFE070000002A00D1CA
:10279C0060E10A0002434DD04A465C07D20822434E
:1027AC008024DB082403234207D0CE08264204D120
:1027BC005D463300C20849070A43510FD200D208C4
:1027CC0049070A431100194300D1C8E180210903CC
:1027DC000B431B03D5491B0BDAE6D549B61A0B4044
:1027EC009846B5E6200000F01DFB020018321F2AA7
:1027FC0000DC8FE6230008388340002492E608436F
:10280C000200501E82416DE6CA4C721C224200D05E
:10281C00ADE04A461A43002EB8D1002A00D158E147
:10282C000A00024300D059E14A465907D2080A432C
:10283C00DB0886E74A465907D2080A43DB08C1E79A
:10284C00BA4DAA4200D11EE180252D042B436446CB
:10285C00382C5DDC1F2C00DDD0E0202567462D1BBD
:10286C004E461C00FE40AC4034434E46AE40350054
:10287C00FB406E1EB541C91A2C434EE04A46141A51
:10288C00A1459241524290465F1A3A004746D21BEC
:10289C009046120200D58BE04246224300D030E62F
:1028AC00002300254DE74A465907D2080A43DB08A6
:1028BC0044E742469E4B61081A4013000122144023
:1028CC000C43DA075B089846144341E61A001F3E96
:1028DC00F2401600202903D04022511A8B401C4391
:1028EC00621E944100233443984600261DE70C00D9
:1028FC00203AD44022006446202C04D040273F1BB1
:10290C00B940084380464446611E8C412243E9E5A8
:10291C004C4623431C00631E9C41041BA0429B415C
:10292C005B42CB1A98465D461600E2E54E461E43C6
:10293C0000D1AEE0661E012C00D1FDE07B4FBC4205
:10294C0000D107E1B4469BE664462022121B0C0022
:10295C00944007009040A0466446421E9041624657
:10296C00E7404446D1403C4304435B18F3E66F4CCC
:10297C00A24200D1D5E048445B1848458941494200
:10298C005B18DC0740085B08984616000443CCE64D
:10299C00002A00D082E00A00024340D180230025A7
:1029AC001B0313E74B07C2081A435D46CB08C5E669
:1029BC004A46841AA0429241CB1A52429B1A98461C
:1029CC005D469EE54A465907D2080A43DB08F9E6FC
:1029DC004A46141AA14592415B1A52429B1A9846D8
:1029EC00012686E54A465907D2080A43DB08A5E6C4
:1029FC004C4623431C00631E9C415BE665461E004F
:102A0C00203DEE40202C05D040252D1BAB404C46E4
:102A1C001C43A2465446631E9C4134437DE74B073E
:102A2C00C2081A435D46CB08CCE60A00024300D12B
:102A3C0036E74B07C2081A435D46CB0881E64A4687
:102A4C00841AA0429241CB1A52429B1A98465D4678
:102A5C0001264EE54B07C2081A43CB08B2E64A469C
:102A6C00141AA14592415F1A5242BA1A90461202A8
:102A7C006BD54A46841AA0429241CB1A52429B1AF9
:102A8C0098465D4664E54B07C2081A435D46CB0881
:102A9C0098E64B07C2081A43CB084FE60A000243DC
:102AAC0090D04A465C07D20814438022DB081203FC
:102ABC00134208D0CE08164205D1C0084907084376
:102ACC0004005D463300610FE2004907D2080A4357
:102ADC0078E64B07C2081A43CB0832E648445B1829
:102AEC0048459241984652429044434604001B028A
:102AFC0000D41AE642460E4B01261A40904614E6C4
:102B0C0066461F00203EF740202C05D04026361B81
:102B1C00B3404C461C43A2465446631E9C413C4366
:102B2C00C8E511000023002232E5C046FF07000073
:102B3C00FFFF7FFFFE0700004A46141884429241B3
:102B4C005B18984652429044E9E54246224300D134
:102B5C00A6E6EAE54B07C2081A43CB0832E6002288
:102B6C000149130014E5C046FF0700000A0030B508
:102B7C00134C530009030500090B00205B0DD20F09
:102B8C00A34204DD0F48834202DD0F4BD01830BD49
:102B9C008020400301430D48C01A1F2808DD0C4853
:102BAC00C31AD9400B005842002AF0D11800EEE7A6
:102BBC00084CC540A446634499400B002B43F2E7F4
:102BCC00FE0300001D040000FFFFFF7F3304000024
:102BDC0013040000EDFBFFFF70B5002816D0C317DF
:102BEC00C5185D40C40F280000F01CF9114A121AD8
:102BFC000A2816DC03002E0015339E400B23181AEE
:102C0C00C54053052D032D0B5B0D03E00024002361
:102C1C00002500261B052B43E40723433000190035
:102C2C0070BD0B38854053052D0300262D0B5B0D15
:102C3C00F0E7C0461E04000010B5041E10D000F0D2
:102C4C00F1F80F4B1B1A0A2811DC0B222100121A67
:102C5C00D14015300A035B058440120B5B0D01E07B
:102C6C00002300221B0513432000190010BD220075
:102C7C000B3882405B0512030024120B5B0DF1E74D
:102C8C001E04000070B543004602C40FFE201B0E4C
:102C9C00591C750A08420CD0E022920094466D072C
:102CAC00360B63441B053343E40723432800190008
:102CBC0070BD002B14D1002D1BD0280000F0B2F8F1
:102CCC000A281CDC0B232A001B1ADA4003001533DC
:102CDC009D400E4B12031B1A5B05160B5B0DE1E7B7
:102CEC00002D09D0320B80263603094B6D07164395
:102CFC00D8E700230026D5E70026054BD2E70300D2
:102D0C002A000B3B9A400025E3E7C04689030000EC
:102D1C00FF07000002004B00F0B508035B0D3D4EB1
:102D2C00CC0F400A510F5F1C0843D50037420AD024
:102D3C0039495E18FE2E16DDFF230021DB050B43FF
:102D4C00E0071843F0BD002B06D1284327D00521FE
:102D5C008901490ADBB2F1E70543EDD08021C903B3
:102D6C00FF230143EAE7002E1CDD920111004A1EED
:102D7C009141C0006D0F014329434B0748D00F23ED
:102D8C000B40042B00D004318023DB040B403FD0DC
:102D9C00721CFE2ED0D08901490AD3B2CEE7002393
:102DAC000021CBE73200173222DB80211E220904DE
:102DBC000843921B1F2A1DDD022149428E1B010074
:102DCC00F1400E00202A04D0144A944663449840E3
:102DDC00054329004D1EA941314300264B07CED196
:102DEC0080200B00C004012203400142D3D1AFE785
:102DFC000023ACE70A498C4629006344D1409D402E
:102E0C000A00290098404D1EA94101431143E4E7F3
:102E1C0033009DE7FE07000080FCFFFFA2FCFFFFD4
:102E2C0082FCFFFF1C2101231B04984201D3000CE0
:102E3C0010391B0A984201D3000A08391B09984221
:102E4C0001D30009043902A2105C40187047C04637
:102E5C000403020201010101000000000000000057
:102E6C00F0B5D64646464F463220C0B510F0E2FECD
:102E7C00061E6AD0364C2278FE2A55D1431C994640
:102E8C0064239A46334B344F9846BA442100351B81
:102E9C00143122782A5501348C42FAD11422494635
:102EAC00380010F0E9FE14220021300010F0EDFE85
:102EBC002278FD2A3AD80023143D01E0322B30D081
:102ECC002A55627801330134DBB2FD2AF6D91D0094
:102EDC005A1EB25C002A01D00133DDB2280010F07A
:102EEC00A9FEF860002826D02A00310010F0C4FE9C
:102EFC00434642461B7800210133137030002A00F0
:102F0C0010F0C3FE2378FE2B02D11437BA45BDD185
:102F1C00300010F099FE0020E0BCBA46B146A8463D
:102F2C00F0BD31223225D4E7FF20F5E70122002540
:102F3C0000235242CDE714220021380010F0A5FEE8
:102F4C00300010F081FE0E20E6E7FB20E4E7C046DF
:102F5C0000DC0108230A0020A4610020F0B5224BFC
:102F6C0022491B8883B09AB28B4235D0160A2CD0DA
:102F7C001F4BF6B21E701F4B1A706B46D91D0023E7
:102F8C00022201259C461C4C63460B700B780A2BC5
:102F9C0014D86B1E9800C0184000C018124BD718DC
:102FAC000B783F88C3185B00E7520B780232013371
:102FBC00DBB20B700B7892B20A2BEFD90135EDB264
:102FCC00AE42E1D2002003B0F0BD0121084B012636
:102FDC001970084B1A70D0E70122054BFA201A70B1
:102FEC000022044B1A70EEE700D80108FFFF000026
:102FFC001C0000207C080020A0020020F0B5C64672
:10300C0000B5104E33789846002B16D000230124BF
:10301C0098460D4F07E0192C01D90A2398463378AE
:10302C00ECB2A34209D3631E5B00F95A651C00295C
:10303C00F1D0A8B204F0D0FAEDE7404680BCB84617
:10304C00F0BDC0461C0000207C660020F0B5C646D2
:10305C00124E32220021300000B510F016FE104D39
:10306C002F78002F16D00223012400279846192C04
:10307C0000D90A274346DCB22B78A3420AD3631E3D
:10308C005B00F15A631C98460029F0D0180004F03C
:10309C00A3FAECE7380080BCB846F0BD7C66002093
:1030AC001C000020F0B5C64600B50D4D2F78002F42
:1030BC0012D0012400270B4E611E631C490018001E
:1030CC007118984604F05CFA192C00D90A2743466B
:1030DC00DCB22B78A342EFD2380080BCB846F0BDEE
:1030EC001C0000207C6600200023F0B54646D64626
:1030FC004F4698461C4BC0B599461C4B00269A4629
:10310C0005E0534601361B78F6B2B34226D34B4644
:10311C00B400A41964001B5D002BF2D04546474651
:10312C0001341C3521374C44ADB2BFB221781B029F
:10313C002800C918013589B2ADB204F04DFABD4270
:10314C0002D063780234F1E7434605339BB29846CC
:10315C00534601361B78F6B2B342D8D20020E0BCFD
:10316C00BA46B146A846F0BD780700201C000020E6
:10317C00F0B557464E46DE464546E0B583B06B4645
:10318C009E1D002398463380194B21279A46194BD4
:10319C009B4643469B001D00994645447C1F6D0091
:1031AC00A4B255442000310004F0EAF9338801340C
:1031BC006B70A4B21B0A2B700235BC42F2D14F4685
:1031CC00002347447F0057447B7243460133DBB2F4
:1031DC0098465B461B780534A7B24345D9D20020EC
:1031EC0003B0F0BCBB46B246A946A046F0BDC046F3
:1031FC00780700201C000020F0B54646D6464F4606
:10320C00C0B582B06B469E1D0023204D33802B78B9
:10321C000024002B0ED000211D4F20004900CB3084
:10322C00791880B204F0ACF9611C2B788CB2C9B25D
:10323C008B42F2D8174B2700D0349846A3B299464C
:10324C0000239A469E37BFB245467C1FA4B220008D
:10325C00310004F095F9338801346B70A4B21B0A69
:10326C002B700235A742F2D1434652465A720A23BA
:10327C009C460537BFB2E0444F45E5D1002002B073
:10328C00E0BCBA46B146A846F0BDC0461C000020C2
:10329C00D00600206C060020F0B5CE46474680B51F
:1032AC0085B000236A46E42003A99381D38104F0FE
:1032BC0067F90025002801D16B461D7B03A9E52089
:1032CC0004F05EF90E236B4404001900E62004F0B0
:1032DC0057F90443A4B20026002C04D16B469E89F6
:1032EC00DB893604F61803A9E72004F049F90E230C
:1032FC006B4404001900E82004F042F9204380B22A
:10330C000024002804D16B469C89DB892404E41832
:10331C00E92003A904F034F900283FD02F4B99463B
:10332C00EA2003A904F02CF900282DD02C4B984648
:10333C00EB2003A904F024F900281DD0294F4B469B
:10334C001B78002B03D0284A1278002A37D1434629
:10335C001B78002B03D0254A1278002A36D13B78F3
:10336C00002B03D0224A1278002A21D1002005B06C
:10337C00C0BCB946B046F0BD6B469B89194F1A0AC2
:10338C003A701B4A1370DAE7154A6B469046414671
:10339C009B891A0A0A70154A1370C9E70F4A6B46C3
:1033AC00914649469B891A0A0A700F4A1370B7E76F
:1033BC00009231002200280005F084FBD6E7009231
:1033CC0031002200280005F07DFBC0E7009231009F
:1033DC002200280005F076FBC1E7C0465109002009
:1033EC005209002053090020690600206A060020BB
:1033FC006B060020F8B5DE4657464E4645468B46D2
:10340C00E0B51C000AAB1B7801009A460BAB1B788D
:10341C00E42098460CAB1F780DAB1E780EAB914692
:10342C001D7804F0D9F85B46190A89B2E52004F03E
:10343C00D3F85B46E62099B204F0CEF84B46190A55
:10344C0089B2E72004F0C8F84B46240299B25444E0
:10345C00E82004F0C1F8A1B2E92004F0BDF843461D
:10346C001902C91989B2EA2004F0B6F831024919D7
:10347C0089B2EB2004F0B0F80020F0BCBB46B24699
:10348C00A946A046F8BDC0468A2030B583B001A934
:10349C00400004F075F8002851D16B4616209B882B
:1034AC00424C01A9A371FF301B0AE37104F068F8C8
:1034BC0000284FD16B468B209B8801A940002380AC
:1034CC0004F05EF800284FD16B4618209B8801A9A8
:1034DC00FF30638004F054F800284FD16B469B8872
:1034EC00A3808C2001A9400004F04AF86B4605002B
:1034FC001A20991DFF3004F043F80543ADB2002D9E
:10350C0047D16B466A46DB8892881B041343A36041
:10351C008D2001A9400004F033F8002835D16B460A
:10352C009B88A3811C2001A9FF3004F029F80028F6
:10353C0028D16B461B790020E37603B030BD1620F2
:10354C001B4B1A4CDB8801A9E380FF3004F018F800
:10355C000028AFD08B20164B01A91B88400023807C
:10356C0004F00EF80028AFD01820114B01A95B888D
:10357C00FF30638004F004F80028AFD00C4B9B881C
:10358C00A380AEE70A4BDB7ED5E7C0235B01A381AA
:10359C00C8E7084B1B78002B03D0E1235B02A36028
:1035AC00B6E7034B9B68A360B2E7C0468861002076
:1035BC00000000209E0200208A2010B5194C40000B
:1035CC00E379A1795B01194304F006F816202188F0
:1035DC00FF3004F001F88B206188400003F0FCFF01
:1035EC0018206379217B1B021943FF3003F0F4FF91
:1035FC008C202189400003F0EFFF1A206189FF30F5
:10360C0003F0EAFF8D20637B21791B0219434000F4
:10361C0003F0E2FF1C20E17EFF3003F0DDFF002011
:10362C0010BDC04688610020F0B54F464646D646D0
:10363C00C0B588B000236A46D3830F3398460E3B3F
:10364C000126EC249946374F05E004340136A4B228
:10365C000937082E5ED01E236B441900200003F09E
:10366C008FFF051EF1D16B46DB8B190A1A0BB24288
:10367C00EBD1424640460A400842E6D0B0007B748B
:10368C0083B29A4618001E23E9306B441900BA72B3
:10369C0080B203F075FF6B46DB8B50461A0ABB7386
:1036AC001E23EA306B441900FA7280B203F068FFF3
:1036BC006B46DB8B50461A0AFB731E23EB306B44B4
:1036CC0019003A7380B203F05BFF6B46DB8BB87A60
:1036DC001A0A3B74F3B219007A739A4604F036FB5B
:1036EC004846797CFB7A4A10059502400140387CAB
:1036FC0004340490F87B01360390B87BA4B202909A
:10370C00787B09370190F8780090504604F028FC3B
:10371C00082EA0D1002008B0E0BCBA46B146A8469D
:10372C00F0BDC046200D002010B5FFF717FCFFF7C9
:10373C00B9FCFFF71DFDFFF75FFDFFF7ADFDFFF7D0
:10374C00A3FEFFF771FFFFF78BFB10BD0E2330B507
:10375C0012248FB06B446C44009303AA06AB05A9EA
:10376C00012009F023FF04AA08AB07A9022000944A
:10377C0009F01CFF01230A936B4600259B890598D1
:10378C0009A909930B950EF0B1F802230B9323882A
:10379C00089809A909930A950EF0A8F86B4600221F
:1037AC00998905980EF0BEF905200AF0A7FA218830
:1037BC0008980EF0B1F903000020002B01D00FB0D7
:1037CC0030BD6B460122998905980EF0ABF90520A6
:1037DC000AF094FA218808980EF09EF901384342B9
:1037EC005841C0B2EBE7C04610B50AF0C5FCE12366
:1037FC001B0243608023DB000361802304005B0118
:10380C00836010F01FF82021226813680B431360AB
:10381C0010BDC046044B10B59968FCF76DFC4342D3
:10382C005841C0B210BDC0468400002070B501786C
:10383C0003000C003D3C3D2900D144780D000620CE
:10384C003E3D3C39002C27D0002D02D15A78002A5D
:10385C0024D0002902D15A78002A21D01A783E2A85
:10386C0005D15E783D2E02D19E78002E1AD03C2ACE
:10387C0005D15E783D2E02D19E78002E14D0212ADF
:10388C0005D15A783D2A02D19A78002A0ED00138F7
:10389C00C0B20028D6D170BD0120FCE70220FAE7A7
:1038AC000320F8E70420F6E70520F4E70620F2E70A
:1038BC00F0B5C646104B050001249846032700B509
:1038CC000E4E82B0A5420ED043461B88B4705BBA34
:1038DC00338000220A2300212000009705F0E8F92C
:1038EC000A200AF00DFD0134E4B2072CEAD10020C5
:1038FC0002B080BCB846F0BD500000204807002044
:10390C00F0B557464546DE464E46E0B583B06A46AE
:10391C00464B00AF1D78EB1DDB08DB00D31A9D4630
:10392C006C46002D09D000230021414AE15401339B
:10393C00DEB211800232B542F8D8012301381622CA
:10394C0023543C4B42439C4601239846013362442A
:10395C0000219C46A346364E40007D605388002BC8
:10396C000DD0855BDB08A94645468D40AA464D46E1
:10397C005446254364465B44013B85531C7001311E
:10398C0002320629EAD102239946294B5C46CA46E3
:10399C009B467D6853460133DBB29A46002D3CD0E2
:1039AC00012300265B425344B44600221E002148EA
:1039BC0004E00132D3B216309D422BD9A35CB34242
:1039CC00F7D15300A946012190461D007E604B00A3
:1039DC00C35A002B13D0DB08013BE25C002A0ED14A
:1039EC0001264A1E964032005E46AE5B32435E466E
:1039FC00AA535246E25463460133DBB29C46013172
:103A0C000729E4D142464D460132D3B27E681630C6
:103A1C009D42D3D86646002EBCD10020BD4603B0D3
:103A2C00F0BCBB46B246A946A046F0BD1C00002027
:103A3C00C8040020A0020020F0B5DE4657464E46D2
:103A4C0045460024E0B5060091B00F002E220091EF
:103A5C0004A80021039410F018F9192200216448DD
:103A6C0010F013F9634B721E9C549B461623624D47
:103A7C005343AC54614A01209446634419000193AA
:103A8C00BAB24300CB5A002B03D0DB08934200D1CF
:103A9C00A1E001300728F4D1594B1C78002C64D0DC
:103AAC006A1E9046FF2294465A4601230021501E5E
:103ABC009E4204D042466746D7541A1811700133FF
:103ACC00A342F5DD009B00229C4603A801000126C1
:103ADC0000230F7801333E400131A342F9DB002E65
:103AEC0044D10378002B3DD0FF212A78012301E03B
:103AFC00EA5C0133914207D902AF0337FF5C002F18
:103B0C0002D111005E1EF6B29C42F1DC0136F2B21B
:103B1C0062455ED016260123571E7E43C355374B94
:103B2C00A2469919374B984646444B88002B14D023
:103B3C00DB08DBB2013BC45C002C0ED1EC5DA04673
:103B4C000124A146C8444446E4B2A046EC5C44457A
:103B5C0003D94446EC545C46E25402318E42E4D123
:103B6C005446B3E729780A00C0E700225B469B184D
:103B7C00013B19780023002901D10CE00100180049
:103B8C001B4C013322545A465218013A1078DBB2BE
:103B9C000A000028F2D1009B01209C460199654443
:103BAC00013D4300CB5A002B08D0114C2A78A44677
:103BBC006244013A1278DB089A4216D00130072889
:103BCC00EFD1002011B0F0BCBB46B246A946A046CE
:103BDC00F0BD009ACAE7009A012394466544013D62
:103BEC002B70034BC0B21A70ECE7C0B2EAE7C046C8
:103BFC008C620020380900201C090020A002002043
:103C0C001C000020AC020020F0B54F464646D646BC
:103C1C00C0B51F00394B814684B018780E001500D2
:103C2C009846FFF709FF0400002F28D1344B9B194D
:103C3C00013B1A78012A5DD0324B9B18013B1B7853
:103C4C009A4643461B78994521D10AF06DFC2E4BC0
:103C5C0032001968814610F031F92C4B484619682E
:103C6C0010F04CF94846FCF751FA322382B249461F
:103C7C0028000AF02BFA64200CF0B4FB07E0434652
:103C8C001B78B34228D0002292464B4528D02800FE
:103C9C00FFF7AAFD2000FFF7A7FD43461978514511
:103CAC0011D000230393013B029301930333009340
:103CBC0022000B00280005F03DFA04B0E0BCBA4627
:103CCC00B146A846F0BD20000AF056FA01210AF0D0
:103CDC005FFA43461978E4E79A463C004B45D6D147
:103CEC000AF022FC0A4B320019683B00814610F0A6
:103CFC00E5F8B2E743461B789A46A4E77C08002017
:103D0C001C0900208C62002078000020800000201C
:103D1C007C000020F0B54546DE4657464E46584CD2
:103D2C00E0B5220001270600564B85B023CB23C2F9
:103D3C0019687F4211609B882100938030003223E8
:103D4C00112200970AF08CF94F4B012598462A0056
:103D5C004146200010F0B2F82000FCF7D7F90135ED
:103D6C0082B232232100300000970AF079F9072D36
:103D7C00EDD1322303223000444900970AF070F948
:103D8C00434B1B78002B6BD0424B01279A46424B7E
:103D9C0000259B467F426B1C1A0040492000039370
:103DAC0010F08CF82000FCF7B1F9322382B221001C
:103DBC00300000970AF054F916236B43984642469C
:103DCC00374B20009B5A05225900C918354B490026
:103DDC009C46614410F0C6F83223052221003000C5
:103DEC0000970AF03DF93223300001222E4900974A
:103DFC000AF036F92A4B43441D00294B0C339844E6
:103E0C000723994633004646984610E05946200051
:103E1C0010F054F82000FCF779F9023582B2322305
:103E2C002100404600970AF01BF9B5420AD06A8877
:103E3C00002AEBD04B46514613402000D20810F01C
:103E4C003DF8E7E7322302224046184900970AF072
:103E5C0007F96B461D7B0E4B46461B78AB429AD836
:103E6C0001235B42009301223000114933330AF0E5
:103E7C00F7F805B0F0BCBB46B246A946A046F0BD6B
:103E8C00B0080020E0720108F4720108DC7C010823
:103E9C001C0000200C73010808730108FC72010857
:103EAC00A00200208C770108F07201081874010838
:103EBC0084A50108F0B5DE464E4657464546E0B5AA
:103ECC00314E324B3200834613CB13C213CB13C289
:103EDC001B6883B0136001235B4200931B223333B6
:103EEC00310058460AF0BCF8294B1B78002B32D015
:103EFC0001239946274B80279846274B3F029A4629
:103F0C004B465D1E00246D0001E00A2C1BD02200E4
:103F1C003900434611415B5B01341942F5D0230053
:103F2C004A46514630000FF0C9FF3000FCF7EEF85E
:103F3C0001235B4282B200933100584633330AF0BE
:103F4C008FF80A2CE3D14B460133DBB29946104B68
:103F5C001B784B45D4D23200104B13CB13C213CB6E
:103F6C0013C203CB03C201235B4200931F22310017
:103F7C00584633330AF074F803B0F0BCBB46B24673
:103F8C00A946A046F0BDC046B00800201473010835
:103F9C001C0000207C66002050730108307301085F
:103FAC00F0B5DE464E4645465746E0B585B0039023
:103FBC000AF0BAFA00230500954C0370954B96490C
:103FCC001A7820000FF07AFF210028000FF096FFDE
:103FDC00924B93491A7820000FF070FF21002800B3
:103FEC000FF08CFF042300228E4900932000023B2B
:103FFC000FF064FF210028000FF080FF8A4A8B49E4
:10400C0020000FF05BFF210028000FF077FF884A9B
:10401C00884920000FF052FF210028000FF06EFF9E
:10402C002200854B43CB43C2196828001160998844
:10403C00012691809B79210093710FF05FFF7F4BDC
:10404C0099467F4B98467F4B9A467F4B9B46320056
:10405C00494620000FF032FF210028000FF04EFFE0
:10406C0043469B5D042B0BD8784A9B00D3589F4644
:10407C0023005A4683CA83C383CA83C312881A8017
:10408C002100280001360FF039FF072EDFD1220066
:10409C006F4BA84643CB43C243CB43C221002800FD
:1040AC000FF02CFF6B4B01269A466B4B6B4F9946CE
:1040BC006B4B9B4617E0786A07F03CFA5246B3000C
:1040CC000500D05807F036FA32002B004946009014
:1040DC0020000FF0F3FE0136210040460FF00EFFDA
:1040EC003837072E0FD03B68002BE4D132005946ED
:1040FC0020000FF0E3FE0136210040460FF0FEFEDB
:10410C003837072EEFD14046FCF700F8454606003D
:10411C00544B02221900281899460FF0ADFDB01C23
:10412C001D22514928180FF0A7FD1E2380279B46FE
:10413C004E4BB34498464E4B00269A463F0201E044
:10414C00062E16D04146334B32001B780136013B0C
:10415C005B00CB5A390011411942F1D05146320063
:10416C0020000FF0ABFE210028000FF0C7FE062E3A
:10417C00E8D12800FBF7CAFF5B46040098B2A042C6
:10418C003ED00322494628190FF076FD039B002BE5
:10419C0029D105B0F0BCBB46B246A946A046F0BD3D
:1041AC002200344B83CB83C26AE72200324B83CB91
:1041BC0083C203CB03C21B78137061E72300524602
:1041CC0083CA83C383CA83C3116819609188998099
:1041DC0092799A7154E7294B1A6822609A88A280C6
:1041EC009B79A3714CE72800FBF790FF01235B42FE
:1041FC0082B2009329000398333309F031FFC8E7EA
:10420C00281905221E490FF037FD0434B9E7C046C2
:10421C00B00800207C080020647301089F02002075
:10422C00807301089C730108BC730108C8730108F2
:10423C00E0730108EC730108087401081C74010890
:10424C00000900206C7401085074010820750108E5
:10425C008C740108A80C0020C07401088411002083
:10426C00A474010818740108F07401087C6600201D
:10427C0010750108447401082C7401082474010899
:10428C0018750108F0B5C64600B5037806006D2B0D
:10429C000AD14378652B07D18378002B04D1254BA9
:1042AC00187880BCB846F0BD30002349FBF724FFDA
:1042BC00002836D033789846232B21D01F4B1F78FB
:1042CC00002F0FD000241E4D29003000FBF714FFE7
:1042DC00002802D14346002B25D10134E4B20A3523
:1042EC00A742F1D10024174D29003000FBF704FF41
:1042FC0000281AD001340A350A2CF5D16420D0E7F5
:10430C00701C0FF062FCC3B2002B03D00B4A127866
:10431C009A4204D2074A662012789A42C1D118B246
:10432C00BFE7FF20BDE720B2BBE7FE2024022043FD
:10433C0000B2B6E77C080020347501081C00002090
:10434C00780700206C060020F0B5C646294C804644
:10435C0025000E0000B5103521003000FBF7CCFE17
:10436C00002839D00434AC42F6D1234B1F78012FEE
:10437C0010DD0125214C03E001350A34BD4209DA78
:10438C0021003000FBF7B8FE0028F5D1072080BCD7
:10439C00B846F0BD1A4C2500643521003000FBF7FF
:1043AC00ABFE0028F2D00A34A542F6D1154F164CBC
:1043BC003C6003E064683C60002C0FD023681D68EF
:1043CC002800FBF7A3FE2900020030000FF0B9FD16
:1043DC000028EFD10820DAE70620D8E743469800FA
:1043EC000A4F404440003100C0190FF0A2FDFEF707
:1043FC007BFECCE7687701081C00002082070020B8
:10440C006C06002008090020980000207807002086
:10441C00F0B54F464646D6463B4BC0B580460E00DF
:10442C0099461F001D00002429003000FBF764FE94
:10443C00002851D001340A350A2CF5D1334C250013
:10444C00103521003000FBF757FE00284ED0043405
:10445C00A542F6D12E4B1B789A46012B12DD012575
:10446C002C4C03E001350A34AA450BDD2100300049
:10447C00FBF742FE0028F5D10720E0BCBA46B14656
:10448C00A846F0BD244B254C9A461C6004E05346CC
:10449C0064681C60002C0DD023681D682800FBF795
:1044AC0035FE2900020030000FF04BFD0028EED144
:1044BC000820E2E73B78002B1AD001340A370A2C8B
:1044CC00F8D18023DB004746154A013F7F00B95ADB
:1044DC0000200B43BB52D0E701224746A2401049B3
:1044EC00013F7F007B5A13437B52C6E70620C4E78B
:1044FC00A00000194000310048440FF01AFD0123C0
:10450C00A3401BB2DFE7C0466C06002068770108A9
:10451C001C000020820700200C09002098000020BD
:10452C00D0060020F8B5DE4657464E464546E0B567
:10453C00254B9A461B789B46002B3DD000239B466F
:10454C00224B01249846224B994613E0002213215A
:10455C00200004F0C9FD322009F0D0FB1D4B1B7864
:10456C00002B01D002239B46534601341B78E4B246
:10457C00A34221D343461B78A342E7D180270025D1
:10458C003F026E1CF0B209F0F7FD436BBB420AD13F
:10459C00390043464A4629411B78013B5B009A5A35
:1045AC000A4349465A523500062EEAD15346013485
:1045BC001B78E4B2A342DDD25846F0BCBB46B246EF
:1045CC00A946A046F8BDC0461C0000207C0800206F
:1045DC007C66002018090020F8B580250022104FB9
:1045EC00104E2D0207E009F0C7FD002109F0D0FDA7
:1045FC002200062C11D0290011413378541C013BA8
:10460C005B00FB5AE0B21942EDD009F0B5FD012177
:10461C0009F0BEFD2200062CEDD10020F8BDC046ED
:10462C007C6600207C08002070B509F01FFA09F0A8
:10463C00BFFA03F0B7F808F077FF07F0DFFE09F0D8
:10464C00E9FA08F031FF09F017FB09F01BF8002814
:10465C0000D06EE0FFF77AF8002826D1322009F05E
:10466C004DFB07F005F8FFF75FF8FFF7B5FF08F013
:10467C008FFB80219020384B01221B780901C0054B
:10468C00002B29D10DF04EFAFA20400009F036FB30
:10469C008021902000220901C0050DF043FA02F0A0
:1046AC00F5FE01222D4B1A7070BD01222C4B3220CD
:1046BC001A7009F023FB06F0DBFFE121294D4902BA
:1046CC000124A96000E0A96820000134E4B209F0DB
:1046DC0041FD072CF7D1C6E70DF024FAFA20400073
:1046EC0009F00CFB8021902000220901C0050DF07F
:1046FC0019FA642009F002FB8021902001220901A3
:10470C00C0050DF00FFA642009F0F8FA8021902012
:10471C0000220901C0050DF005FA642009F0EEFA3B
:10472C00802190200122C00509010DF0FBF96420C5
:10473C00ACE70D4C0D4D2368AB4204D002F0E2FF08
:10474C00002800D12560BFF34F8F094B094ADA606E
:10475C00BFF34F8FC046FDE77C0800209D02002070
:10476C009E02002088610020F07F0020ADDEEFBEAD
:10477C0000ED00E00400FA0510B5012182B01E2006
:10478C000FF02AFA0400094909480A7D8B7D013A89
:10479C0092001258088B0190497D20000091054928
:1047AC000FF08CFB200002B010BDC04688610020C9
:1047BC00107801087877010800B5084B0A001978C1
:1047CC00012385B00393023B0293019303330093BF
:1047DC000B0004F0AFFC05B000BDC0467C08002007
:1047EC00002330B505000C0087B000220021049393
:1047FC0003930293019300930020FEF7FBFD691EC7
:10480C00CB005B1A114ADB009B58611E002B12D0A7
:10481C00CB005B1ADB009B582800002B04D102F064
:10482C0081FD002007B030BD02F07CFD200002F0BD
:10483C0079FD0020F6E7CB005B1ADB009B58002BC0
:10484C0001D02000EBE76820ECE7C0468411002083
:10485C00F8B5CE46474680B5264E274D3378804670
:10486C00013B9C00E418A4002C19E3689946002B2A
:10487C002FD01800FBF74AFC07004046FBF746FC1C
:10488C003918023148460FF0FDFA3278E060013AEF
:10489C0093009B189B00EB18D8687A1C8018414633
:1048AC000FF047FB3278013A93009B1813229B00C0
:1048BC00EB18DB68DA553378013B9800C0188000A0
:1048CC002818C368002B0ED00020C0BCB946B046D7
:1048DC00F8BDFBF71BFC01300FF0ACF94146E06072
:1048EC000FF027FBF0E7142200210FF0CEF90E2079
:1048FC00EBE7C046230A0020A4610020F0B5574620
:10490C004E46DE464546E0B5CD4F04003E788BB0B2
:10491C00052E6AD0B300CB4D981980009A462B18FF
:10492C00994600234A46023013800021042228189D
:10493C000FF0ABF92378622B02D1A3782E2B57D032
:10494C00C14B2100984618000FF0F3FABF4E4046B9
:10495C00310010F065F931000400002010F060F90E
:10496C0031008046002010F05BF90600002C39D095
:10497C002000FEF74FFF814600282ED14346002B26
:10498C0030D0002E2ED03000FEF744FF002862D02D
:10499C0004223E78B400A3199B00EA544A46EB1853
:1049AC00DA70D8714046FEF741FF3A78A4199300AB
:1049BC00A4009B182C199B006070ED186B78002BD1
:1049CC0010D00023984601323A7040460BB0F0BC30
:1049DC00BB46B246A946A046F0BD4346002BD0D1FB
:1049EC00002E70D067239846EFE70E239846ECE72D
:1049FC006378303BDBB29B46002398465B46062B24
:104A0C00E3D84946012358460B80E31C88700722E3
:104A1C0018008F4907930FF094FA002835D00E2216
:104A2C008C4907980FF08DFA002859D106234A4675
:104A3C00D3705B46DA00884B5A449B180222110053
:104A4C001B7A194088461A4200D183E0002398460D
:104A5C0001363E70B9E73A78300093009B18032278
:104A6C009B00EA544A46EB18DA700FF0A3F8FEF7F5
:104A7C0051F93E780990B400A01980000630042248
:104A8C00281809A90FF0F8F88CE705234946CB70D4
:104A9C005946714BCA005A4401219B1801221B7ABA
:104AAC00194088461A42D1D10123049105930391F0
:104ABC00029101910091002300220121584603F03C
:104ACC004FFA3E78C4E702213A7893009B189B007A
:104ADC00E954ED18002301329846E8703A7074E7F7
:104AEC000C225E4907980FF02CFA002813D15B4674
:104AFC00DA00594B5A449B189A789046002A38D0C1
:104B0C00DA789046002A51D01B799846002B7DD03C
:104B1C000C2398469CE70D22514907980FF011FA87
:104B2C00002895D15B464C4AD900CB18D31858793C
:104B3C008046002852D09B799846002B00D191E0FA
:104B4C0059445218D3799846002B00D1A9E00D2373
:104B5C0098467DE7012304910593039102910191FD
:104B6C000091002300215846013A03F0F9F93E78F0
:104B7C006EE709234A462000D3700F300FF01FF860
:104B8C003978C3B28A0052189200AD1801222B71E9
:104B9C0005924246049203920292019200920022E4
:104BAC000021584603F0DCF93E7851E70A234A46C7
:104BBC002000D3700F300FF002F83A78C0B2930097
:104BCC009B189B00ED180123287105934346009018
:104BDC0004930393029301930023E0E70C234A46CA
:104BEC002000D37010300EF0EAFF3A78C0B2930078
:104BFC009B189B00ED1801232871059343460290E6
:104C0C0004930393019300930023C8E733000B2212
:104C1C00200053449B00EB18DA700F300EF0CFFFDE
:104C2C003A78C0B293009B189B00ED1801232871B1
:104C3C000593002301900493039302930093AEE732
:104C4C00230A0020A4610020880900202074010898
:104C5C00287F01082C780108200D00203C780108E1
:104C6C004C7801081433200099465E43073BAE197B
:104C7C00F37010300EF0A3FF4A463B7800215343EB
:104C8C00ED180123C0B228710A00059303900B00A4
:104C9C005846049102910191009103F061F93E781C
:104CAC00D6E61433200099465E43063BAE19F370EA
:104CBC0010300EF084FF4A463B78C0B25343ED18D7
:104CCC0001232871059343460393029301930093A8
:104CDC00002304901A001900584603F041F93E785D
:104CEC00B6E6C046F0B5DE464E4657464546E0B5FC
:104CFC001E0000238BB083468A4615000021052236
:104D0C0008A807930EF0C1FFCF4BD04C99462B78D7
:104D1C002A000320002B0AD0E15C0140012901D1BB
:104D2C002033DBB2137053780132002BF4D14B4695
:104D3C001F78002F60D006222800C5490FF001F91A
:104D4C00002800D1BFE0022F38D12800FFF780FDEA
:104D5C00002800D0D3E00D2333705346002B00D134
:104D6C00A8E0002398463000FBF7D0F901235B4202
:104D7C0082B2009331005846333309F071F9300098
:104D8C00FBF7C4F90021020030000EF07EFF434611
:104D9C00002BBCD10922002107A80EF076FF4B4650
:104DAC001B78002B03D15346002B00D0B3E00BB083
:104DBC00F0BCBB46B246A946A046F0BD2E21280049
:104DCC000FF0A9F8071E09D0C31E1A78622A29D140
:104DDC005A786F2A26D19B78732B23D199223100D4
:104DEC002800920009F01EFB80463378002BC6D0B9
:104DFC005346002BC3D0B6E72B78692BDED16B78EA
:104E0C00662BDBD1AB781F00203F202BD6D1E81CC2
:104E1C00FFF774FD00286AD102234A4613700B3346
:104E2C0033709AE77B78894AD35C5B07D6D4290028
:104E3C007A1B07A80FF096F807A8FFF723FA854B03
:104E4C0003901B78049398426FD0039B642B5CD027
:104E5C00039B662B71D0039BFF2B00D1ADE06B46FF
:104E6C001B7B0593FE2B00D118E17B1C062218003E
:104E7C00794998460FF065F8002864D1059B774F67
:104E8C00984600221921B871180004F02DF96420FD
:104E9C0009F036FA724B41461A786E4B187800239B
:104EAC00FEF7B2FEBB79602B00D1B7E03378002B54
:104EBC0000D052E73000FBF729F900210200300046
:104ECC000EF0E3FE66E74B461870664B1A78013A13
:104EDC0093009B18644A9B00D31801221A7406F0A5
:104EEC00DBF94122300061490EF0C6FE35E7522253
:104EFC0030005F490EF0C0FE4B461F702DE752226A
:104F0C0030005B490EF0B8FE27E7272230005949E4
:104F1C000EF0B2FE21E701235B4200933822584683
:104F2C005549333309F09CF841E799223100781C3C
:104F3C00920009F077FA804657E7252230004F4956
:104F4C000EF09AFE09E72800FBF7E0F807AB049097
:104F5C001800FBF7DBF8049A4146013A121A0700D5
:104F6C0047480EF0FFFF2800FBF7D0F8421ED21B7B
:104F7C00172192B2059804F0B7F83000039A414912
:104F8C000EF09CFF3378002B0DD05346002B0AD02B
:104F9C003000FBF7BBF8012382B200933100584676
:104FAC00313309F05DF83000FBF7B0F80021020056
:104FBC0030000EF06AFE294F74E7192200213248A6
:104FCC000EF063FE2800FBF7A1F807AB0390180066
:104FDC00FBF79CF88046039A0137013A3900121A04
:104FEC0027480EF0BFFF2800FBF790F84346C31A82
:104FFC009BB21722FF21049804F030F8992231005B
:10500C009200380009F00EFA80463000FBF77EF86B
:10501C001D221E4930180EF02FFEE6E6FA21012063
:10502C0089000AF033FF1A4B1B78002B00D13DE7A7
:10503C00184A30001388184901331380039B32003F
:10504C000EF03CFF337832E7500A0020F0A801083C
:10505C00B07801087C08002098790108886100204C
:10506C009F020020230A0020A4610020B8780108C8
:10507C005C780108FC780108E479010824790108BE
:10508C0048070020A0790108FC0400204C79010895
:10509C0018090020520F0020C4790108039B1F4AF5
:1050AC001812C3B21370002119221D4803930EF07D
:1050BC00ECFD2800FBF72AF8059007A8FBF726F86B
:1050CC00059A0137013A121A3900059015480EF06D
:1050DC0049FF2800FBF71AF8059A0399831A9BB22B
:1050EC001722049803F0BAFF0F4B104A1B78013BB0
:1050FC005B009B5A094A12781341DB0706D4320035
:10510C0030000B4907AB0EF0D9FE6EE69922310048
:10511C003800920009F086F98046F0E7220A002058
:10512C00FC040020480700207C080020D00600204A
:10513C006C790108F0B5DE46574645464E460121CE
:10514C00E0B5494287B001200AF0A0FE02AB9C46B4
:10515C000F27002367443B7009F0E6F9E123514A1D
:10516C00514D926803901B039A420DD001242B7869
:10517C009C4205D0E1212000090308F0EBFF2B78BD
:10518C000134E4B2072CF3D1484B494C1A882978E6
:10519C0053009B18474A5B009B18474A2000127823
:1051AC00009146490EF08AFE0A23454A4549287863
:1051BC0008F08CFF2000FAF7A9FF0A2382B2210025
:1051CC00287808F083FF002399463F4B3F4E9846C2
:1051DC003F4B9B463F4B9A46434628781B18013B56
:1051EC001C783F2C05D915E00134A4B209F0F2FA71
:1051FC002878421E9301F318195D002905D13F2C24
:10520C00F2D1434601249954F0E739700021195525
:10521C0043469C540A230122390008F057FF3B787F
:10522C000D2B14D00A2B0FD0082B2BD01A00203AA0
:10523C005E2A09D84A46312A06DC4946524653545E
:10524C004B4601335BB2994609F0C4FAC4E7033B01
:10525C0002222878204908F039FF4B46002B1CD03D
:10526C00039B524601212878FFF73CFD51465846D6
:10527C000EF05FFE3222002150460EF006FD002398
:10528C009946E1E74B46002BDED0013BDAB25BB22C
:10529C009946002153469954D6E7594650460EF08C
:1052AC0048FEDDE7886100209F02002050000020AE
:1052BC00240A00208C7701087C080020207A010841
:1052CC00930200004C7A0108540C0020D40A0020F0
:1052DC00F00900205409002044A40108F8B51A4B29
:1052EC000D001A78013A93009B18184A9B00D318AA
:1052FC00DB68002B26D0164F3C68002C14D023788A
:10530C00002B0ED0132120000EF005FE061E0ED031
:10531C00021B210028000EF025FE012001363E6004
:10532C00F8BD00203B60FBE704003860E7E7210094
:10533C0028000EF0FEFD2800FAF7E8FE24183C6069
:10534C000120EDE70020EBE7230A0020A4610020F8
:10535C004C0A0020830030B518182E498000435C9D
:10536C0083B0012B20D0032B1BD10C18E278063014
:10537C00013A53009B18284A9B009B584118042261
:10538C0001A81D680EF078FC6378062B09D8234A17
:10539C009B00D3589F460198291CFBF7ADF80028B9
:1053AC0014D1002003B030BD08188278C078D30027
:1053BC009B181B4A9B5C181A43425841C0B2F1E738
:1053CC000198291CFBF77EF80028EAD10021281C43
:1053DC00FBF778F843425841E4E70198291CFBF7A6
:1053EC0071F8431E9841DDE70198291CFBF770F812
:1053FC00431E9841D6E70198291CFBF773F8431E0E
:10540C009841CFE70198291CFBF780F80028C8D0F9
:10541C00DCE7C046A461002084000020E07C010889
:10542C00200D0020F0B54646D6464F46C0B509F0D3
:10543C007BF8214B060098461B78002B36D01F4B6F
:10544C0000249A461E4B1F4D994606E043460134F4
:10545C001B78A4B21435A34228D92B7C002BF5D091
:10546C00E0B2FFF777FF0028F0D020235246164F0A
:10547C0093710EE04B463A00002118783300FFF789
:10548C0031FC3000FAF742FE0021020030000EF031
:10549C00FCFB3900E868FFF721FF0028EAD14346FE
:1054AC0001341B78A4B21435A342D6D80020E0BC3A
:1054BC00BA46B146A846F0BD230A002088610020F8
:1054CC009F020020A4610020BC090020002070472E
:1054DC00002370B582B004001500009301930028DE
:1054EC002FD06A460121280009F022F80023C35668
:1054FC00702B0CD001AA0221280009F019F80EF02B
:10550C0064FB1322200010490EF0B6FB16E00130AC
:10551C000EF05BFB01AA06000221280009F008F836
:10552C000EF053FB0500F0B2290008F013FEFF2328
:10553C002A002000054933400EF0C0FC002002B0C8
:10554C0070BD72B6FEE7C046247D0108FC7C0108E4
:10555C00F0B54546DE4657464E460023E0B585B0CD
:10556C0003935F4B02AD1B7804002B701000002CD2
:10557C0000D172E0012103AA08F0DAFF59490600B4
:10558C00FAF7BAFD00285ED1574E584B32780127F6
:10559C009B18013B1B789846554B9B4603E0013703
:1055AC00072F48D03278FBB29A469342F7D00EF0D0
:1055BC002BFC642301222870290000939946504645
:1055CC005A3B08F04DFD504608F0D6FD03682A788A
:1055DC009B8CDBB29A4250D03A00464920000EF028
:1055EC006DFC2000FAF792FD4B4682B22100307818
:1055FC0000930A2308F034FD54223F4920000EF09A
:10560C003BFB642330785322009321005A3B08F073
:10561C0027FD01239C46E04402E001200AF0E2FE53
:10562C0042463378013B9B015B449B5C002BF4D0DE
:10563C000137072FB6D1002005B0F0BCBB46B246EF
:10564C00A946A046F0BD0023F356702B07D00F22BD
:10565C0020002A490EF010FBEDE772B6FEE7701C35
:10566C000EF0B3FAC7B27B1E0600052B16D91B220F
:10567C00200023490EF000FBDDE73A002149200011
:10568C000EF01CFC2000FAF741FD4B4682B22100C3
:10569C00307800935A3B08F0E3FCADE70EF0B4FB16
:1056AC00642301222870290000933800323B08F053
:1056BC00D7FC380008F060FD03682A789B8CDBB2BD
:1056CC009A4206D0FF2220000A4932400EF0F6FB27
:1056DC00B1E7FF2220000B4932400EF0EFFBAAE7A6
:1056EC00E87D0108347501089F020020540C00204D
:1056FC00D40A0020547D0108687D0108D87D01087A
:10570C00BC7D0108387D0108002370B582B004000F
:10571C00150000930193002819D06A460121280036
:10572C0008F006FF0023C356702B16D00221280068
:10573C0001AA08F0FDFE0023C356702B09D00F22DE
:10574C0020001A490EF098FA002002B070BD72B613
:10575C00FEE701300EF039FAF1E701300EF035FAC0
:10576C000221060001AA280008F0E2FE0023C3561D
:10577C00702BE4D101300EF028FA0500C1B2F0B262
:10578C00FFF72EF8002808D1FF222B002000134031
:10579C00074932400EF092FBD6E76728CFD019228A
:1057AC00200004490EF068FACEE7C046D87D010807
:1057BC00EC7D01080C7E0108002370B582B004005A
:1057CC00150000930193002819D06A460121280086
:1057DC0008F0AEFE0023C356702B16D00221280011
:1057EC0001AA08F0A5FE0023C356702B09D00F2286
:1057FC0020001A490EF040FA002002B070BD72B6BB
:10580C00FEE701300EF0E1F9F1E701300EF0DDF9C1
:10581C000221060001AA280008F08AFE0023C356C4
:10582C00702BE4D101300EF0D0F90500C1B2F0B20A
:10583C00FEF7C2FF002808D1FF222B0020001340E6
:10584C00074932400EF03AFBD6E76728CFD0172233
:10585C00200004490EF010FACEE7C046D87D0108AE
:10586C00287E01084C7E0108F0B54F464646D646C8
:10587C00C0B5002782B0060001971000002E4FD053
:10588C00012101AA08F054FE0EF099F9C5B2002DC1
:10589C000BD12322300029490EF0EEF9002002B082
:1058AC00E0BCBA46B146A846F0BD254B98461B78DD
:1058BC00AB42EED3FF240440621E93009B18214A96
:1058CC009B009146A2469C1802334B4418000422BC
:1058DC00002127800EF0D9F90023E06823740EF024
:1058EC00B3F94346E7601F78BD421BD253469C0078
:1058FC005444A4004C4404E00135EDB21434BD42D0
:10590C0010D02378002BF7D020002100142214385B
:10591C000EF0B2F91422002120000EF0B6F9EBE7DC
:10592C0072B6FEE74346013F1F7005F0B5FC362208
:10593C00300005490EF0A0F9B0E7C0469C7E010886
:10594C00230A0020A4610020647E0108F0B54546BE
:10595C00DE4657464E46E0B56D4B8DB008AA0400A6
:10596C0023CB23C21B881380002C00D1C5E0694BCC
:10597C003722187801235B4200936749333308F0D0
:10598C006FFB664B1B78002B47D000239B46644B68
:10599C00644D9A46644B99465E46731CDBB29B463B
:1059AC00B30005939B199B009846534642469B5C5B
:1059BC00002B3FD1059B9C466644B60056440DE037
:1059CC00220049462B0020000EF078FA2800FAF746
:1059DC009DFB0021020028000EF057F92900F06809
:1059EC00FFF77CFC0028EBD12000FAF78FFB0600B8
:1059FC000C224E4920180EF03FF9464B3200187815
:105A0C0001230B325B4200932100333392B208F036
:105A1C0027FB424B1B785B45BED8A722200044498C
:105A2C000EF02AF900200DB0F0BCBB46B246A946D8
:105A3C00A046F0BD574647443A7C2000D3009B1A41
:105A4C0008AA94463B495A4663440EF037FA53462B
:105A5C0042469B5C012B11D1FB780B2B33D8082BC6
:105A6C0040D8052B4BD0062BA4D1FA68BB7820006C
:105A7C000092314922000EF021FA9BE7032B99D1B9
:105A8C00414606315144042207A80EF0F5F8FA7885
:105A9C000798013A53009B18284A9B00D3189B681F
:105AAC009846FDF7EFF8029003917B782000013BBC
:105ABC005A00D218224B23499B18009322004346CC
:105ACC000EF0FCF976E70C3B022B00D972E7FA6872
